:100000000C94E6010C9403020C9403020C9403027A
:100010000C9403020C9403020C9403020C9403024C
:100020000C9403020C9403020C94E90D0C942B0D18
:100030000C94EA1B0C9403020C9403020C9403022C
:100040000C9403020C9403020C9403020C9403021C
:100050000C9403020C94A91B0C9403020C9403024D
:100060000C9403020C9403020C9403020C940302FC
:100070000C9403020C9403020C9403020C940302EC
:100080000C9403020C9403020C9403020C940302DC
:100090000C9403020C9403020C9403020C940302CC
:1000A0000C9403020C9403020C94030277027C026A
:1000B00086027A027F02840282022F042F046204E5
:1000C0006204CC04EB05EB05EB05EA045E056F0565
:1000D0006F05350738073B073E07410744074707C9
:1000E000430B6A0B130D6A0B130DB60BD90B130DD3
:1000F000CE0CDE0C05010980A101850319012AB788
:1001000000150126B700950175108100C0050C0986
:1001100001A101850419012AA002150126A002955A
:100120000175108100C005010906A10185060507BA
:1001300019E029E7150025019508750181020507D9
:10014000190029EF1500250195F0750181020508B8
:100150001901290595057501910295017503910114
:10016000C00660FF0961A1010962150026FF009524
:1001700020750881020963150026FF009520750887
:100180009102C005010906A101050719E029E7153B
:100190000025019508750181029501750881010509
:1001A00007190029FF150026FF0095067508810034
:1001B0000508190129059505750191029501750339
:1001C0009101C009025B00030100A0FA09040000CC
:1001D000010301010009211101000122400007056E
:1001E0008103080001090401000203000000092145
:1001F00011010001222200070582032000010705EA
:10020000030320000109040200010300000009218A
:1002100011010001226D0007058403200001120175
:100220000002000000089732744901000102000139
:1002300016034500720067006F0044006F007800ED
:10024000200045005A00000028035A0053004100D6
:10025000200054006500630068006E006F006C00B1
:100260006F006700790020004C006100620073009D
:10027000000004030904290035002B00E1000100FF
:1002800000001E00140004001D00E00001001F001B
:100290001A0016001B00E200E3002000080007001F
:1002A000060001002C00210015000900190001536F
:1002B0000100220017000A000500000050000100A4
:1002C00001000000010000004F002300300000008A
:1002D00031000000510024001C000B001100000040
:1002E0005200250018000D001000015301002600E7
:1002F0000C000E00360001002A00270012000F003B
:100300003700E60028002D00130033003800E40019
:1003100001002E002F003400E5000100000029003C
:10032000010001000100010000003A00010001008D
:1003300001000100005C3B00010001000100010020
:1003400001003C00010001000100010001003D002E
:100350000100010001000100B9003E0001000100A0
:100360000100000001003F0001000000010000004A
:1003700001004000010000000100000001004100F8
:100380000100010001000000010042000100010025
:100390000100010001004300010001000100010013
:1003A00001004400010001000100010001004500BE
:1003B00001000100010001000100680001000100CE
:1003C000010001000000E0002F00000011241FBE0A
:1003D000CFEFDAE0DEBFCDBF11E0A0E0B1E0E6EAAA
:1003E000F2E402C005900D92AE36B107D9F723E0D2
:1003F000AEE6B1E001C01D92A232B207E1F70E9461
:10040000AC130C9451210C940000A5E0B0E0EBE09B
:10041000F2E00C94CA1EFC0186819781009709F5D1
:10042000CF0125E0DE01119601900D922A95E1F7AA
:10043000FC01228189819A81222359F0662349F0A7
:100440000E94560F182F682F89819A810E94BF1130
:1004500003C00E948B11182F69817A81812F0E941D
:10046000F4162596E3E00C94E61E109273010E94A8
:100470003C122FEF84E39CE0215080409040E1F754
:1004800000C000009AE088E10FB6F894A895809328
:1004900060000FBE90936000FFCF982F92959F70E1
:1004A00019F0892F24E001C020E0982F96959695A9
:1004B00011F02E5F892F982F969509F02F5F822FCC
:1004C0000895CF93C82F0E944D0256985E982598A4
:1004D0002D9826982E9827982F9890E0FC01319718
:1004E000E730F105A8F4EA5AFF4F0C941D20259A35
:1004F0002D9A0EC0259A2D9A269A2E9A09C0259AD1
:100500002D9A04C0259A2D9A269A2E9A279A2F9AC8
:100510008C2FCF910895A0E2B0E0E1E9F2E00C94D5
:10052000C31EFC018081918123813481232B31F012
:100530009F3F31F491E08F3F19F403C091E001C077
:1005400090E090FD69C37F0161E0CF010E94050248
:100550008C019091A101D70112968C911297992349
:1005600009F44CC0811116C1E0917101E33098F497
:1005700081E08E0F80937101F0E0EE0FFF1FE550D8
:10058000FE4F8D919C919183808382E08983CE017F
:1005900001960E941D0FBFEFE3EDF0E3B150E04084
:1005A000F040E1F700C0000080917101833009F054
:1005B000F1C010927101E1E0F2E0ABEFB1E087E051
:1005C00092E0318111962C91119732132EC0308117
:1005D0002C9132132AC0329612968E179F0789F7F4
:1005E00084E0898381E08093A2018EEF8A83109258
:1005F000A101CE0101960E941D0FCCC09091A201D5
:100600009923C1F0811102C087E001C086E089838F
:10061000D7018C918A8311968C918B838EEF8C837A
:10062000CE0101960E941D0F05C083E089831092C0
:10063000A201DBCF033BFDE51F07D1F5F701828166
:100640008823B1F19091C80181E0890F8770987F6C
:10065000853020F4892B8093C80102C09093C80193
:100660008091C8018770FFEF8F9FC001112495957D
:100670008795959587959927909389008093880011
:1006800090938B0080938A0090938D0080938C00D0
:100690004091C8015091C9016091CA017091CB018C
:1006A0008FE090E00E94941F8091DA010E94610225
:1006B000D70112968C91882309F47EC00C352DE564
:1006C000120709F461C058F401159CE5190799F067
:1006D0000F3D1C4509F070C00E9494184BC00E35A8
:1006E000BDE51B0709F448C008F450C0093A1D4590
:1006F00009F440C061C0109273010E943C122FEFB8
:1007000084E39CE0215080409040E1F700C000006D
:10071000F89481E08093E00080E28093D80010920A
:10072000C900AFE1BEE41197F1F700C000001DBAA7
:10073000109268001CBC10BE1FBA10927A00109272
:100740006E0010926F001092710010927200109261
:10075000C9001092BC0014B817B81AB81DB810BA66
:100760001092BC0015B818B81BB81EB811BA0C947A
:10077000003F10C00E94350280911A0382FB882737
:1007800080F991E0892703C081E001C080E00E94E8
:10079000891912C080917102877009F43DC2F70176
:1007A0008281882309F438C280911A0382FF34C2FF
:1007B00082E00E946C1930C2F70186819781009710
:1007C000C9F4D70112968C9112970D911C91882330
:1007D00049F0C8010E94560FD82E682FC8010E9408
:1007E000BF1104C0C8010E948B11D82EB8018D2DF5
:1007F0000E94F4160E940D17B82E192FF7010281DE
:10080000A580A2949FE0A922809171028770B9F01F
:100810000023A9F0812F807F803421F080E28B0DAE
:10082000883068F080911A0382FF09C082E00E943C
:100830006C19809171028770DD24D3948111D12CC1
:10084000C12EC2948FE0C8228C2D90E08C3091058F
:1008500008F0C1C1FC01E35AFF4F0C941D20812F09
:10086000807F1F70882311F01295107F0023B9F04C
:10087000112309F49DC180E28B0D883010F0B11076
:1008800006C090917301192B1093730105C09091CC
:100890009F02192B10939F020E94171989C18B2D5B
:1008A0000E94E012112309F496C180E28B0D88307A
:1008B00078F1BB2069F1109590919F021923109354
:1008C0009F0229C0812F807F1F70803211F0129506
:1008D000107FBB2021F0F1E0BF16D9F147C0809115
:1008E0001A0382FD1BC0002369F0112339F0909197
:1008F0007301192B109373010E94171980E00E9455
:100900000C1369C180E00E94E012112309F463C155
:10091000812F0E9410190E9417195DC1002381F0D8
:1009200080919202AA2051F021E0A21207C0182B58
:10093000181709F450C1109392024DC1812B10C0B9
:10094000AA2021F081E0A81609F445C10E940A19E5
:100950001FC0002341F091E09A1508F43CC1812F9B
:100960000E94D61238C1A11036C112C0002319F05E
:10097000AA20A9F31DC1AA2059F0A9E3BA1228C1DF
:10098000BFEFE7EEF3E0B150E040F040E1F71EC109
:10099000812F0E94CF121FC1812F8695869583706B
:1009A00019F0813061F017C1002321F08B2D912FB8
:1009B000937002C080E090E00E94511C12C100239D
:1009C00021F08B2D912F937002C080E090E00E9467
:1009D0003B1C07C1812F8370A9F5011100C14B2D6C
:1009E000429546954770440F440F8B2D8F7090E0D1
:1009F0009C01042E01C0220F0A94EAF7B4FE08C03D
:100A00008FE090E001C0880F4A95EAF7809501C019
:100A100080E0169516951370123069F088F4909165
:100A20009302113019F0822B892302C0922B892B5B
:100A30000E943712D4C0822B909193028927F8CF5D
:100A4000822BF6CF002319F0812F817001C086958B
:100A5000882309F4C4C04B2D429546954770440F36
:100A6000440F8B2D8F7090E09C01042E01C0220F4B
:100A70000A94EAF7B4FE08C08FE090E001C0880F46
:100A80004A95EAF7809501C080E016951695137097
:100A9000123059F078F49091DA01113019F0822B6C
:100AA000892309C0922B892B06C0822B9091DA01F1
:100AB000892701C0822B0E94F41191C01F7000236E
:100AC00039F0812F0E942B128B2D0E94D61287C0E5
:100AD0008B2D0E94CF12812F0E941E1280C022EF08
:100AE000B21671F12B1538F080EFB81659F091EF6E
:100AF000B91609F159C0A3EFBA1649F1B4EFBB1604
:100B0000B1F052C0002371F0A11065C01F7181E0E7
:100B100090E0012E01C0880F0A94EAF79091DA0163
:100B2000892720C0E1E0EA1508F455C0EFCF809195
:100B30001A0382FD1AC0002329F0812F8F7127C06C
:100B40000023D9F3812F8F710E941E1244C000230D
:100B500041F01F7181E0012E01C0880F0A94EAF76D
:100B600001C080E00E94F41136C0002399F01F718B
:100B7000812F0E942B1280911A0382FF07C0F8E098
:100B80001F9FC0011124836080937102812F0E94F6
:100B90002B1221C081E00E946C1921E02A15D8F4A3
:100BA00082E00E946C1917C0002321F0AA2029F2CC
:100BB0008B2DA5CEAA2031F289E3B81209C09FEF90
:100BC000A7EEB3E09150A040B040E1F700C00000B4
:100BD0008B2D0E94E01288EF8C0D843010F40E945F
:100BE000671CDD20A9F08091710280FD11C0F70122
:100BF00012828595859585950E942B12C7010E94CA
:100C00008B02809171028595859585950E941E12B3
:100C100060E0C7010E940502A096EAE00C94DF1E86
:100C200080E290E090931801809317018091700109
:100C300081110EC00E94D71D81E0809370012FEFBB
:100C400083ED90E3215080409040E1F700C0000028
:100C500060E570E080E40E94DD1D909318018093B0
:100C60001701892B09F04EC060E570E080E00E941A
:100C7000501E9093180180931701892B09F042C0F0
:100C800060E570E080E00E94501E90931801809310
:100C90001701892BB9F560E570E08FE30E94501EC3
:100CA0009093180180931701892B61F50E94A31E70
:100CB00060E570E080E40E94DD1D90931801809350
:100CC0001701892BF9F460E570E08CE00E94501E5A
:100CD0009093180180931701892BA1F460E570E0CF
:100CE00080E00E94501E9093180180931701892B79
:100CF00049F460E570E08FE30E94501E9093180164
:100D0000809317010E94A31E809117010895CF932D
:100D1000DF9356985E9825982D9826982E982798B8
:100D20002F98C8E8D0E08FEF90E099838883AAE8F5
:100D3000B0E011969C938E93ECE8F0E09183808371
:100D4000259A2D9A2FEF80E792E021508040904025
:100D5000E1F700C00000269A2E9A2FEF80E792E07C
:100D6000215080409040E1F700C00000279A2F9A60
:100D70002FEF80E792E0215080409040E1F700C0E3
:100D8000000025982D982FEF80E792E021508040B9
:100D90009040E1F700C0000026982E982FEF80E7E2
:100DA00092E0215080409040E1F700C00000279879
:100DB0002F988091C80187702FEF829FC001112466
:100DC0009595879595958795992799838883119609
:100DD0009C938E939183808356985E9825982D9846
:100DE00026982E9827982F98DF91CF910895CF932A
:100DF000E82F873080F58091170190911801892B99
:100E000009F047C0CE2F60E570E080E40E94DD1D50
:100E10009093180180931701892BD1F460E570E05D
:100E200082E10E94501E9093180180931701892B34
:100E300079F481E090E001C0880FCA95EAF760E597
:100E400070E080950E94501E9093180180931701C6
:100E50000E94A31E1EC090E0FC013797E730F10509
:100E6000C0F4E759FF4F0C941D20209A289811C018
:100E7000219A29980EC0229A2A980BC0239A2B985F
:100E800008C0529A5A9805C0539A5B9802C03E9A7D
:100E90004698CF91089520982898219829982298CB
:100EA0002A9823982B9852985A9853985B983E9872
:100EB00046980895CF93873040F58091170190911F
:100EC0001801892B59F560E570E081E40E94DD1D71
:100ED0009093180180931701892B11F0C0E011C085
:100EE00080E590E00E947F1E97FF05C09093180157
:100EF00080931701F3CFC82FC0951092180110925C
:100F000017010E94A31E8C2F0AC09FB18FB1807F52
:100F1000869586959370892B809501C080E0CF914E
:100F200008958098889A8198899A84988C9A85984F
:100F30008D9A86988E9A87988F9A0895A5E1B0E049
:100F4000E4EAF7E00C94BE1E498B5A8B6B8B7C8BCA
:100F50008D8B611110929F029E01275F3F4F88E0A9
:100F6000D9011D928A95E9F785E0FE017196D901B4
:100F700001900D928A95E1F789859A854C855D856A
:100F8000452B31F09F3F31F491E08F3F19F403C0BE
:100F900091E001C090E090FD64C061E0C9010E9451
:100FA00005027C01883FBCE59B0741F48B858823C3
:100FB00009F462C081E08093200153C0893FECE5D1
:100FC0009E0739F48B85882309F456C00E94101DB2
:100FD00048C08A3F9C4509F04FC08B85882309F49F
:100FE0004BC080912001882329F3F0CF2FEFC21648
:100FF000D20609F45EC140911D01411157C0109104
:101000002001212F122F11703B8520911E0180910C
:101010001F01332309F4ECC0112309F4E9C0222392
:1010200009F447C021E030E0A90102C0440F551F78
:101030009A95E2F7CA01019720911F0130E08217CB
:10104000930709F44FC08B85811135C190910A0334
:1010500080910B03981709F45EC10E941F1D1111A6
:101060006CC129853A854B855C856D857E858F852C
:1010700098890E94501261C16091190170911A0102
:10108000CC24CA94DC2C90E0492F50E0FA01EE0FFA
:10109000FF1FE60FF71F25913491E216F30609F4BE
:1010A0006A01232B09F4A2CF9F5FEECF20E030E04E
:1010B000A9CF21E030E00C2C01C0220F0A94EAF7FE
:1010C000822B80931F0120919D0230919E0222333A
:1010D000310508F0A7CF22E330E030939E02209341
:1010E0009D02A0CF80910C0390910D03009729F0F1
:1010F0000E94CF1BC39708F019C180910A03009189
:101100000B038090190170901A01982FE0E0F0E035
:1011100067E099249394801709F456C0482F50E053
:10112000FA01EE0FFF1FEE5FFC4FA081B1816A9FB5
:10113000F0016B9FF00D1124E75EFE4F608051803F
:1011400070E020E030E0E62DF52DE30FF11DE30F18
:10115000F11DC590D490C114D104A1F020E0E82D78
:10116000F72DE20FF11DE20FF11DA590B490A1142F
:10117000B10431F0CA14DB0409F471E02F5FEFCF42
:101180003F5FE1CF7723C9F0231708F4CDC06A9FF2
:10119000F0016B9FF00D1124E75EFE4F309779F060
:1011A0009482A1E0E931FA0709F4C4C0891307C0A9
:1011B000CA010196982F937002C0E0E0F0E04F5F03
:1011C0005F4F842F8370A7CF90930A03E951F140BA
:1011D00009F439CF90E0FC01EE0FFF1FEE5FFC4FEA
:1011E0001182108201968370992780930B032BCF75
:1011F000211116C021E030E002C0220F331F9A9562
:10120000E2F72150310990E02817390709F042C070
:10121000442309F440C080E090E00E94741C3AC06E
:1012200090E09C0121503109282339230C2C02C065
:10123000959587950A94E2F7232B49F580FF27C0FF
:1012400080911B0190911C01892BE9F0FE013196E0
:1012500088E0DF011D928A95E9F78EEF89838A8302
:101260000E94DE1B8160582F9D838C8380911B011F
:1012700090911C018F83988729813A814B816D81E0
:101280007E810E94501210921E0111E004C0182F9E
:10129000117001C010E081E090E00C2C01C0880FBB
:1012A0000A94EAF7809590911F01892380931F018A
:1012B000CACE10E0C8CE112309F4C8CE0E94DE1BAE
:1012C00090930D0380930C038091A1028830A8F5C0
:1012D00091E0980F9093A10298E0FE013996DE010B
:1012E000119601900D929A95E1F7BCE08B9FC00199
:1012F00011248E559D4F28E0FE013196DC010190AE
:101300000D922A95E1F72FEF3FEFFC0131872087FF
:10131000F386E28612C00E94A21C10920D03109266
:101320000C030E94031D9BCE90930A0381E08093DF
:101330001D0189CE90930A0386CE6596EFE00C944A
:10134000DA1E8091990187FF11C08091E80082FD2B
:1013500005C08091A4018111F8CF11C08091E800EF
:101360008B770BC08091A401882349F08091E8001D
:1013700080FFF8CF8091E8008E778093E800089591
:10138000982F973068F59093E900981739F070918D
:10139000EC002091ED005091F00003C0242F762F37
:1013A00050E021FD02C09F5FECCF3091EB003E7F0B
:1013B0003093EB003091ED003D7F3093ED003091A4
:1013C000EB0031603093EB007093EC002093ED0064
:1013D0005093F0002091EE0027FDE5CF80E00895C6
:1013E0008F708093E90081E0089520919F013091F2
:1013F000A0012617370748F06115710539F42091CF
:10140000E8002E772093E80001C0B901FC0120E03C
:101410006115710579F18091A4018823F1F185307E
:10142000F1F18091E80083FD3CC08091E80082FDED
:101430002EC08091E80080FFEBCF2091F3008091D7
:10144000F20090E0922B6115710551F08830910502
:1014500038F421912093F100615071090196F3CF86
:1014600021E0089709F020E08091E8008E778093D2
:10147000E800CECF2111CFCF0AC08091A4018823EC
:1014800061F0853061F08091E80083FD0AC08091B1
:10149000E80082FFF2CF80E0089582E0089583E0C3
:1014A000089581E008950895BC0184E00E947F1BA7
:1014B0000895BC0183E00E947F1B0895AAE2B0E07A
:1014C000E4E6FAE00C94CA1EE9E9F1E081EA91E071
:1014D0002091F10021938E179F07D1F780919A01F7
:1014E000833009F463C030F4813071F0823009F444
:1014F0009FC0B6C08A3009F48BC08B3009F46EC02F
:10150000893009F0ADC020C080919901813A09F07D
:10151000A7C08091E800877F8093E80080919D01BB
:1015200090919E01892B21F460E286E791E003C04F
:1015300060E080E090E070E00E94F5098091E800B2
:101540008B778093E8008CC080919901813209F0FB
:1015500087C080919D0190919E01009719F002979C
:1015600009F07EC08091E800877F8093E800809139
:10157000E80082FD05C08091A4018111F8CF70C000
:101580002091F3008091F20090E0922B029731F4C9
:101590008091F100813011F0863021F48091F100CA
:1015A000809375018091E8008B7756C080919901F6
:1015B000813A09F055C080919D0190919E01892B3F
:1015C00009F04EC08091E800877F8093E800809109
:1015D000E80080FFFCCF80910A0139C08091990119
:1015E0008132F1F580919D0190919E01892BC1F589
:1015F0008091E800877F8093E8000E94A109809194
:101600009B0180930A01109273010E943C1228C032
:1016100080919901813221F58091E800877F809344
:10162000E8000E94A10980919C018093740118C078
:1016300080919901813AA1F48091E800877F80939D
:10164000E8008091E80080FFFCCF809174018093D6
:10165000F1008091E8008E778093E8000E94A10954
:101660008091E80083FFDFC18091990190919A01F8
:10167000492F50E04A30510508F0D5C1FA01E05930
:10168000FF4F0C941D20803821F0823809F0CBC127
:1016900008C08091960190919701992389F082600A
:1016A0000FC080919D018F70873008F0BCC180937E
:1016B000E9008091EB0085FB882780F91092E90012
:1016C0009091E800977F9093E8008093F10010924A
:1016D000F10070C1282F2D7F09F0A5C1882319F0D2
:1016E000823061F0A0C180919B01813009F09BC1E3
:1016F000933009F080E0809397012EC080919B0188
:1017000081112AC080919D018F702FEF280F263004
:1017100008F089C18093E9002091EB0020FF1CC0F4
:10172000933021F48091EB00806214C09091EB0023
:1017300090619093EB0021E030E0A90102C0440FDA
:10174000551F8A95E2F74093EA001092EA008091D3
:10175000EB0088608093EB001092E9008091E80034
:10176000877F8093E8000E94A1095DC181115BC160
:1017700010919B011F778091E3008078812B8093EB
:10178000E3008091E800877F8093E8000E94A10930
:101790008091E80080FFFCCF8091E3008068809317
:1017A000E300111102C082E001C083E08093A40134
:1017B0003AC18058823008F036C120919B013091A7
:1017C0009C012C3D53E0350779F583E08A838AE25A
:1017D00089834FB7F894DE01139620E03EE051E292
:1017E000E32FF0E050935700E49120FF03C0E2950F
:1017F000EF703F5FEF708E2F90E0EA3010F0C796E9
:1018000001C0C0968D939D932F5F243149F74FBF40
:101810008091E800877F8093E8006AE270E0CE0163
:1018200001960E94F509B4C080919D0190919E019E
:10183000432F552743305105A9F068F44130510535
:1018400009F400C14230510509F0EDC08BE590E08C
:10185000E3ECF1E04BC04132510529F14232510530
:1018600089F1E1C0C901992781309105A1F058F0B3
:10187000029709F0D8C0E0E3F2E0E4918E2F90E007
:10188000E0E3F2E030C0E2E7F2E0E4918E2F90E096
:10189000E2E7F2E028C0E8E4F2E0E4918E2F90E085
:1018A000E8E4F2E020C08330910508F0BCC0880F66
:1018B000991FFC01E65DFE4F0190F081E02D89E06B
:1018C00090E014C08330910508F0ADC0FC01EE0F2C
:1018D000FF1FEC5DFE4F0190F081E02DDC01AF5D5C
:1018E000BE4F8C9190E0009709F49DC02091E800D4
:1018F000277F2093E80020919F013091A0012817B5
:10190000390708F4C90140E0009789F12091A4014A
:10191000222309F43DC02530D9F12091E80023FDB0
:1019200037C02091E80022FD2FC02091E80020FF61
:10193000EBCF4091F3002091F20030E0342B009780
:1019400059F02830310540F444914093F10031962C
:1019500001972F5F3F4FF3CF41E02830310509F069
:1019600040E02091E8002E772093E800CDCF411190
:10197000CDCF0AC08091A401882351F0853041F079
:101980008091E80083FD04C08091E80082FFF2CFDF
:101990008091E8008B778093E80045C0803809F09B
:1019A00042C08091E800877F8093E8008091980191
:1019B0008093F1008091E8008E77D3CE811133C0FF
:1019C00080919B0190919C019927029764F58091E9
:1019D000E800877F8093E80010919B0110939801A5
:1019E0000E94A109111106C08091E30087FD02C089
:1019F00081E001C084E08093A40142E061EC81E0D9
:101A00000E94C00942E261EC84E00E94C00942E207
:101A100061EC82E00E94C00942E260EC83E00E9437
:101A2000C0098091A4018091E80083FF10C08091DB
:101A3000E800877F8093E8008091EB0080628093CC
:101A4000EB0005C082E190E0EEE1F2E04FCFAA9614
:101A5000E3E00C94E61E1F920F920FB60F92112432
:101A60002F933F934F935F936F937F938F939F93A6
:101A7000AF93BF93CF93DF93EF93FF93C091E900B0
:101A8000CF708091EC00D82FD17080FDD0E81092FB
:101A9000E9008091F000877F8093F00078940E94A5
:101AA0005E0A1092E9008091F00088608093F00057
:101AB000CD2BCF70C093E900FF91EF91DF91CF91D3
:101AC000BF91AF919F918F917F916F915F914F9156
:101AD0003F912F910F900FBE0F901F901895E8ED3A
:101AE000F0E080818E7F80831092E2001092DA0015
:101AF0001092E100A0EEB0E08C9181608C93808127
:101B00008F77808319BCA7EDB0E08C918E7F8C938A
:101B100080818F7E8083109272010895A0E0B0E0F2
:101B2000E4E9FDE00C94C51EC8EDD0E088818F7E0D
:101B30008883E7EDF0E080818160808384E082BF6C
:101B400081E08093720188818E7F888302EE10E0AD
:101B5000F80110821092DA0081EEC82ED12CF60125
:101B6000108288818F7788838881806888838881C4
:101B70008F7D888319BC1092A40110929801109255
:101B800097011092960190EEE92EF12CF7018081D9
:101B90008B7F808388818160888342E060E080E081
:101BA0000E94C009F60180818E7F8083F8018081C8
:101BB00081608083808188608083F70180818E7F4F
:101BC0008083888180618883CDB7DEB7E8E00C949C
:101BD000E11E1F920F920FB60F9211242F933F9385
:101BE0004F935F936F937F938F939F93AF93BF9325
:101BF000EF93FF938091E10082FF09C08091E200A2
:101C000082FF05C08091E1008B7F8093E10080918D
:101C1000DA0080FF2AC08091D80080FF26C0809122
:101C2000DA008E7F8093DA008091D90080FF18C09F
:101C300080E189BD82E189BD09B400FEFDCF81E06C
:101C40008093A4018091720181110FC00E946F0DD9
:101C50000E948E0D8091E20084608093E20005C0B6
:101C600019BC1092A401109272018091E10080FFD2
:101C700017C08091E20080FF13C08091E2008E7F48
:101C80008093E2008091E20080618093E200809185
:101C9000D80080628093D80019BC85E08093A401AD
:101CA0008091E10084FF30C08091E20084FF2CC06D
:101CB00080E189BD82E189BD09B400FEFDCF80913C
:101CC000D8008F7D8093D8008091E1008F7E809333
:101CD000E1008091E2008F7E8093E2008091E2003B
:101CE00081608093E20080919801882311F084E064
:101CF00007C08091E30087FD02C081E001C083E05E
:101D00008093A4018091A4018091E10083FF27C00A
:101D10008091E20083FF23C08091E100877F809360
:101D2000E10082E08093A401109298018091E1008B
:101D30008E7F8093E1008091E2008E7F8093E200AD
:101D40008091E20080618093E20042E060E080E008
:101D50000E94C0098091F00088608093F000FF919C
:101D6000EF91BF91AF919F918F917F916F915F9113
:101D70004F913F912F910F900FBE0F901F9018958C
:101D80002091E4003091E50095E64091EC00842F2D
:101D9000817040FF23C08091E80080FD1DC08091CC
:101DA000A401882399F0853099F08091EB0085FD9E
:101DB00011C04091E4005091E5002417350729F344
:101DC000915011F09A01E1CF84E0089582E00895E6
:101DD00083E0089581E0089580E008954091E8004F
:101DE00042FFDDCF0895EF92FF920F931F93CF93A1
:101DF000DF937C018B010E94C00E811119C0E701A5
:101E000001151105A1F08091E80085FD0AC08091BF
:101E1000E8008E778093E8000E94C00E882381F34B
:101E200007C089918093F10001501109E9CF80E04A
:101E3000CDB7DEB7E6E00C94E31ECF932091A4016A
:101E4000243029F5C091E900CF703091EC00232FA8
:101E5000217030FD20E8C22B22E02093E900209180
:101E6000E80020FF11C040E050E060E270E00E9416
:101E7000F30E882321F01092A1011092A20180910B
:101E8000E8008E778093E800CF70C093E900CF918F
:101E9000089580E090E00E94511C80E090E00E9454
:101EA0003B1C10929F020E9417190895CF92DF9257
:101EB000FF920F931F93CF93DF936C010091DA0190
:101EC00080919302082BC7E0D0E010E0C8010C2EEF
:101ED00002C0959587950A94E2F780FD04C021978A
:101EE000A8F7F12C09C0FC2EB6018C2F0E94F41625
:101EF0000E940D17019799F38F2DDF91CF911F91BC
:101F00000F91FF90DF90CF900895CF93DF93EC0176
:101F10000E94560FBE010E94F4160E940D17DF9119
:101F2000CF910895CF93FC019081818123813481E9
:101F3000232B31F08F3F31F481E09F3F19F403C030
:101F400081E001C080E0C82FC17080FD23C0868180
:101F50009781009719F00E940D1704C0808191812C
:101F60000E94850F92959F70963079F010F49250F0
:101F700001C09A50923088F4803F71F018F4883E86
:101F800060F40AC0843F49F407C0883E28F0813FCE
:101F900021F402C0C0E001C0C1E08C2FCF910895B0
:101FA000A5E1B0E0E6EDFFE00C94C21E8C0185E0F7
:101FB000F801DE01519601900D928A95E1F7F80142
:101FC000E280909127026091280240912A0250916C
:101FD0002B024115510531F06F3F31F481E09F3FF5
:101FE00019F403C081E001C080E0F82FF1709F2E4A
:101FF00080FD4FC1F80130812181C380D48077E218
:10200000A72E72E0B72EF0902902F601E41BF50B23
:10201000FF2009F4F0C080912C02E83CF10508F0A3
:10202000ABC0482F407F09F05BC062131BC0931305
:1020300019C060912D0270912E02F80146815781DE
:102040006417750779F4FE2CE1100CC08F70806165
:1020500080932C02C5010E948B0280912C02F80112
:10206000858354C1C114D10431F02F3F31F481E094
:102070003F3F19F403C081E001C080E080FD03C050
:1020800081E08E2502C080E090E0F82FF170FF2EF5
:1020900080FF1CC08091700240912F02841709F4C8
:1020A00013C190E0FC0153E0EE0FFF1F5A95E1F7DA
:1020B000E05DFD4F5181251306C05081531303C0CD
:1020C0005281E51203C001968770E8CFFE2CEE2006
:1020D00009F41CC180912C02816080932C0258C0AD
:1020E00062130FC093130DC040912D0250912E0228
:1020F000F801268137814217530719F4EE2009F4BD
:10210000A7C0C8010E94920F882381F1EE2071F1CF
:1021100020912C02822F82958F7090E00297A4F07C
:1021200080912702909128029A8789871B86DD86F5
:10213000CC862E8780912D0290912E02988B8F87CE
:10214000CE0109960E948B0288E0F801A7E2B2E076
:1021500001900D928A95E1F70E94AF190AC06217AB
:10216000C9F0C8010E94920F811127C0C8010E94C6
:102170008B02FF24F394CAC0482F407F81F787E287
:1021800092E00E948B0288E0F50111928A95E9F7AE
:10219000F12CBCC09313E5CF40912D0250912E023B
:1021A000F8012681378142175307D9F6E110D9CFBC
:1021B0008583C8010E948B0266C0EE20B9F220918F
:1021C0002C02822F82958F7090E002970CF4BCCF86
:1021D00080912702909128029A8389831B82DD8255
:1021E000CC822E8380912D0290912E0298878F832E
:1021F000CE010196A7CFE83CF10508F044C0FE2CC3
:10220000EE2009F4B3CF621330C093132EC0209197
:102210002D0230912E02F801868197812817390707
:1022200021F590912C0290FD17C0892F82958F7017
:10223000282F30E02115310579F095832F303105B5
:1022400041F08F5F982F9295907F85818F70892BB9
:102250008583C8010E948B0288E0F801A7E2B2E002
:1022600001900D928A95E1F751C0C8010E94920F2A
:1022700081116ACF80912C02816080932C02C80169
:102280000E948B0243C088E0F50111928A95E9F71C
:102290003DC0EE2009F46ACFC8010E94920FF82ECB
:1022A000882309F463CF88E0F801A7E2B2E0019047
:1022B0000D928A95E1F780912702909128020E9461
:1022C000850F0E94AF1922C0398B2A8B89899A8980
:1022D0000E94850F292F22952F70223028F49F709D
:1022E00039F0811105C00BC0243028F49F7049F4E7
:1022F000805E883020F0C8010E948B029F2CF92C50
:1023000005C0F8019581907F99F7F9CF8F2D6596DB
:10231000EBE00C94DE1E292F9E3078F5863068F5B0
:1023200090E036E0239F800D911D1124682F677087
:1023300023E0969587952A95E1F7FC01EE0FFF1FA4
:10234000E80FF91FEB55FE4F40E050E080E021918F
:1023500030E0062E02C0369527950A94E2F72170E8
:102360003327042E01C0220F0A94EAF7822B4F5F15
:102370005F4F4330510559F7089580E00895292FA4
:102380009E3088F5863078F590E036E0239F800D0A
:10239000911D1124282F277051E001C0550F2A9557
:1023A000EAF723E0969587952A95E1F7FC01EE0F71
:1023B000FF1FE80FF91FEB55FE4F20E030E070E003
:1023C0004081CB01022E02C0969587950A94E2F7D0
:1023D0008170819584278523842781932F5F3F4FC8
:1023E0002330310569F70895A0E2B0E0EAEFF1E1AA
:1023F0000C94CA1E0E946102182F8091A2018823AA
:10240000A9F02FEF80E792E0215080409040E1F763
:1024100000C0000085E08983812F0E944D028A83DD
:102420008EEF8B83CE0101960E941D0F1093DA016F
:102430000E94490FA096E3E00C94E61E21E030E0F4
:1024400001C0220F8A95EAF720958091DA01822354
:102450000E94F411089521E030E001C0220F8A9516
:10246000EAF78091DA01822B0E94F411089580939B
:1024700093020E94490F089580910A01882331F048
:102480008091190387FF02C08EE101C086E0E9E078
:10249000F2E0DF011D928A95E9F70E94490F089545
:1024A000A0E1B0E0E6E5F2E10C94CB1E29873A8783
:1024B0004B875C876D877E878F87988BCE010996C7
:1024C0000E94D00F811151C088E0FE013996DE01D3
:1024D000119601900D928A95E1F779856A854C8570
:1024E0005D854115510531F06F3F31F481E07F3F4B
:1024F00019F403C081E001C080E080FD36C0A091E6
:102500002F02B0E0CD0101968770992720917002CB
:1025100030E08217930781F179836A835D834C836E
:1025200093E0AA0FBB1F9A95E1F7A05DBD4F98E01D
:10253000FE01319601900D929A95E1F780932F025A
:102540000E94A51912C028E0829FC0011124805D5D
:102550009D4F0E94D00F8823F1F08091700290E08F
:1025600001968770992780937002809170029091F4
:102570002F028913E8CF0FC0109273010E943C1202
:1025800010922F0210927002E7E2F2E088E0DF0181
:102590001D928A95E9F76096E2E00C94E71E882385
:1025A00021F00E9410190E9417190895882339F00C
:1025B00090917301892B809373010E9417190895DC
:1025C000882349F1682F8CEF860F813A28F487E041
:1025D00092E00E94131C0CC080E2860F883058F4F1
:1025E000677081E001C0880F6A95EAF70E941019B0
:1025F0000E94171908958BE5860F833028F480E038
:1026000090E00E94511C0895685A673120F480E0E0
:1026100090E00E943B1C0895CF93882309F49AC050
:10262000C82F8CEF8C0F813A08F05EC080910A01B0
:102630008823E1F08091190387FF18C0EC2FE695FD
:10264000E695E695F0E0E95FFD4F8281282F30E0C6
:102650004C2F477081E090E002C0880F991F4A9587
:10266000E2F782239323892B59F411C0E9E0F2E0C9
:102670008191C81729F082E0EF30F807C9F707C049
:102680006C2F87E092E00E94131C0E941719809122
:102690000A018823C9F08091190387FF15C0AC2F68
:1026A000A695A695A695B0E0A95FBD4FC77081E03D
:1026B00090E001C0880FCA95EAF712969C91129794
:1026C000892B12968C9320C0A9E0B2E0EFEF80E056
:1026D0009D91C917C9F0EF3F19F4911101C0E82F7E
:1026E0008F5F8630A9F72DC080E28C0F883078F498
:1026F000C77081E090E001C0880FCA95EAF7909119
:102700007301892B809373010E94171923C0EBE595
:10271000EC0FE33040F4F0E0E45CFE4F808190E0A9
:102720000E94511C17C0C85AC731A0F4EC2FF0E02A
:10273000EE0FFF1FE15CFE4F808191810E943B1CE8
:1027400009C0EF3F09F30E2E000CFF0BE95FFD4FB0
:10275000C283DACFCF910895ACE5B0E0E2EBF3E1CC
:102760000C94BE1E85B7806885BF85B7806885BF1D
:1027700084B7877F84BF0FB6F894A89580916000D6
:10278000886180936000109260000FBE90E080E846
:102790000FB6F89480936100909361000FBE8FEAAA
:1027A00096E190936F0180936E010E946F0D0E94DD
:1027B0008E0D8091E20084608093E2007894809195
:1027C000A4018823A1F01091E9001F709091EC0002
:1027D000892F817090FD80E8182B1092E90080917C
:1027E000E80083FD0E945E0A1F701093E90082E0FA
:1027F00084BD93E095BD9AEF97BD80936E000E94D3
:10280000100690E090931801809317010E944B07E7
:102810000E949107ECECF1E0ADEDB1E011921D9258
:1028200021E0EA3DF207D1F78EE090E00E942320FC
:102830008093C6019093C701FC010E961192E81790
:10284000F907E1F789EA8093800089E080938100AD
:1028500024982C983F988AB18F7C8AB96E98479AB1
:102860008BB180638BB9769A8FE090E00E94661FEF
:102870006093C8017093C9018093CA019093CB0102
:1028800067708FEF689FB0011124759567957595F6
:1028900067957727709389006093880070938B0009
:1028A00060938A0070938D0060938C000E9487066D
:1028B00080E090E00E946C1F883E9E4F11F00E94C5
:1028C000941882E090E00E945E1F8093EB0184E008
:1028D00090E00E945E1F182F82E290E00E945E1F2F
:1028E000212F30E0382B30931A032093190383E013
:1028F00090E00E945E1F0E9437128091DA010E94D0
:1029000061028BE091E0909311038093100338E112
:10291000E32EF12C4BEEC42E41E0D42E8091A40185
:10292000853009F055C020E4B22E00E112E180911B
:10293000A401853009F046C08091A401843009F1DA
:10294000109214030FB6F894A895E09260000FBEA1
:10295000B092600083B7817F846083BF83B781605A
:1029600083BF7894889583B78E7F83BF0FB6F89422
:10297000A89580916000886180936000109260004B
:102980000FBE80919701882391F20E94100690E07B
:1029900090931801809317010E944B070E949107A2
:1029A000EDEDF1E0119221E0EB3EF207D9F70E9444
:1029B000161AEDEDF1E081918111B9C1CE16DF0655
:1029C000D1F7B5CF109273010E943C120E94671C90
:1029D0000E94161A9CEEA92E91E0B92E2AEF31E042
:1029E000ADEDB1E0F50191918D9189272E173F074B
:1029F00019F08823C1F332C0811130C00E94DE1B60
:102A00008C018091DB019091DC010817190709F412
:102A100073C08FEF64968FAF649765968FAF65979D
:102A200066961FAE66970E94DE1B8160782F6896BF
:102A30009FAF8EAF689764964FAD649765965FAD14
:102A4000659766966FAD669768968FAD68970E949A
:102A50009E071093DC010093DB014EC08DED882EA4
:102A600081E0982E10E0F40151904F01F501608053
:102A7000652481F100E077247394862D872121F16C
:102A800069960FAF69976A961FAF6A9791E0852D97
:102A9000872109F490E06B969FAF6B970E94DE1B35
:102AA0008160782F6D969FAF8EAF6D9769964FAD11
:102AB00069976A965FAD6A976B966FAD6B976D96E7
:102AC0008FAD6D970E949E070F5F770C0630A9F6B9
:102AD000F50150821F5FFFEFAF1ABF0A1E3009F0E9
:102AE000C2CF8FB7F89440911503509116036091AF
:102AF0001703709118038FBF80912001882341F143
:102B000080910C0390910D03009711F10E94CF1B4F
:102B100020919D0230919E0228173907C8F49091A8
:102B20000A0380910B03981759F00E941F1D109201
:102B30009E0210929D0210920D0310920C0308C089
:102B40000E94A21C10920D0310920C030E94031D00
:102B50000E94671C9091FA01891769F08093FA012D
:102B60008FB7F894409115035091160360911703A5
:102B7000709118038FBF8091A401843009F0CECEEC
:102B800083E08093E9008091E80082FFC7CE8091C6
:102B9000E80085FF22C00E94C00E81111CC000E227
:102BA00010E05E0121E2A20EB11C08C08091F1008C
:102BB000F50181935F010150110969F08091E800EE
:102BC00085FDF4CF8091E8008B778093E8000E9428
:102BD000C00E882399F391E001C090E08091E80055
:102BE0008B778093E800992309F498CE89A18230ED
:102BF00099F040F48823A9F1813009F08FCE01E0EB
:102C000012E03CC0853009F489C0863009F486C0E2
:102C1000843009F083CE76C08BA19AA19093FB01FA
:102C20008093FC018DA19CA19093FD018093FE01F6
:102C30008FA19EA19093FF018093000242E150E09A
:102C400063E270E0CE018F5B9F4F0E944E1F84E0D5
:102C5000898381E08093A2018EEF8A831092A10183
:102C600061C019828CE0E0E3F1E0DE011296019090
:102C70000D928A95E1F78EEF8D8754C00E94B71DA3
:102C8000F801819391938F01F2E007301F07B1F7AC
:102C900081E08983909101029A83909102029B8343
:102CA000909103029C83909104029D839091050270
:102CB0009E83909106029F839EEF98878093A10147
:102CC000CE0101960E941D0F42E150E063E270E0E8
:102CD000CE0101960E944E1FFE01319682E18330A3
:102CE0001CF09189928B01C0128A815031978F3FDD
:102CF000B1F742E150E063E270E0CE0101960E943C
:102D0000721F0CCE8091A201882309F407CE80E0C7
:102D10000E94F4118AA10E942B1200CE8FEF8983AA
:102D200084E08A83CE0101960E941D0FF7CD09BD74
:102D300019BD09B400FEFDCF8091D8008F7D80932E
:102D4000D8008091E00082608093E0008091E000F4
:102D500081FDFCCF109273010E943C12E8CD80E00F
:102D600008959091190392FF0DC0282F28712830E3
:102D700019F4877F846006C0282F2471243011F451
:102D80008B7F886093FF0DC0282F2871283119F49C
:102D9000877E846106C0282F2471243111F48B7E34
:102DA000886120911A0320FF0DC0382F3871383008
:102DB00019F4877F816006C0382F3171313011F4EA
:102DC0008E7F886021FF0DC0282F2871283119F4CB
:102DD000877E816106C0282F2171213111F48E7EFA
:102DE000886194FD877E08957E30A0F4663090F46B
:102DF00094E5899FF001112486E0789FE00DF11D94
:102E00001124E60FF11DEE0FFF1FEA58FD4F8591CB
:102E10009491089580E090E00895CF93DF938238F5
:102E2000910569F1B0F48133910509F477C048F454
:102E30008932910509F469C08A32910509F473C099
:102E400092C08533910509F45BC089339105B9F0CF
:102E50008AC0833E910591F138F4803E9105D1F00E
:102E6000823E910531F17FC0863E9105D9F1873EC2
:102E70009105E9F1843E910509F075C028C02091C3
:102E8000190320FD5BC021FD59C020911A0323FDC9
:102E900061C069C08091190380FD4AC080911A0306
:102EA00080FF4CC08091190384FD39C183EE90E00E
:102EB00038C18091190382FF3EC0F4CF809119037D
:102EC00082FD39C080911A0380FD38C0EBCF80911C
:102ED0001A0381FF39C08091190384FD20C187EE58
:102EE00090E01FC18091190383FF2BC0F4CF809124
:102EF000190383FD26C080911A0381FD25C0EBCF05
:102F00008091190385FD26C022C08091190385FD9B
:102F10001EC080911A0383FF1DC00AC0809119034F
:102F200086FD1BC01DC08091190386FD19C015C008
:102F300089E390E0F6C082EE90E0F3C080EE90E08E
:102F4000F0C086EE90E0EDC084EE90E0EAC085E34C
:102F500090E0E7C089E290E0E4C08AE290E0E1C05E
:102F600081E390E0DEC0811532E5930708F05FC091
:102F7000811541E5940728F0982F8827816F906A82
:102F8000D0C0883E910568F5803E910508F0C9C023
:102F9000883A9105B8F4853A910548F0855AE82FAA
:102FA000F0E0E45CFE4F808190E09064BAC0813034
:102FB000910509F4B1C008F4B2C08430910508F459
:102FC000AEC0AFC08F3B910508F0A9C0885AE82F6A
:102FD000F0E0EE0FFF1FE15CFE4F80819181946471
:102FE000A0C0811520E59207A0F0AC0143705527E1
:102FF00021E030E002C0220F331F4A95E2F78695A8
:10300000869540E2849FC0011124822B932B9D68FA
:1030100088C0811530E4930718F09F70906A81C0D2
:103020009C013A9521153F4108F47BC078C0EC0122
:10303000C11586E5D807E8F5C11525E5D20748F0A2
:103040008C2F0E94B1168F7190E0982F8827906284
:1030500068C0C11534E5D30728F09C2F8827846FFA
:10306000906A5FC0AE01437055272C2F2695269598
:10307000C115D34578F481E090E002C0880F991F14
:103080004A95E2F740E2249F90011124822B932B72
:103090009C6847C081E090E002C0880F991F4A9564
:1030A000E2F740E2249F90011124822B932B9A682F
:1030B00038C0C1152AE5D207F8F4C11539E5D307A0
:1030C00090F08C2F8F700E94B11694E0D695C79522
:1030D0009A95E1F7CF70D0E0DC2FCC27D0699E0124
:1030E000282BC9011EC0C11548E5D407C0F09C2F8C
:1030F0008827806F906A15C0CE0190568115904246
:1031000070F48D2F8F710E94B116282F2F71CE0170
:1031100099279062922B05C081E090E002C080E088
:1031200090E0DF91CF91089568EE7EEF80E090E02F
:103130000E94A01F60E082E090E00E94821F60E099
:1031400083E090E00E94821F1092930260E084E08E
:1031500090E00E94821F64E082E290E00E94821F61
:1031600060E085E090E00E94821F60E086E090E0F1
:103170000E94821F6FEF87E090E00E94821F40E074
:1031800050E0BA0188E090E00E94941F60E08DE07A
:1031900090E00E94821F40E050E0BA0188E190E098
:1031A0000E94941F60E087E190E00E94821F40E04F
:1031B00050E0BA018CE190E00E94941F60E070E062
:1031C00080E290E00E94A01F40E050E0BA0188E158
:1031D00090E00E94941F1092C8011092C9011092B1
:1031E000CA011092CB0184E08093C8014091C801CC
:1031F0005091C9016091CA017091CB018FE090E0BC
:103200000E94941F40E050E0BA0183E190E00E94E8
:10321000941F089580919202811110929202089554
:103220008095909173018923809373010895909103
:10323000730180919F02982B9093070280919202D4
:103240008823D9F0892B8093070280910A01882373
:1032500031F08091190387FF02C08EE101C086E042
:10326000E9E0F2E090E0815028F021912223D9F3A7
:103270009F5FF9CF91110E940A1940E250E062E786
:1032800072E087E092E00E944421892B21F180E2E4
:10329000E7E0F2E0A2E7B2E001900D928A95E1F753
:1032A000E0911003F09111033097A9F080910A0189
:1032B000882359F08091190387FF07C08091070286
:1032C0008093080286E0809307020280F381E02D5C
:1032D00087E092E0099508952091710280958223FC
:1032E00080937102982F977099F430E0482F082E40
:1032F000000C550B2417350759F090911A0392FFD3
:1033000007C08595859585950E941E1210927102C1
:103310000895CF93C0911A03C2FB992790F998178B
:1033200091F080FBC2F9C0931A036091190384E005
:1033300090E00E94821F6C2F82E290E00E94821F28
:1033400082E00E946C19CF91089580917002909153
:103350002F02891719F08F5F8770FBCF08951F9395
:10336000CF93DF9380912C0282958F7009F05AC021
:1033700080912902882309F455C080917002109130
:103380002F026091270270912802C0912A02D091E9
:103390002B0291E06F3F09F090E0292F811709F48B
:1033A00041C0209721F07F3F21F030E003C031E0A1
:1033B00001C0322F90E030FD32C0FC0133E0EE0F4F
:1033C000FF1F3A95E1F7DF01A05DBD4F11963C91DB
:1033D0001197371324C03C91361321C012963C91AB
:1033E000129731111CC013964D915C9114974C1B90
:1033F0005D0B483C510598F480912C028F708061E0
:1034000080932C02EB5CFD4F80818F708061808304
:1034100087E292E00E948B020E94A51903C00196E8
:103420008770BCCFDF91CF911F910895A0E0B0E0ED
:10343000ECE1FAE10C94C51E8091170190911801FE
:10344000892B91F0809194028F5F80939402811177
:103450000BC00E94100690E0909318018093170112
:10346000892B11F40E9487060CEC11E07801D0E062
:10347000C0E087E0C82ECC0E8C2F0E94F7068C2D62
:103480000E94F7068C2F0E945A078F73F7019081D4
:10349000891721F08083DD24D39401C0D12C8C2D99
:1034A0000E945A078F73F7019781891719F0878354
:1034B00081E001C080E0D82ADD290E944B07CF5F60
:1034C000FFEFEF1AFF0AC730A1F610929902C091E0
:1034D0009802CC2309F4C4C00E94DE1B20919602FE
:1034E00030919702AC01421B530B9A0190939702C3
:1034F000809396024F3F510509F018F4452B19F1BE
:1035000002C02FEF30E01092980210929502E091E5
:10351000C601F091C701AF01425F5F4F90E030E01C
:103520008081882341F0281718F010829C2F03C057
:10353000821B80833C2F3196E417F50789F730937F
:10354000980290939502DD2309F47BC0E091C601B7
:10355000F091C7018091990290919802ADEDB1E090
:10356000AF01425F5F4F6EE1E80128813C91321765
:1035700079F0308131110CC060832C9398819227AF
:10358000282F30E0292B81E0232B09F480E091E003
:10359000319611960F5F1F4FE417F50729F78093B7
:1035A000990290939802C09199022091A101809173
:1035B0009B0290919C022223C9F1892B31F425981A
:1035C0002D9826982E9827982F9880919B0290915D
:1035D0009C029170892B79F480919A02882319F0CA
:1035E00026982E9802C0269A2E9A90919A0281E0EF
:1035F000892780939A0280919B0290919C0281304E
:10360000984750F01092A1018091DA010E94610266
:1036100010929C0210929B0280919B0290919C02BE
:10362000019690939C0280939B021EC0892BE1F02F
:1036300010929C0210929B028091DA010E9461021A
:1036400013C081E090919502992309F4ACCF8111C8
:103650007DCF0E94DE1B909397028093960276CFD7
:10366000D111F7CF80E0EECF8C2FCDB7DEB7E8E0F9
:103670000C94E11E0895809175010895CF93DF9316
:1036800020910A01222339F02091190327FF03C05A
:1036900060E224E002C068E021E02093E9002FEF1F
:1036A0003091E800215035FD06C035ED3A95F1F72F
:1036B00000002111F5CF2091E80025FF1DC0EC018D
:1036C00080910A01811105C040E050E068E070E09F
:1036D00003C070E040E050E0CE010E94F30E809104
:1036E000E8008E778093E80080E2FE01A6E7B1E073
:1036F00001900D928A95E1F7DF91CF910895809323
:103700001B0370931D0360931C038091A4018430FC
:10371000F9F48093E9008FEF9091E800815095FDD6
:1037200006C095ED9A95F1F700008111F5CF8091D3
:10373000E80085FF0DC040E050E063E070E08BE101
:1037400093E00E94F30E8091E8008E778093E8006A
:10375000089578941F920F920FB60F9211248F93B1
:103760009F93AF93BF938091150390911603A091FF
:103770001703B09118030196A11DB11D8093150385
:1037800090931603A0931703B0931803BF91AF91C2
:103790009F918F910F900FBE0F901F9018959C01D5
:1037A0004FB7F8948091150390911603A0911703D9
:1037B000B09118034FBF821B930B08952FB7F89455
:1037C0008091150390911603A0911703B0911803EF
:1037D0002FBF08951F920F920FB60F9211248F934F
:1037E0009F93AF93BF9380911403811113C0809175
:1037F000150390911603A0911703B09118034196F9
:10380000A11DB11D8093150390931603A093170378
:10381000B0931803BF91AF919F918F910F900FBEFE
:103820000F901F90189520910A012223C9F0209132
:10383000190327FF15C0262F2695269526952E318C
:10384000C8F4FC01E20FF11D677081E090E001C057
:10385000880F6A95EAF7809592818923828308957B
:10386000FC0106962281621301C012823196E8178C
:10387000F907C1F708952091120330911303281717
:10388000390771F09093130380931203E0911003B2
:10389000F0911103309721F00084F185E02D099516
:1038A000089520910E0330910F032817390771F006
:1038B00090930F0380930E03E0911003F091110396
:1038C000309721F00680F781E02D09950895E09169
:1038D0001003F0911103309729F00190F081E02D51
:1038E0000995089580E00895BC0140910A038091F4
:1038F0000B03942F981729F1292F30E0F901EE0FCF
:10390000FF1FEE5FFC4F0190F081E02DE617F707F7
:1039100099F487E0869FF001879FF00D1124E75E00
:10392000FE4F81E0848394130CC02F5F3F4F2370C0
:10393000332720930A0308952F5F3F4F922F9370F0
:10394000D9CF08950F931F93CF93DF938091A10256
:10395000882309F453C0C091A0021CE08091A10209
:10396000C81708F047C001E00C0F0093A002D0E098
:103970001C9FF0011D9FF00D1124EE55FD4F90810D
:10398000818123813481232B31F08F3F31F481E019
:103990009F3F19F403C081E001C080E080FD28C092
:1039A0001C9FD0011D9FB00D1124AE55BD4F169622
:1039B0008D919C911797892B31F418968D919C913C
:1039C0001997019651F4208131814281538164819C
:1039D0007581868197810E9450121C9FF0011D9F66
:1039E000F00D1124EE55FD4F1482138210929F02A8
:1039F000C02FB4CF1092A1021092A002DF91CF91FC
:103A00001F910F91089510929E0210929D02809135
:103A10001E01811104C010921D0110921F01089512
:103A200010920D0310920C031092200180910B0351
:103A300080930A030E94031D0E94A21C0895A0E027
:103A4000B0E0E5E2FDE10C94BB1EC0910A03E7E0A3
:103A5000FE2E01E010E0FCE02F2EAEEFEA2E80916A
:103A60000B03C81709F47AC0D0E0FE01EE0FFF1F68
:103A7000EE5FFC4F80819181F89EF001F99EF00D80
:103A80001124E75EFE4F2481211165C06090A102E0
:103A9000A2EAB2E020E030E0712C5F01261508F0C8
:103AA00058C01A964D905C901B97F50180809180CC
:103AB0004FEF5FEF312CC32CD12CF601EE0FFF1F1F
:103AC000E80DF91D659174914616570609F4A60193
:103AD000672B11F03394EFCF4F3FFFEF5F07A9F152
:103AE000B80102C0660F771F4A95E2F7762AA8014F
:103AF000032C02C0440F551F0A94E2F741505109AC
:103B0000672D70E046175707E1F4229EF001239ECF
:103B1000F00D1124EE55FD4FF89ED001F99EB00D29
:103B20001124A75EBE4F12962D913C9113973783B7
:103B30002683E082E1829187808771E015967C93ED
:103B400008C014961C921E9213972F5F3F4F1C962D
:103B5000A5CF0E94741C2196C37081CF0E94A21C25
:103B60000E94031DCDB7DEB7E2E10C94D71ECF93C0
:103B7000DF930E943E1F66E070E00E940920D82F6C
:103B80000E943E1F6EE070E00E940920C82F6D2F3A
:103B9000782F80E00E94F4160497C59718F48D2FB3
:103BA0009C2F02C00E94B71DDF91CF910895109203
:103BB000B9008CE08093B8000895A0E0B0E0E3EE97
:103BC000FDE10C94C21EB82EEB010E94DE1B6C01BD
:103BD000C431D10558F0CF3F8FEFD80759F0CE014F
:103BE00064E170E00E94A71E7B0107C0EE24E3940D
:103BF000F12C03C025E0E22EF12C84E8A82E94EAF3
:103C0000992E1092BC009092BC000E94DE1B8C0189
:103C10008091BC0087FD07C0C8010E94CF1BE81639
:103C2000F906B0F729C08091B900887F883041F04B
:103C30008091B900887F803119F00FEF1FEF1EC00F
:103C4000B092BB00A092BC000E94DE1B8C01809150
:103C5000BC0087FD07C0C8010E94CF1BE816F9060B
:103C6000B0F70AC08091B900887F883111F08034A4
:103C700021F700E010E00EC00EEF1FEFCF3F8FEFF7
:103C8000D80709F4BECFC6010E94CF1BC817D907B9
:103C900008F0B7CFC801CDB7DEB7EBE00C94DE1E5D
:103CA0000F931F93CF93DF93EB018093BB0084E8C6
:103CB0008093BC000E94DE1B8C018091BC0087FDBC
:103CC0000DC0CF3F8FEFD807C1F3C8010E94CF1BB3
:103CD000C817D90790F78EEF9FEF0CC02091B9005D
:103CE000287F81E090E0283211F480E090E0919507
:103CF00081959109DF91CF911F910F9108950F93B5
:103D00001F93CF93DF93EC0184E88093BC000E9463
:103D1000DE1B8C018091BC0087FD0DC0CF3F8FEF73
:103D2000D807C1F3C8010E94CF1BC817D90790F765
:103D30008EEF9FEF03C08091BB0090E0DF91CF91A9
:103D40001F910F91089584E98093BC000895AA1BE8
:103D5000BB1B51E107C0AA1FBB1FA617B70710F076
:103D6000A61BB70B881F991F5A95A9F780959095A8
:103D7000BC01CD0108952F923F924F925F926F92B6
:103D80007F928F929F92AF92BF92CF92DF92EF92EB
:103D9000FF920F931F93CF93DF93CDB7DEB7CA1B6C
:103DA000DB0B0FB6F894DEBF0FBECDBF09942A8897
:103DB000398848885F846E847D848C849B84AA843F
:103DC000B984C884DF80EE80FD800C811B81AA81CC
:103DD000B981CE0FD11D0FB6F894DEBF0FBECDBF97
:103DE000ED0108958F929F92AF92BF92CF92DF9292
:103DF000EF92FF92CF93DF93EC01688179818A8102
:103E00009B81611571058105910521F464E279EDCD
:103E10008BE597E02DE133EF41E050E00E94A61FD3
:103E200049015A019B01AC01A7EAB1E40E94C51FF8
:103E30006B017C01ACEEB4EFA50194010E94D31F8D
:103E4000DC01CB018C0D9D1DAE1DBF1DB7FF03C056
:103E50000197A109B04888839983AA83BB839F7780
:103E6000DF91CF91FF90EF90DF90CF90BF90AF9018
:103E70009F908F9008950E94F21E089580E091E037
:103E80000E94F21E0895A0E0B0E08093000190939C
:103E90000101A0930201B09303010895DC01CB015D
:103EA000FC01F999FECF06C0F2BDE1BDF89A31964A
:103EB00000B40D9241505040B8F70895F999FECFE3
:103EC00092BD81BDF89A992780B50895A6E1B0E02A
:103ED00044E050E00C94501FA8E1B0E042E050E014
:103EE0000C94501FDC01A40FB51F4150504048F006
:103EF000CB01840F951F2E910E94831F415050408B
:103F0000D0F70895262FF999FECF92BD81BDF89A7A
:103F1000019700B4021639F01FBA20BD0FB6F8940D
:103F2000FA9AF99A0FBE08950396272F0E94831FCD
:103F30000E94821F252F0E94831F242F0C94831F11
:103F40000196272F0E94831F0C94821F052E97FB3A
:103F50001EF400940E94BD1F57FD07D00E94D81F79
:103F600007FC03D04EF40C94BD1F5095409530953E
:103F700021953F4F4F4F5F4F0895909580957095D5
:103F800061957F4F8F4F9F4F08950E94FA1FA59F05
:103F9000900DB49F900DA49F800D911D1124089544
:103FA000B7FF0C94C51F0E94C51F821B930B089579
:103FB000A1E21A2EAA1BBB1BFD010DC0AA1FBB1F2D
:103FC000EE1FFF1FA217B307E407F50720F0A21B9F
:103FD000B30BE40BF50B661F771F881F991F1A940C
:103FE00069F760957095809590959B01AC01BD0136
:103FF000CF010895A29FB001B39FC001A39F700D90
:10400000811D1124911DB29F700D811D1124911DE0
:10401000089597FB072E16F4009407D077FD09D07A
:104020000E94A71E07FC05D03EF4909581959F4FF6
:104030000895709561957F4F0895EE0FFF1F0590CD
:10404000F491E02D09940F931F93CF93DF93823067
:10405000910510F482E090E0E0912003F0912103BB
:1040600020E030E0A0E0B0E0309719F140815181CC
:104070000281138148175907C8F08417950769F41E
:10408000109731F012960C93129713961C9327C039
:10409000009320031093210322C02115310519F04C
:1040A0004217530718F49A01BD01EF01DF01F8012F
:1040B000DBCF21153105F9F0281B390B24303105F0
:1040C00080F48A819B816115710521F0FB01938346
:1040D000828304C09093210380932003FE013296D3
:1040E00044C0FE01E20FF31F8193919322503109E6
:1040F000398328833AC020911E0330911F03232B5C
:1041000041F4209106013091070130931F03209361
:104110001E0320910401309105012115310541F460
:104120002DB73EB74091080150910901241B350B72
:10413000E0911E03F0911F03E217F307A0F42E1B7A
:104140003F0B2817390778F0AC014E5F5F4F2417FB
:10415000350748F04E0F5F1F50931F0340931E0317
:104160008193919302C0E0E0F0E0CF01DF91CF9125
:104170001F910F910895CF93DF93009709F481C0A9
:10418000FC01329713821282A0912003B091210387
:10419000109781F420813181820F931F20911E039B
:1041A00030911F032817390751F5F0931F03E0934F
:1041B0001E0367C0ED0120E030E0CE17DF0740F4BA
:1041C0004A815B819E0141155105F1F0EA01F5CF6D
:1041D000D383C28340815181840F951FC817D907AB
:1041E00059F488819981840F951F02969183808369
:1041F0008A819B81938382832115310529F4F09371
:104200002103E09320033DC0E901FB83EA83499148
:104210005991C40FD51FEC17FD0761F4808191817E
:10422000840F951F0296E901998388838281938187
:104230009B838A83E0E0F0E012968D919C91139726
:10424000009719F0FD01DC01F7CF8D919C9111973A
:104250009D012E5F3F4F820F931F20911E033091CF
:104260001F032817390769F4309729F410922103A6
:104270001092200302C013821282B0931F03A093F6
:104280001E03DF91CF910895FB01DC0104C08D91E5
:104290000190801921F441505040C8F7881B990BB8
:0642A0000895F894FFCF21
:1042A60001000000000022032000013B1B3E1B3AD8
:1042B6001B590A540A530A2000C6032900000000AD
:1042C6000140226D83016101F400D501EE010E0269
:1042D60052674F52652F7764794B7100818283E272
:1042E60000E900EA00B500B600B700CD008301CCB6
:1042F600008A01920194012102230224022502264A
:0E4306000227022A02B300B4006F007000000C
:00000001FF
