:100000000C94F6020C9413030C9413030C94130336
:100010000C9413030C9413030C9413030C94130308
:100020000C9413030C9413030C9413120C94551199
:100030000C949A1A0C9413030C9413030C9413034A
:100040000C9413030C9413030C9413030C941303D8
:100050000C9413030C94591A0C9413030C9413036B
:100060000C9413030C9413030C9413030C941303B8
:100070000C9413030C9413030C9413030C941303A8
:100080000C9413030C9413030C9413030C94130398
:100090000C9413030C9413030C9413030C94130388
:1000A0000C9413030C9413030C941303B505B505BA
:1000B000E805E80553067007700770077106E50646
:1000C000F606F6066D0F940F3D11940F3D11E00FEB
:1000D00003103D11F8100811401C451C4F1C431C17
:1000E000481C4D1C4B1C791D7C1D7F1D821D851DD0
:1000F000881D8B1D290035002B00E1000100000048
:100100001E00140004001D00E00001001F001A0082
:1001100016001B00E200E3002000080007000600B4
:1001200001002C00210015000900190001540100F4
:10013000220017000A0005000000500027002F00D1
:100140000000010000004F002300300000003100DB
:100150000000510024001C000B00110000005200A0
:10016000250018000D0010000154010026000C00AD
:100170000E00360001002A00270012000F00370091
:10018000E60028002D00130033003800E4000100D1
:100190002E002F003400E5000100000001000100E6
:1001A00001000100010000003A000100010001000F
:1001B0000100005C3B0001000100010001000100A2
:1001C0003C00010001000100010001003D000100B0
:1001D000010001000100B9003E0001000100010022
:1001E000000001000100010000000100000001000A
:1001F0000100010000000100000001003F000100BB
:1002000001000100000001004000010001000100A8
:100210000100010041000100010001000100010096
:100220004200010001000100010001004300010043
:10023000010001000100010044004500010001002F
:100240000100000005010980A101850319012AB7F9
:1002500000150126B700950175108100C0050C0935
:1002600001A101850419012AA002150126A0029509
:100270000175108100C005010906A1018506050769
:1002800019E029E715002501950875018102050788
:10029000190029EF1500250195F075018102050867
:1002A00019012905950575019102950175039101C3
:1002B000C00660FF0961A1010962150026FF0095D3
:1002C00020750881020963150026FF009520750836
:1002D0009102C005010906A101050719E029E715EA
:1002E00000250195087501810295017508810105B8
:1002F00007190029FF150026FF00950675088100E3
:1003000005081901290595057501910295017503E7
:100310009101C009025B00030100A0FA090400007A
:10032000010301010009211101000122400007051C
:1003300081030800010904010002030000000921F3
:100340001101000122220007058203200001070598
:100350000303200001090402000103000000092139
:1003600011010001226D0007058403200001120124
:1003700000020000000897327549010001020001E7
:1003800022034500720067006F0044006F00780090
:10039000200045005A0020005300680069006E00EC
:1003A0006500000028035A0053004100200054005B
:1003B0006500630068006E006F006C006F006700EE
:1003C000790020004C00610062007300000004030B
:1003D00009041E0F0500047F3F1F643214643214A9
:1003E000783C1E1E140A052223252628292A2C2D96
:1003F0002F3032333536383A3B3D3E404243454755
:10040000494A4C4E5051535557595A5C5E6062648C
:100410006668696B6D6F71737577797B7D7F81839A
:100420008587898A8C8E90929496989A9C9E9FA19B
:10043000A3A5A7A8AAACAEAFB1B3B4B6B8B9BBBCBC
:10044000BEBFC1C2C3C5C6C7C9CACBCCCDCED0D131
:10045000D2D2D3D4D5D6D7D7D8D9D9DADADBDBDB29
:10046000DCDCDCDCDCDDDDDDDDDCDCDCDCDCDBDBCA
:10047000DBDADAD9D9D8D7D7D6D5D4D3D2D2D1D01E
:10048000CECDCCCBCAC9C7C6C5C3C2C1BFBEBCBB1B
:10049000B9B8B6B4B3B1AFAEACAAA8A7A5A3A19F93
:1004A0009E9C9A98969492908E8C8A898785838157
:1004B0007F7D7B79777573716F6D6B696866646238
:1004C000605E5C5A5957555351504E4C4A49474506
:1004D0004342403E3D3B3A3836353332302F2D2CA7
:1004E0002A292826252322000101010101010101F9
:1004F00001020202020202020202030303030303D7
:1005000003030404040404040405050505050606A4
:100510000606060707070707080808080909090962
:100520000A0A0A0B0B0B0C0C0C0D0D0D0E0E0E0F08
:100530000F0F101011111112121313141415151698
:10054000161717181819191A1A1B1B1C1D1D1E1E09
:100550001F2020212222232424252626272829295A
:100560002A2B2C2D2D2E2F30313232333435363785
:1005700038393A3B3C3D3E3F404142434445464783
:1005800048494A4C4D4E4F50515354555658595A5C
:100590005B5D5E5F616264656668696B6C6D6F7000
:1005A00072737577787A7B7D7E8082838587888A6F
:1005B0008C8E8F91939596989A9C9EA0A2A3A5A7A6
:1005C000A9ABADAFB1B3B5B7BABCBEC0C2C4C6C9A2
:1005D000CBCDCFD1D4D6D8DBDDDFE2E4E7E9EBEE5B
:1005E000F0F3F5F8FAFDFFFFAA7F554011241FBE76
:1005F000CFEFDAE0DEBFCDBF11E0A0E0B1E0E0E098
:10060000FDE402C005900D92A03AB107D9F723E0AE
:10061000A0EAB1E001C01D92AC36B207E1F70E943A
:1006200073130C947E260C940000A5E2B0E0EBE17D
:10063000F3E00C94B923FC01808191812381348102
:10064000232B31F09F3F31F491E08F3F19F403C029
:1006500091E001C090E090FD81C47F0185E0DE0162
:10066000919601900D928A95E1F7D70112962C91FF
:1006700089A19AA1222349F00E94B920182F682F3E
:1006800089A19AA10E94292103C00E94F520182F58
:1006900069A17AA1812F0E94F7078C0190915702DE
:1006A000F7018281992309F44DC0811147C4E0917B
:1006B000A201E330A0F481E08E0F8093A201F0E06C
:1006C000EE0FFF1FED56FD4FD7018D919C91918349
:1006D000808382E08983CE0101960E944713BFEF99
:1006E000E3EDF0E3B150E040F040E1F700C000007E
:1006F0008091A201833009F021C41092A201E9E99E
:10070000F2E0A3E9B2E08FE992E0318111962C91F9
:10071000119732132EC030812C9132132AC0329699
:1007200012968E179F0789F784E0898381E0809372
:1007300058028EEF8A8310925702CE0101960E94D2
:100740004713FCC3909158029923C1F0882311F0FC
:1007500086E001C087E08983D7018C918A83119656
:100760008C918B838EEF8C83CE0101960E94471370
:1007700005C083E0898310925802DBCFD70112961F
:100780008C91033BBDE51B07D1F5882309F43FC0DD
:1007900090915D0281E0890F8770987F853020F409
:1007A000892B80935D0202C090935D0280915D026F
:1007B0008770BFEF8B9FC001112495958795959504
:1007C00087959927909389008093880090938B0058
:1007D00080938A0090938D0080938C0040915D02FD
:1007E00050915E0260915F02709160028FE090E034
:1007F0000E948B24809170020E942A1C08C0053B35
:10080000EDE51E0721F4882309F498C31BC0F70106
:1008100082818111EDC08091290282720D3CFCE53C
:100820001F0709F4C9C0C8F0023DACE51A0709F476
:10083000D0C008F064C00F3CECE51E0709F4C3C04B
:1008400008F050C061E081E005C081608093290319
:1008500061E086950E945C2071C3073C9CE5190706
:1008600009F496C0D8F4043CBCE51B0709F486C023
:1008700030F4033CFCE51F0709F461C027C1053CC7
:100880002CE5120709F47FC0063C9CE5190709F026
:100890001DC142E350E26CE370E292C00A3CACE559
:1008A0001A0709F47FC078F4083CECE51E0709F448
:1008B00074C0093CFCE51F0709F008C145E250E29D
:1008C00068E170E27DC00B3C2CE5120709F46FC0B3
:1008D0000C3C9CE5190709F0F9C04CEA5EE16EEBAF
:1008E0007EE16EC0003D2CE5120709F46FC0013DAA
:1008F0008CE5180709F0EAC06EE089E076C0053D96
:100900009CE5190709F46BC068F4033DBCE51B07BF
:1009100009F462C0043DECE51E0709F0D7C061E0B0
:1009200088E198CF063DFCE51F0709F45BC00F3551
:100930002DE5120709F0CAC06AE285E256C080912F
:10094000290380FF82CF8E7F809329036091290342
:1009500070912A0380912B0390912C030E94991E81
:10096000109246038FEF90E7A2E081509040A040A4
:10097000E1F700C000000E94E21DE0C247E950E23A
:1009800061EA70E21DC041EA50E267E970E218C016
:100990004CE350E262E370E213C048E150E265E2EA
:1009A00070E20EC04EEF5FE16BE070E209C04BE019
:1009B00050E26EEF7FE104C04EEB5EE16CEA7EE157
:1009C0000E94581BBBC265E082E00FC068E086E071
:1009D0000CC064E18FE009C067E185E106C062E216
:1009E00089E103C061E083E235CF0E94441BA6C2C7
:1009F0000C35BDE51B0709F464C060F40115FCE586
:100A00001F07A9F00F3D2CE5120709F05FC00E94F7
:100A100097094CC00E358DE5180709F44AC008F453
:100A200052C0093AADE51A0709F440C04FC0109210
:100A300029020E94DD21BFEFE4E3FCE0B150E04079
:100A4000F040E1F700C00000F89481E08093E000FE
:100A500080E28093D8001092C9008FE19EE4019754
:100A6000F1F700C000001DBA109268001CBC10BE57
:100A70001FBA10927A0010926E0010926F001092BE
:100A80007100109272001092C9001092BC0014B84C
:100A900017B81AB81DB810BA1092BC0015B818B81B
:100AA0001BB81EB811BA0C94003F48C20E94121C19
:100AB00045C280913A0382FB882780F991E089271B
:100AC00003C081E001C080E00E948C0AD701129629
:100AD0008C9112970D911C91882349F0C8010E94B6
:100AE000B920D82E682FC8010E94292104C0C8014E
:100AF0000E94F520D82EB8018D2D0E94F7070E9484
:100B00001008B82E192F982EF7010281A580A29403
:100B10009FE0A9228091FB018770B9F00023A9F022
:100B2000812F807F803421F080E28B0D883068F047
:100B300080913A0382FF09C082E00E946F0A80918F
:100B4000FB018770DD24D3948111D12CC12EC29476
:100B50008FE0C8228C2D90E08C30910508F0C0C148
:100B6000FC01EA5AFF4F0C942E25812F807F1F70C5
:100B7000882311F01295107F0023B9F0112309F496
:100B80009DC180E28B0D883010F0911006C08091DD
:100B90002902182B1093290205C080911C02182BE2
:100BA00010931C020E941A0A89C18B2D0E940222F6
:100BB000112309F495C180E28B0D883080F19920D2
:100BC00071F1109580911C02182310931C022AC009
:100BD000812F807F1F70803211F01295107F8B2D36
:100BE000992021F0F1E09F16D9F147C080913A0396
:100BF00082FD1BC0002369F0112339F08091290286
:100C0000182B109329020E941A0A80E00E942E22BB
:100C100067C180E00E940222112309F461C1812F83
:100C20000E94130A0E941A0A5BC1002381F080917E
:100C30001D02AA2051F021E0A21207C0182B18179C
:100C400009F44EC110931D024BC1812B10C0AA2084
:100C500021F081E0A81609F443C10E940D0A1FC0CB
:100C6000002341F091E09A1508F43AC1812F0E94C7
:100C7000F82136C1A11034C112C0002319F0AA20F6
:100C8000A9F31CC1AA2059F0893309F026C1AFEF9E
:100C9000B7EEE3E0A150B040E040E1F71CC1812F86
:100CA0000E94F1211DC1812F86958695837019F0D0
:100CB000813061F015C1002321F08B2D912F9370AD
:100CC00002C080E090E00E94011B10C1002321F0CF
:100CD0008B2D912F937002C080E090E00E94EB1A60
:100CE00005C1812F8370A9F50111FEC04B2D4295DE
:100CF00046954770440F440F8B2D8F7090E09C01F8
:100D0000042E01C0220F0A94EAF7B4FE08C08FE057
:100D100090E001C0880F4A95EAF7809501C080E015
:100D2000169516951370123069F088F490911E0292
:100D3000113019F0822B892302C0922B892B0E943B
:100D4000A121D2C0822B90911E028927F8CF822B3D
:100D5000F6CF002319F0812F817001C0869588237A
:100D600009F4C2C04B2D429546954770440F440F7D
:100D70008B2D8F7090E09C01042E01C0220F0A94ED
:100D8000EAF7B4FE08C08FE090E001C0880F4A95F2
:100D9000EAF7809501C080E0169516951370123021
:100DA00059F078F490917002113019F0822B892358
:100DB00009C0922B892B06C0822B90917002892743
:100DC00001C0822B0E945E218FC01F70002339F06A
:100DD000812F0E9495218B2D0E94F82185C08B2D9B
:100DE0000E94F121812F0E9488217EC08B2DF2EF7D
:100DF0009F1669F1F91538F020EF921659F091EF2E
:100E0000991601F157C0A3EF9A1641F1B4EF9B1662
:100E1000A9F050C0002369F0A11062C01F7181E0E9
:100E200090E001C0880F1A95EAF790917002892727
:100E30001FC0E1E0EA1508F453C0F0CF80913A03F7
:100E400082FD19C0002329F0812F8F7126C0002355
:100E5000D9F3812F8F710E94882142C0002339F07D
:100E60001F7181E001C0880F1A95EAF701C080E088
:100E70000E945E2135C0002399F01F71812F0E94CE
:100E8000952180913A0382FF07C0F8E01F9FC001BF
:100E9000112483608093FB01812F0E94952120C043
:100EA00081E00E946F0A21E02A15D0F482E00E94BE
:100EB0006F0A16C0002321F0AA2031F28B2DA6CE96
:100EC000AA2039F2893349F48FEF97EEA3E08150DD
:100ED0009040A040E1F700C000008B2D0E9402224C
:100EE00088EF8C0D843010F40E94171BDD20A9F0D0
:100EF0008091FB0180FD11C0F701128285958595D7
:100F000085950E949521C7010E9415038091FB01E0
:100F10008595859585950E94882185E0F701DE01FC
:100F2000119601900D928A95E1F709811A81C80105
:100F30000E94F520B8010E94F70710C08091FB01C4
:100F4000877061F0D70112968C91882339F08091D7
:100F50003A0382FF03C082E00E946F0AA596EBE08D
:100F60000C94D52380E008959091390392FF0DC031
:100F7000282F2871283019F4877F846006C0282F15
:100F80002471243011F48B7F886093FF0DC0282FCB
:100F90002871283119F4877E846106C0282F2471B6
:100FA000243111F48B7E886120913A0320FF0DC01B
:100FB000382F3871383019F4877F816006C0382F98
:100FC0003171313011F48E7F886021FF0DC0282FE0
:100FD0002871283119F4877E816106C0282F21717C
:100FE000213111F48E7E886194FD877E08957E30D4
:100FF000A0F4663090F494E5899FF001112486E016
:10100000789FE00DF11D1124E60FF11DEE0FFF1F7B
:10101000EC50FF4F85919491089580E090E0089501
:10102000CF93DF938238910569F1B0F48133910554
:1010300009F477C048F48932910509F469C08A320D
:10104000910509F473C092C08533910509F45BC022
:1010500089339105B9F08AC0833E910591F138F446
:10106000803E9105D1F0823E910531F17FC0863EF0
:101070009105D9F1873E9105E9F1843E910509F08A
:1010800075C028C02091390320FD5BC021FD59C0E7
:1010900020913A0323FD61C069C08091390380FD2E
:1010A0004AC080913A0380FF4CC08091390384FD8F
:1010B00039C183EE90E038C18091390382FF3EC090
:1010C000F4CF8091390382FD39C080913A0380FDCD
:1010D00038C0EBCF80913A0381FF39C0809139034A
:1010E00084FD20C187EE90E01FC18091390383FF0A
:1010F0002BC0F4CF8091390383FD26C080913A0341
:1011000081FD25C0EBCF8091390385FD26C022C02B
:101110008091390385FD1EC080913A0383FF1DC075
:101120000AC08091390386FD1BC01DC08091390320
:1011300086FD19C015C089E390E0F6C082EE90E00C
:10114000F3C080EE90E0F0C086EE90E0EDC084EE5B
:1011500090E0EAC085E390E0E7C089E290E0E4C077
:101160008AE290E0E1C081E390E0DEC0811532E5E3
:10117000930708F05FC0811541E5940728F0982F88
:101180008827816F906AD0C0883E910568F5803EBF
:10119000910508F0C9C0883A9105B8F4853A9105DF
:1011A00048F0855AE82FF0E0E85DFE4F808190E03E
:1011B0009064BAC08130910509F4B1C008F4B2C09E
:1011C0008430910508F4AEC0AFC08F3B910508F0A4
:1011D000A9C0885AE82FF0E0EE0FFF1FE55DFE4F33
:1011E000808191819464A0C0811520E59207A0F0D0
:1011F000AC014370552721E030E002C0220F331FBD
:101200004A95E2F78695869540E2849FC0011124B5
:10121000822B932B9D6888C0811530E4930718F0CA
:101220009F70906A81C09C013A9521153F4108F456
:101230007BC078C0EC01C11586E5D807E8F5C1157B
:1012400025E5D20748F08C2F0E94B4078F7190E0FB
:10125000982F8827906268C0C11534E5D30728F01D
:101260009C2F8827846F906A5FC0AE01437055271A
:101270002C2F26952695C115D34578F481E090E072
:1012800002C0880F991F4A95E2F740E2249F90011F
:101290001124822B932B9C6847C081E090E002C010
:1012A000880F991F4A95E2F740E2249F900111248C
:1012B000822B932B9A6838C0C1152AE5D207F8F41F
:1012C000C11539E5D30790F08C2F8F700E94B407B9
:1012D00094E0D695C7959A95E1F7CF70D0E0DC2FD2
:1012E000CC27D0699E01282BC9011EC0C11548E535
:1012F000D407C0F09C2F8827806F906A15C0CE015C
:1013000090568115904270F48D2F8F710E94B40712
:10131000282F2F71CE0199279062922B05C081E072
:1013200090E002C080E090E0DF91CF91089568EEF8
:101330007EEF80E090E00E94972460E082E090E001
:101340000E94792460E083E090E00E94792410926A
:101350001E0260E084E090E00E94792464E082E272
:1013600090E00E94792460E085E090E00E9479247A
:1013700060E086E090E00E9479246FEF87E090E0E3
:101380000E94792440E050E0BA0188E090E00E9499
:101390008B2460E08DE090E00E94792440E050E0F2
:1013A000BA0188E190E00E948B2460E087E190E040
:1013B0000E94792440E050E0BA018CE190E00E9464
:1013C0008B2460E070E080E290E00E94972440E08F
:1013D00050E0BA0188E190E00E948B2410925D02F7
:1013E00010925E0210925F021092600284E080937D
:1013F0005D0240915D0250915E0260915F027091CA
:1014000060028FE090E00E948B2440E050E0BA013F
:1014100083E190E00E948B24089580911D02811148
:1014200010921D020895809590912902892380933E
:10143000290208959091290280911C02982B909383
:10144000A30180911D028823D9F0892B8093A301E9
:1014500080910A01882331F08091390387FF02C00F
:101460008EE101C086E0E5EAF1E090E0815028F0ED
:1014700021912223D9F39F5FF9CF91110E940D0A88
:1014800040E250E06CEF71E083EA91E00E94712647
:10149000892B21F180E2E3EAF1E0ACEFB1E00190C9
:1014A0000D928A95E1F7E0913003F0913103309786
:1014B000A9F080910A01882359F08091390387FFB0
:1014C00007C08091A3018093A40186E08093A301CB
:1014D0000280F381E02D83EA91E00995089520913F
:1014E000FB01809582238093FB01982F977099F4DC
:1014F00030E0482F082E000C550B2417350759F003
:1015000090913A0392FF07C08595859585950E9435
:1015100088211092FB010895CF93C0913A03C2FB3A
:10152000992790F9981791F080FBC2F9C0933A037C
:101530006091390384E090E00E9479246C2F82E26C
:1015400090E00E94792482E00E946F0ACF91089572
:101550008091FA019091C901891719F08F5F877006
:10156000FBCF08950F931F93CF93DF938091C80112
:1015700082958F7009F05AC08091C501882309F4C3
:1015800055C08091FA011091C9016091C301709119
:10159000C401C091C601D091C70191E06F3F09F02D
:1015A00090E0292F06E0811709F440C0209721F030
:1015B0007F3F21F030E003C031E001C0322F90E0E6
:1015C00030FD31C0089FF001099FF00D1124DF01AB
:1015D000A653BE4F11963C911197371324C03C91EE
:1015E000361321C012963C91129731111CC01396EC
:1015F0004D915C9114974C1B5D0B483C510598F440
:101600008091C8018F7080618093C801E153FE4FC3
:1016100080818F708061808383EC91E00E9415034C
:101620000E94A80A03C001968770BDCFDF91CF91B9
:101630001F910F910895A1E1B0E0E1E2FBE00C946D
:10164000B9238C0185E0F801DE011D9601900D9211
:101650008A95E1F7F801E2809091C3016091C4019D
:101660004091C6015091C7014115510531F06F3FBE
:1016700031F481E09F3F19F403C081E001C080E0B4
:10168000F82FF1709F2E80FD1BC1F8013081218160
:10169000C380D48083ECA82E81E0B82EF090C501E1
:1016A000F601E41BF50BFF2009F4C7C08091C801C7
:1016B000E83CF10508F092C0482F407F09F051C086
:1016C000621311C093130FC0FE2CE1100CC08F7079
:1016D00080618093C801C5010E9415038091C801F3
:1016E000F80185832AC1C114D10431F02F3F31F4B0
:1016F00081E03F3F19F403C081E001C080E080FD3C
:1017000003C081E08E2502C080E090E0F82FF170E8
:10171000FF2E80FF1CC08091FA014091C90156E064
:10172000841709F4E8C090E0589FF001599FF00D2C
:101730001124E653FE4F6181261306C060816313B6
:1017400003C06281E61203C001968770E9CFFE2CC8
:10175000EE2009F4F2C08091C80181608093C80135
:1017600049C0621306C0931304C0E11002C0F8011F
:1017700086C0C8010E94A621882351F1EE2041F1C4
:101780002091C801822F82958F7090E0029774F0AB
:101790008091C3019091C40198878F831986DB865D
:1017A000CA862C87CE0107960E94150386E0F801B1
:1017B000A3ECB1E001900D928A95E1F70E94B20A84
:1017C0000AC06217C9F0C8010E94A62181111EC07B
:1017D000C8010E941503FF24F394AFC0482F407F37
:1017E00081F783EC91E00E94150386E0F5011192E8
:1017F0008A95E9F7F12CA1C09313E5CFE110E3CF6F
:10180000F8018583C8010E94150354C0EE2001F33E
:101810002091C801822F82958F7090E0029734F258
:101820008091C3019091C4019A8389831B82DD82D8
:10183000CC822E83CE010196B7CFE83CF105D0F5DE
:10184000FE2CEE2029F2621327C0931325C02091AD
:10185000C80120FD18C0822F82958F70482F50E05C
:101860004115510581F0F80125834F30510541F0B4
:101870008F5F982F9295907F822F8F70892B858311
:10188000C8010E94150386E0F801A3ECB1E00190C5
:101890000D928A95E1F751C0C8010E94A6218111DD
:1018A00085CF8091C80181608093C801C8010E94E2
:1018B000150343C086E0F50111928A95E9F73DC012
:1018C000EE2009F485CFC8010E94A621F82E8823B6
:1018D00009F47ECF86E0F801A3ECB1E001900D920F
:1018E0008A95E1F78091C3019091C4010E94E8209C
:1018F0000E94B20A22C03D872E878D859E850E9458
:10190000E820292F22952F70223028F49F7039F07B
:10191000811105C00BC0243028F49F7049F4805E0B
:10192000883020F0C8010E9415039F2CF92C05C0B7
:10193000F8019581907F99F7F9CF8F2D6196EBE0B3
:101940000C94D523A0E0B0E0E8EAFCE00C94BC23C2
:1019500080911B0190911C01892BB9F080911F028D
:101960008F5F80931F02811110C00E94541C90E071
:1019700090931C0180931B01892B39F40E94CB1C8E
:1019800081E080931A010E94E21D01E612E07801D5
:10199000D0E0C0E087E0C82ECC0E8C2F0E943B1D0B
:1019A0008C2D0E943B1D8C2F0E949E1D8F73F70172
:1019B0009081891721F08083DD24D39401C0D12C3C
:1019C0008C2D0E949E1D8F73F7019781891719F046
:1019D000878381E001C080E0D82ADD290E948F1D25
:1019E000CF5FFFEFEF1AFF0AC730A1F61092240273
:1019F000C0912302CC2309F4C4C00E948E1A209106
:101A0000210230912202AC01421B530B9A019093A8
:101A10002202809321024F3F510509F018F4452B13
:101A200019F102C02FEF30E0109223021092200231
:101A3000E0915B02F0915C02AF01425F5F4F90E08A
:101A400030E08081882341F0281718F010829C2F05
:101A500003C0821B80833C2F3196E417F50789F77A
:101A60003093230290932002DD2309F47BC0E091A0
:101A70005B02F0915C028091240290912302A5E721
:101A8000B2E0AF01425F5F4F6EE1E80128813C9117
:101A9000321779F0308131110CC060832C9398811A
:101AA0009227282F30E0292B81E0232B09F480E0B6
:101AB00091E0319611960F5F1F4FE417F50729F754
:101AC0008093240290932302C09124022091570214
:101AD00080912602909127022223C9F1892B31F4AB
:101AE00025982D9826982E9827982F988091260231
:101AF000909127029170892B79F480912502882397
:101B000019F026982E9802C0269A2E9A90912502B6
:101B100081E08927809325028091260290912702F7
:101B20008130984750F010925702809170020E94C5
:101B30002A1C109227021092260280912602909170
:101B40002702019690932702809326021EC0892BBC
:101B5000E1F01092270210922602809170020E94FA
:101B60002A1C13C081E090912002992309F4ACCF84
:101B700081117DCF0E948E1A9093220280932102C0
:101B800076CFD111F7CF80E0EECF8C2FCDB7DEB777
:101B9000E8E00C94D82380914F0287FF11C0809118
:101BA000E80082FD05C080915A028111F8CF11C072
:101BB0008091E8008B770BC080915A02882349F00E
:101BC0008091E80080FFF8CF8091E8008E778093C5
:101BD000E8000895982F973068F59093E9009817DA
:101BE00039F07091EC002091ED005091F00003C0AD
:101BF000242F762F50E021FD02C09F5FECCF309163
:101C0000EB003E7F3093EB003091ED003D7F309351
:101C1000ED003091EB0031603093EB007093EC00FD
:101C20002093ED005093F0002091EE0027FDE5CFCA
:101C300080E008958F708093E90081E008952091FD
:101C40005502309156022617370748F06115710585
:101C500039F42091E8002E772093E80001C0B90103
:101C6000FC0120E06115710579F180915A02882309
:101C7000F1F18530F1F18091E80083FD3CC0809165
:101C8000E80082FD2EC08091E80080FFEBCF20911C
:101C9000F3008091F20090E0922B6115710551F0F4
:101CA0008830910538F421912093F1006150710939
:101CB0000196F3CF21E0089709F020E08091E80039
:101CC0008E778093E800CECF2111CFCF0AC08091CC
:101CD0005A02882361F0853061F08091E80083FD2D
:101CE0000AC08091E80082FFF2CF80E0089582E090
:101CF000089583E0089581E008950895BC0184E08B
:101D00000E942F1A0895BC0183E00E942F1A0895A3
:101D1000AAE2B0E0EEE8FEE00C94C123EFE4F2E0CA
:101D200087E592E02091F10021938E179F07D1F76C
:101D300080915002833009F463C030F4813071F037
:101D4000823009F49FC0B6C08A3009F48BC08B3052
:101D500009F46EC0893009F0ADC020C080914F02F7
:101D6000813A09F0A7C08091E800877F8093E8005E
:101D70008091530290915402892B21F460E28CE20D
:101D800092E003C060E080E090E070E00E941F0EEF
:101D90008091E8008B778093E8008CC080914F029F
:101DA000813209F087C080915302909154020097CC
:101DB00019F0029709F07EC08091E800877F809338
:101DC000E8008091E80082FD05C080915A028111EF
:101DD000F8CF70C02091F3008091F20090E0922B38
:101DE000029731F48091F100813011F0863021F4B6
:101DF0008091F10080932B028091E8008B7756C090
:101E000080914F02813A09F055C080915302909120
:101E10005402892B09F04EC08091E800877F80939F
:101E2000E8008091E80080FFFCCF80910A0139C072
:101E300080914F028132F1F58091530290915402CA
:101E4000892BC1F58091E800877F8093E8000E948C
:101E5000CB0D8091510280930A01109229020E94B9
:101E6000DD2128C080914F02813221F58091E80068
:101E7000877F8093E8000E94CB0D8091520280936F
:101E80002A0218C080914F02813AA1F48091E800A3
:101E9000877F8093E8008091E80080FFFCCF8091ED
:101EA0002A028093F1008091E8008E778093E80009
:101EB0000E94CB0D8091E80083FFDFC180914F022B
:101EC00090915002492F50E04A30510508F0D5C199
:101ED000FA01EE59FF4F0C942E25803821F08238FC
:101EE00009F0CBC108C080914C0290914D0299231A
:101EF00089F082600FC0809153028F70873008F0A4
:101F0000BCC18093E9008091EB0085FB882780F9B4
:101F10001092E9009091E800977F9093E8008093F9
:101F2000F1001092F10070C1282F2D7F09F0A5C19A
:101F3000882319F0823061F0A0C180915102813074
:101F400009F09BC1933009F080E080934D022EC0D0
:101F50008091510281112AC0809153028F702FEF1E
:101F6000280F263008F089C18093E9002091EB000A
:101F700020FF1CC0933021F48091EB00806214C0DC
:101F80009091EB0090619093EB0021E030E0A9018B
:101F900002C0440F551F8A95E2F74093EA00109261
:101FA000EA008091EB0088608093EB001092E900DA
:101FB0008091E800877F8093E8000E94CB0D5DC18F
:101FC00081115BC1109151021F778091E3008078ED
:101FD000812B8093E3008091E800877F8093E80065
:101FE0000E94CB0D8091E80080FFFCCF8091E30040
:101FF00080688093E300111102C082E001C083E099
:1020000080935A023AC18058823008F036C120913C
:102010005102309152022C3D53E0350779F583E0AF
:102020008A838AE289834FB7F894DE01139620E011
:102030003EE051E2E32FF0E050935700E49120FF9F
:1020400003C0E295EF703F5FEF708E2F90E0EA30B3
:1020500010F0C79601C0C0968D939D932F5F2431D9
:1020600049F74FBF8091E800877F8093E8006AE2DC
:1020700070E0CE0101960E941F0EB4C08091530201
:1020800090915402432F552743305105A9F068F42D
:102090004130510509F400C14230510509F0EDC04D
:1020A0008BE590E0E3E1F3E04BC04132510529F1CB
:1020B0004232510589F1E1C0C9019927813091056A
:1020C000A1F058F0029709F0D8C0E0E8F3E0E491FD
:1020D0008E2F90E0E0E8F3E030C0EEECF3E0E49126
:1020E0008E2F90E0EEECF3E028C0E4EAF3E0E49118
:1020F0008E2F90E0E4EAF3E020C08330910508F0F1
:10210000BCC0880F991FFC01EE59FE4F0190F08171
:10211000E02D89E090E014C08330910508F0ADC057
:10212000FC01EE0FFF1FE45AFE4F0190F081E02DFD
:10213000DC01A75ABE4F8C9190E0009709F49DC036
:102140002091E800277F2093E800209155023091EC
:1021500056022817390708F4C90140E0009789F1B1
:1021600020915A02222309F43DC02530D9F1209153
:10217000E80023FD37C02091E80022FD2FC0209108
:10218000E80020FFEBCF4091F3002091F20030E017
:10219000342B009759F02830310540F44491409396
:1021A000F100319601972F5F3F4FF3CF41E0283088
:1021B000310509F040E02091E8002E772093E800F7
:1021C000CDCF4111CDCF0AC080915A02882351F062
:1021D000853041F08091E80083FD04C08091E800E3
:1021E00082FFF2CF8091E8008B778093E80045C0B2
:1021F000803809F042C08091E800877F8093E80032
:1022000080914E028093F1008091E8008E77D3CECA
:10221000811133C080915102909152029927029707
:1022200064F58091E800877F8093E8001091510267
:1022300010934E020E94CB0D111106C08091E30055
:1022400087FD02C081E001C084E080935A0242E031
:1022500061EC81E00E94EA0D42E261EC84E00E94C0
:10226000EA0D42E261EC82E00E94EA0D42E260EC9B
:1022700083E00E94EA0D80915A028091E80083FF7A
:1022800010C08091E800877F8093E8008091EB0088
:1022900080628093EB0005C082E190E0EEE6F3E01F
:1022A0004FCFAA96E3E00C94DD231F920F920FB656
:1022B0000F9211242F933F934F935F936F937F93CC
:1022C0008F939F93AF93BF93CF93DF93EF93FF933E
:1022D000C091E900CF708091EC00D82FD17080FDC3
:1022E000D0E81092E9008091F000877F8093F000A1
:1022F00078940E94880E1092E9008091F000886026
:102300008093F000CD2BCF70C093E900FF91EF9147
:10231000DF91CF91BF91AF919F918F917F916F91FD
:102320005F914F913F912F910F900FBE0F901F9093
:102330001895E8EDF0E080818E7F80831092E200B6
:102340001092DA001092E100A0EEB0E08C91816072
:102350008C9380818F77808319BCA7EDB0E08C913E
:102360008E7F8C9380818F7E8083109228020895C7
:10237000A0E0B0E0EEEBF1E10C94BC23C8EDD0E0BE
:1023800088818F7E8883E7EDF0E0808181608083A3
:1023900084E082BF81E08093280288818E7F8883D9
:1023A00002EE10E0F80110821092DA0081EEC82EE1
:1023B000D12CF601108288818F778883888180688C
:1023C000888388818F7D888319BC10925A0210926D
:1023D0004E0210924D0210924C0290EEE92EF12C1A
:1023E000F70180818B7F808388818160888342E0D0
:1023F00060E080E00E94EA0DF60180818E7F80839C
:10240000F801808181608083808188608083F7010A
:1024100080818E7F8083888180618883CDB7DEB79D
:10242000E8E00C94D8231F920F920FB60F9211245C
:102430002F933F934F935F936F937F938F939F93CC
:10244000AF93BF93EF93FF938091E10082FF09C0A8
:102450008091E20082FF05C08091E1008B7F809334
:10246000E1008091DA0080FF2AC08091D80080FFCF
:1024700026C08091DA008E7F8093DA008091D900A7
:1024800080FF18C080E189BD82E189BD09B400FEEA
:10249000FDCF81E080935A028091280281110FC004
:1024A0000E9499110E94B8118091E200846080938B
:1024B000E20005C019BC10925A02109228028091C5
:1024C000E10080FF17C08091E20080FF13C080917F
:1024D000E2008E7F8093E2008091E2008061809331
:1024E000E2008091D80080628093D80019BC85E01A
:1024F00080935A028091E10084FF30C08091E20015
:1025000084FF2CC080E189BD82E189BD09B400FE51
:10251000FDCF8091D8008F7D8093D8008091E1001D
:102520008F7E8093E1008091E2008F7E8093E200B5
:102530008091E20081608093E20080914E028823C6
:1025400011F084E007C08091E30087FD02C081E0C4
:1025500001C083E080935A0280915A028091E10089
:1025600083FF27C08091E20083FF23C08091E100B8
:10257000877F8093E10082E080935A0210924E029E
:102580008091E1008E7F8093E1008091E2008E7F58
:102590008093E2008091E20080618093E20042E05B
:1025A00060E080E00E94EA0D8091F00088608093F6
:1025B000F000FF91EF91BF91AF919F918F917F912B
:1025C0006F915F914F913F912F910F900FBE0F90A0
:1025D0001F9018952091E4003091E50095E6409118
:1025E000EC00842F817040FF23C08091E80080FDC3
:1025F0001DC080915A02882399F0853099F080910E
:10260000EB0085FD11C04091E4005091E5002417D6
:10261000350729F3915011F09A01E1CF84E0089534
:1026200082E0089583E0089581E0089580E00895B0
:102630004091E80042FFDDCF0895EF92FF920F93A3
:102640001F93CF93DF937C018B010E94EA128111CB
:1026500019C0E70101151105A1F08091E80085FD81
:102660000AC08091E8008E778093E8000E94EA1209
:10267000882381F307C089918093F10001501109EB
:10268000E9CF80E0CDB7DEB7E6E00C94DA23CF9354
:1026900020915A02243029F5C091E900CF70309181
:1026A000EC00232F217030FD20E8C22B22E0209384
:1026B000E9002091E80020FF11C040E050E060E216
:1026C00070E00E941D13882321F01092570210928F
:1026D00058028091E8008E778093E800CF70C09315
:1026E000E900CF910895ACE5B0E0E9E7F3E10C949F
:1026F000B52385B7806885BF85B7806885BF84B7F7
:10270000877F84BF0FB6F894A89580916000886198
:1027100080936000109260000FBE90E080E80FB6DA
:10272000F89480936100909361000FBE82EB97E074
:102730009093A1018093A0010E9499110E94B81169
:102740008091E20084608093E200789480915A0244
:102750008823A1F01091E9001F709091EC00892F5F
:10276000817090FD80E8182B1092E9008091E800BC
:1027700083FD0E94880E1F701093E90082E084BDE3
:1027800093E095BD9AEF97BD80936E000E94541C14
:1027900090E090931C0180931B010E948F1D0E946A
:1027A000D51DE1E6F2E0A5E7B2E011921D9222E02C
:1027B000EF36F207D1F78EE090E00E944325809338
:1027C0005B0290935C02FC010E961192E817F907E8
:1027D000E1F789EA8093800089E080938100249862
:1027E0002C983F988AB18F7C8AB96E98479A8BB1A2
:1027F00080638BB9769A8FE090E00E945D246093AD
:102800005D0270935E0280935F0290936002677036
:102810008FEF689FB0011124759567957595679541
:102820007727709389006093880070938B00609382
:102830008A0070938D0060938C000E94CB1C80E016
:1028400090E00E946324883E9E4F11F00E949709F9
:1028500082E090E00E9455248093830284E090E01F
:102860000E945524182F82E290E00E945524212FC7
:1028700030E0382B30933A032093390383E090E023
:102880000E9455240E94A121809170020E942A1C5E
:1028900080916F02811136C080E090E00E94632435
:1028A000883E9E4F21F00E9497090E94D01E88E02A
:1028B00090E00E945D246093290370932A03809323
:1028C0002B0390932C036E7F71F40E94D01E88E03E
:1028D00090E00E945D246093290370932A03809303
:1028E0002B0390932C030E94861E10924603809126
:1028F000290380FF04C060E086950E945C2081E08F
:1029000080936F02809170020E942A1C8BE091E0FC
:10291000909331038093300308E1E02EF12C83E89B
:10292000C82E82E0D82E80915A02853009F086C0E8
:1029300010E4B12EAA24A39400E112E180915A027E
:10294000853009F064C080915A02843009F43DC09A
:102950001092460380917202811116C0A0927202F9
:1029600080912903982F9170909371028E7F8093AC
:1029700029032FEF80E792E0215080409040E1F75B
:1029800000C000000E94E21D109234030FB6F894BC
:10299000A895E09260000FBEB092600083B7817F7F
:1029A000846083BF83B7816083BF7894889583B741
:1029B0008E7F83BF0FB6F894A895809160008861E0
:1029C00080936000109260000FBE80914D028823BA
:1029D00009F4B4CF0E94541C90E090931C018093A2
:1029E0001B010E948F1D0E94D51DE5E7F2E01192A8
:1029F00022E0E338F207D9F70E94A20CE5E7F2E003
:102A00008191811147C2CE16DF06D1F797CF109280
:102A100029020E94DD210E94171B109272028091F0
:102A20007102882349F080912903816080932903F2
:102A300060E086950E945C200E9446200E94A20CC5
:102A4000B4E8AB2EB2E0BB2EA5E7B2E0F501919160
:102A50008D91892792E0E239F90719F08823B9F3BB
:102A600032C0811130C00E948E1A8C018091730295
:102A7000909174020817190709F473C08FEF6496D8
:102A80008FAF649765968FAF659766961FAE669712
:102A90000E948E1A8160782F68969FAF8EAF6897DC
:102AA00064964FAD649765965FAD659766966FAD1A
:102AB000669768968FAD68970E945F1B10937402AB
:102AC000009373024EC0A5E78A2EA2E09A2E10E072
:102AD000F40151904F01F5016080652481F100E01F
:102AE00077247394872D862121F169960FAF69971A
:102AF0006A961FAF6A9791E0872D852109F490E0CF
:102B00006B969FAF6B970E948E1A8160782F6D969F
:102B10009FAF8EAF6D9769964FAD69976A965FAD1F
:102B20006A976B966FAD6B976D968FAD6D970E94A0
:102B30005F1B0F5F770C0630A9F6F50150821F5F0F
:102B4000FFEFAF1ABF0A1E3009F0C2CF8FB7F8945B
:102B500040913503509136036091370370913803EB
:102B60008FBF80914603882309F4A5C08091450357
:102B7000E0912903E695E81BE0934103823059F484
:102B8000F0E0ED51FC4FE4910E2F10E0FBE1AF2E91
:102B9000FAE1BF2E6BC0863059F4F0E0E052FC4FF2
:102BA000E4910E2F10E0EBE0AE2EEAE1BE2E5EC007
:102BB000893061F4E695F0E0E352FC4FE4910E2F8A
:102BC00010E077EAA72E79E1B72E50C08F3061F47C
:102BD000E695F0E0E652FC4FE4910E2F10E061E440
:102BE000A62E69E1B62E42C0853159F4F0E0E952D3
:102BF000FC4FE4910E2F10E051EFA52E58E1B52EB9
:102C000035C08831F9F0833249F4E5EDF3E0059100
:102C1000149141EDA42E49E1B42E28C08432C9F0AC
:102C20008532F1F48E2F63E00E940025E92FF0E059
:102C3000EE52FC4FE4910E2F10E038EAA32E37E15C
:102C4000B32E14C008E210E026E7A22E28E1B22E2F
:102C50000DC004EF11E09EE3A92E98E1B92E06C045
:102C600000ED17E082E6A82E87E1B82E809142039E
:102C7000882361F0109242030E948E1A90934003C1
:102C800080933F0310924403109243030E948E1AD4
:102C9000E0913F03F09140038E1B9F0B8F3F9F47B6
:102CA00050F40E0F1F1F1093400300933F038FE358
:102CB00093E0F50109950E94171B909192028917E4
:102CC00069F0809392028FB7F89440913503509148
:102CD000360360913703709138038FBF80915A0299
:102CE000843009F020CE83E08093E9008091E800F1
:102CF00082FF19CE8091E80085FF22C00E94EA126F
:102D000081111CC000E210E05E01F1E2AF0EB11CC7
:102D100008C08091F100F50181935F010150110914
:102D200069F08091E80085FDF4CF8091E8008B7711
:102D30008093E8000E94EA12882399F391E001C091
:102D400090E08091E8008B778093E800992309F464
:102D5000EACD89A1823099F040F48823A9F181302D
:102D600009F0E1CD09E912E03CC0853009F489C0E1
:102D7000863009F486C0843009F0D5CD76C08BA1A9
:102D80009AA190939302809394028DA19CA1909319
:102D90009502809396028FA19EA1909397028093B3
:102DA000980242E150E063E270E0CE018F5B9F4FFA
:102DB0000E94452484E0898381E0809358028EEF4D
:102DC0008A831092570261C019828CE0E8E6F1E034
:102DD000DE01129601900D928A95E1F78EEF8D87B4
:102DE00054C00E94241BF801819391938F01F2E05B
:102DF0000F391F07B1F781E08983909199029A8377
:102E000090919A029B8390919B029C8390919C024B
:102E10009D8390919D029E8390919E029F839EEF41
:102E2000988780935702CE0101960E94471342E192
:102E300050E063E270E0CE0101960E944524FE015D
:102E4000319682E183301CF09189928B01C0128A05
:102E5000815031978F3FB1F742E150E063E270E07B
:102E6000CE0101960E9469245ECD8091580288238C
:102E700009F459CD80E00E945E218AA10E9495212B
:102E800052CD8FEF898384E08A83CE0101960E9420
:102E9000471349CD09BD19BD09B400FEFDCF80918E
:102EA000D8008F7D8093D8008091E000826080936D
:102EB000E0008091E00081FDFCCF109229020E9489
:102EC000DD213CCD0895089580912B020895CF9384
:102ED000DF9320910A01222339F02091390327FF43
:102EE00003C060E224E002C068E021E02093E90032
:102EF0002FEF3091E800215035FD06C035ED3A95B1
:102F0000F1F700002111F5CF2091E80025FF1DC049
:102F1000EC0180910A01811105C040E050E068E0B9
:102F200070E003C070E040E050E0CE010E941D134D
:102F30008091E8008E778093E80080E2FE01ACE2A9
:102F4000B2E001900D928A95E1F7DF91CF9108955B
:102F5000A0E0B0E0EEEAF7E10C94B923FC01A28016
:102F6000948081E08483E7EEF3E0B490E6E6F4E059
:102F7000E491CEEDD2E0F2EAEF2EF2E0FF2ECC2487
:102F8000CA94D12CEB190E2F10E022E02A1530F054
:102F900080912A03888380912B038983911003C039
:102FA0001B821A8255C08B818823F9F081508B8354
:102FB0002FEF829FC00111246C8170E00E949E233C
:102FC000FB01FF27E951FC4F8491E82FEB192FEF0C
:102FD000E29FC0011124B8010E949E2380912C031E
:102FE000689FB00111247A8333C00E943524209158
:102FF0002C032695215830E0A901440F551F322F8C
:103000002227240F351F232F33278217930704F518
:1030100082E08A1588F40E943524B6010E941A25A0
:1030200088830E94352420912B032695622F70E01F
:103030000E941A25280F29831A8280912C0384313B
:1030400020F0893C18F088EC01C084E18C838B83EC
:1030500097014A81698188810E94E01E259624E0BB
:10306000E20EF11C83E0C932D80709F08ECF0E942E
:10307000E21DCDB7DEB7EBE00C94D523EF92FF92C3
:103080000F931F93CF93DF938C01C2EAD2E0E12C20
:10309000F12CF8018481F7E0EF16F1041CF4882389
:1030A00039F002C0811104C09E0140912C0302C07E
:1030B0009E0140E060912B0380912A030E94E01E54
:1030C0008FEFE81AF80A24969FE0E916F10409F751
:1030D0000E94E21DF801848190E001968170992799
:1030E0008483CDB7DEB7E6E00C94DA23A0E0B0E04D
:1030F000ECE7F8E10C94B823EC014C81042F10E0CC
:103100009801D8010E94F1249B01AC010E94BC24CB
:103110006B017C01E0E2F0E0E01BF10BA5E5B0E023
:103120009B01AC010E94BC244B015C019F01DF01AB
:103130000E9434259B01AC010E94C7249B01AC0175
:103140002C0D3D1D4E1D5F1DC501B4010E94CF24F5
:10315000822FF22E99E2921728F093E0299F900196
:1031600011240DC025E530E0281B3109C901880F65
:10317000991F280F391F37FF02C02F5F3F4F35952A
:103180002795122F109592EAC92E92E0D92E00E0D1
:1031900085E5E82EEF1801FD02C08E2D01C08F2DB0
:1031A0009601412F60912B030E94E01E0F5F84E087
:1031B000C80ED11C0F3079F70E94E21D8C8181115D
:1031C00002C091E003C0803219F49FEF909319017F
:1031D00090911901890F8C83CDB7DEB7ECE00C9488
:1031E000D4230F931F93CF93DF93C2EAD2E0FE0163
:1031F0001182108212821382349682E0EE3DF8072B
:10320000B9F700E010E08091A002082E000C990BA5
:103210000817190794F080911801082E000C990BDB
:103220008017910754F09E0140912C0360912B036D
:1032300080912A030E94E01E04C0198218821A821B
:103240001B820F5F1F4F24960F301105E1F60E947D
:10325000E21D809117019091A002980F9093A00217
:1032600020911801280F20931801121614F49E3093
:103270001CF0819580931701DF91CF911F910F91E1
:103280000895A0E0B0E0E7E4F9E10C94BB23FC0171
:10329000828180FF03C0DD24DA9402C0DD24D39450
:1032A00002EA12E0C0E0D0E02FE0B22EF801118275
:1032B00010821282138294E0E92EF12CC12C8091AD
:1032C0009F028C0D80312CF06B2D0E940C25892FD4
:1032D00002C087FD815F082E000C990BC817D90723
:1032E00091F480912C038E9DA0018F9D500D11248F
:1032F0005595479555954795980160912B03809179
:103300002A030E94E01ECD0CF1E0EF1AF108B9F695
:1033100021960C5F1F4FCF30D10541F60E94E21D70
:1033200080919F0291E0D91206C0811102C08EE007
:1033300007C0815005C090E00196BE010E941A2589
:1033400080939F02CDB7DEB7E9E00C94D723EF92CC
:10335000FF921F93CF93DF93EC0182EAE82E82E085
:10336000F82E10E08C81970140912C0360912B0383
:10337000810F0E94E01E1F5E84E0E80EF11C1F3FDB
:1033800089F70E94E21D9A818C8190FF02C08F5FB5
:1033900001C081508C83DF91CF911F91FF90EF90FE
:1033A0000895A4E0B0E0E7EDF9E10C94C0238C01AE
:1033B0008091A10281110AC09E012F5F3F4F4FEF04
:1033C0006FEF0E94E01E8A818093A102F801848140
:1033D000813051F028F0823061F44091A1020AC09E
:1033E0008091A10240E007C06091A10240E080E02E
:1033F00003C040E080E060E00E94741EF801848118
:1034000090E0019663E070E00E941A258483249680
:10341000E4E00C94DC23CF93DF93EC01E9E2F3E0EA
:10342000438162818C810E946D1F8C818F5F8C83B0
:10343000DF91CF910895CF93DF93EC01EC81F0E021
:10344000E951FC4F4491E9E2F3E0628181810E94FD
:103450006D1F8C818F5F8C83DF91CF910895809356
:103460003B0370933D0360933C0380915A02843088
:10347000F9F48093E9008FEF9091E800815095FD79
:1034800006C095ED9A95F1F700008111F5CF809176
:10349000E80085FF0DC040E050E063E070E08BE3A2
:1034A00093E00E941D138091E8008E778093E800DE
:1034B000089578941F920F920FB60F9211248F9354
:1034C0009F93AF93BF938091350390913603A09162
:1034D0003703B09138030196A11DB11D80933503C8
:1034E00090933603A0933703B0933803BF91AF9105
:1034F0009F918F910F900FBE0F901F9018959C0178
:103500004FB7F8948091350390913603A09137031B
:10351000B09138034FBF821B930B08952FB7F894D7
:103520008091350390913603A0913703B091380311
:103530002FBF08951F920F920FB60F9211248F93F1
:103540009F93AF93BF9380913403811113C08091F7
:10355000350390913603A0913703B091380341961B
:10356000A11DB11D8093350390933603A0933703BB
:10357000B0933803BF91AF919F918F910F900FBE81
:103580000F901F90189520910A012223C9F02091D5
:10359000390327FF15C0262F2695269526952E310F
:1035A000C8F4FC01E20FF11D677081E090E001C0FA
:1035B000880F6A95EAF7809592818923828308951E
:1035C000FC0106962281621301C012823196E8172F
:1035D000F907C1F70895209132033091330328177A
:1035E000390771F09093330380933203E0913003F5
:1035F000F0913103309721F00084F185E02D099599
:10360000089520912E0330912F032817390771F068
:1036100090932F0380932E03E0913003F0913103B8
:10362000309721F00680F781E02D09950895E0910B
:103630003003F0913103309729F00190F081E02DB3
:103640000995089580E00895CF93DF930E94352473
:1036500066E070E00E941A25D82F0E9435246EE0A3
:1036600070E00E941A25C82F6D2F782F80E00E94ED
:10367000F7070497C59718F48D2F9C2F02C00E945E
:10368000241BDF91CF9108959091290390FF04C0EE
:103690009695981748F003C0811106C090E09617E0
:1036A00018F40E94A120089561E00E945C20089512
:1036B000882311F0FA0101C0FB0109950895A7E1E3
:1036C000B0E0E5E6FBE10C94C1234B8B5C8B6D8B8A
:1036D0007E8B8F8B611110921C0286E09E01235F0E
:1036E0003F4FD901E82F1D92EA95E9F795E0FE01D9
:1036F0007396D90101900D929A95E1F79C894E89B4
:103700005F897B897D879E876F87598B488BF901FD
:10371000DE01179601900D928A95E1F7CE0107968A
:103720000E941B0B81113EC086E0FE013796DE0130
:10373000119601900D928A95E1F7FF81E8856A85DF
:103740007B856115710531F0EF3F31F481E0FF3F7A
:1037500019F403C081E001C080E080FD23C0209106
:10376000C90130E0C9010196877099274091FA019B
:1037700050E08417950779F1F983EA837D836C83A0
:1037800096E0929FD001939FB00D1124A653BE4F97
:10379000FE01319601900D929A95E1F78093C9014F
:1037A0000E94A80A16E08091FA019091C901891738
:1037B00009F1189FC001112486539E4F0E941B0BD4
:1037C0008823C1F08091FA0190E0019687709927D3
:1037D0008093FA01E8CF109229020E94DD21109215
:1037E000C9011092FA01E3ECF1E086E0DF011D92DD
:1037F0008A95E9F76796E3E00C94DD23982F92957C
:103800009F7019F0892F24E001C020E0982F969531
:10381000969511F02E5F892F982F969509F02F5FBE
:10382000822F0895109229020E94DD212FEF84E358
:103830009CE0215080409040E1F700C000009AE0F9
:1038400088E10FB6F894A895809360000FBE90931E
:103850006000FFCFCF93C82F0E94FE1B56985E9842
:1038600025982D9826982E9827982F9890E0FC015F
:103870003197E730F105A8F4E459FF4F0C942E2559
:10388000259A2D9A0EC0259A2D9A269A2E9A09C00D
:10389000259A2D9A04C0259A2D9A269A2E9A279A0F
:1038A0002F9A8C2FCF91089580E290E090931C0185
:1038B00080931B0180913E0381110EC00E94CE2295
:1038C00081E080933E032FEF83ED90E32150804011
:1038D0009040E1F700C0000060E570E080E40E94E5
:1038E000D42290931C0180931B01892B09F04EC0B8
:1038F00060E570E080E00E94472390931C01809374
:103900001B01892B09F042C060E570E080E00E9455
:10391000472390931C0180931B01892BB9F560E527
:1039200070E08FE30E94472390931C0180931B015A
:10393000892B61F50E949A2360E570E080E40E9483
:10394000D42290931C0180931B01892BF9F460E52C
:1039500070E08CE00E94472390931C0180931B0130
:10396000892BA1F460E570E080E00E9447239093EA
:103970001C0180931B01892B49F460E570E08FE303
:103980000E94472390931C0180931B010E949A235D
:1039900080911B010895CF93DF9356985E982598E8
:1039A0002D9826982E9827982F98C8E8D0E08FEF6A
:1039B00090E099838883AAE8B0E011969C938E9357
:1039C000ECE8F0E091838083259A2D9A2FEF80E731
:1039D00092E0215080409040E1F700C00000269A1C
:1039E0002E9A2FEF80E792E0215080409040E1F73F
:1039F00000C00000279A2F9A2FEF80E792E0215015
:103A000080409040E1F700C0000025982D982FEFEE
:103A100080E792E0215080409040E1F700C0000034
:103A200026982E982FEF80E792E02150804090401A
:103A3000E1F700C0000027982F9880915D02877001
:103A40002FEF829FC00111249595879595958795B5
:103A500099279983888311969C938E939183808371
:103A600056985E9825982D9826982E9827982F98E6
:103A7000DF91CF910895CF93E82F873080F5809123
:103A80001B0190911C01892B09F047C0CE2F60E5E6
:103A900070E080E40E94D42290931C0180931B016B
:103AA000892BD1F460E570E082E10E944723909376
:103AB0001C0180931B01892B79F481E090E001C007
:103AC000880FCA95EAF760E570E080950E94472369
:103AD00090931C0180931B010E949A231EC090E0CA
:103AE000FC013797E730F105C0F4ED58FF4F0C9417
:103AF0002E25209A289811C0219A29980EC0229A22
:103B00002A980BC0239A2B9808C0529A5A9805C03D
:103B1000539A5B9802C03E9A4698CF910895209898
:103B200028982198299822982A9823982B98529877
:103B30005A9853985B983E9846980895CF9387304B
:103B400040F580911B0190911C01892B59F560E58E
:103B500070E081E40E94D42290931C0180931B01A9
:103B6000892B11F0C0E011C080E590E00E9476231F
:103B700097FF05C090931C0180931B01F3CFC82FC2
:103B8000C09510921C0110921B010E949A238C2F49
:103B90000AC09FB18FB1807F869586959370892BDF
:103BA000809501C080E0CF9108958098889A81988F
:103BB000899A84988C9A85988D9A86988E9A8798F7
:103BC0008F9A0895EF92FF920F931F93CF93DF93F5
:103BD0008091290380FF08C002EA12E08EEDE82EF2
:103BE00082E0F82EF8011BC0E2EAF2E08EED92E0EE
:103BF000118210821282138234968E179F07C1F7AA
:103C0000EBCF381708F4832F8383381B3183281BAD
:103C10002083981B92833496EE16FF0641F0928122
:103C200020813181892F291760F7822FEACF809177
:103C30003E03882381F180911B0190911C01892B07
:103C400051F580911A01882331F165E070E084E834
:103C50000E94D422892B19F010921A011AC0C2EACC
:103C6000D2E065E070E088810E94472365E070E063
:103C700089810E94472365E070E08A810E94472382
:103C800065E070E08B810E9447232496EC16FD06C8
:103C900041F70E949A23579A8BB18F779BB1906816
:103CA0002FB7F894E016F10699F0F80131918F01E1
:103CB00048E09BB9000000C037FF8BB9330F00000C
:103CC00000C000C000C08BB900C04A9591F7EACF90
:103CD0002FBF8FE594E00197F1F700C00000CDB74A
:103CE000DEB7E6E00C94DA239091290390FF0DC033
:103CF000E2EAF2E08183608342831382349692E0A9
:103D0000EE3DF907B9F70E94E21D0895809129035D
:103D1000282F269530E02115310519F48170826035
:103D200005C02B32310524F081708465809329030E
:103D30000895CF92DF92EF92FF926B017C010E9477
:103D4000861EB701A60188E090E00E948B24FF90B8
:103D5000EF90DF90CF90089580912D03882319F084
:103D6000815080932D036091290370912A038091E3
:103D70002B0390912C030E94991E089580912D038E
:103D8000833018F48F5F80932D0360912903709125
:103D90002A0380912B0390912C030E94991E089571
:103DA000E9E2F3E083E0808311828FEF82838383F3
:103DB000148260817181828193810E94991E08958D
:103DC000A0E0B0E0E6EEFEE10C94BA23E82EF62E79
:103DD000E901E42FF0E0611106C0E951FB4FE491E5
:103DE0004E2F2E2F71C0062F10E0E951FB4F44914A
:103DF000F42FC42ED12C26E0829FC00111242FEF76
:103E000030E0B9010E949E235BEA5603C001579F30
:103E1000900D11248E0D911D8E0D911D582F550F53
:103E2000580FD901A01BB10BAC9DC001AD9D900DE9
:103E3000BC9D900D1124E92FF59ED0011124AB2FCC
:103E4000BB277901EA1AFB0AEC9CD001ED9CB00D6E
:103E5000FC9CB00D11245901A51AB108A09E700157
:103E6000A19EF00CB09EF00C1124EF2CFF242E1913
:103E70003F092C9D80012D9D100D3C9D100D11249E
:103E8000212F6230710591F048F461157105E1F060
:103E900061307105B9F4242F4B2F16C064307105C1
:103EA00069F040F06630710579F00CC0242F492F7D
:103EB000E12F0AC0492FEF2F2B2F06C0292FE42F07
:103EC000412F02C0292FEB2F49832883EA831B82CD
:103ED000CDB7DEB7EAE00C94D623A4E0B0E0E3E788
:103EE000FFE10C94C2239091290390FF0AC09E0128
:103EF0002F5F3F4F0E94E01E4B8169818A810E94A3
:103F0000741E2496E2E00C94DE23A4E0B0E0EBE81B
:103F1000FFE10C94B523F82E762EE42E622E9091BC
:103F2000290390FF67C0E92FE695AE2FB0E0AC58AB
:103F3000BE4F8C91809345039E7F923061F49E0129
:103F40002F5F3F4F8F2D0E94E01E4B8169818A8138
:103F50000E94741E3DC0823019F4E0902C0338C0DA
:103F6000863019F4F0902A0333C08930D9F38931AF
:103F700079F5E9518E2F8170582EE695F0E0E951E0
:103F8000FA4FE4910E2F10E082EAC82E82E0D82E7C
:103F9000A12CB12C9FE0892E912CC501B4010E9467
:103FA0009E238F2D511002C0860F01C0861B9601E3
:103FB0004E2D672D0E94E01EA00EB11E84E0C80E9B
:103FC000D11C8EEDC81682E0D80639F70E94E21D9A
:103FD000F0922A0370922B03E0922C03662051F09A
:103FE0006091290370912A0380912B0390912C03F7
:103FF0000E94991E2496EFE00C94D123E9E2F3E0AD
:1040000043812CE0421B08F440E021E06281818181
:104010000E94851F0895E9E2F3E043812CE0420FFE
:1040200008F44FEF21E0628181810E94851F08958D
:10403000E9E2F3E062812FEF621B08F460E021E027
:10404000438181810E94851F0895E9E2F3E0628146
:104050002FEF620F08F46FEF21E0438181810E940E
:10406000851F0895E9E2F3E0818121E043816281C7
:104070008C500E94851F0895E9E2F3E0818121E0E0
:1040800043816281845F0E94851F089560912903A6
:10409000669570E04BE050E08DE191E00E9464266F
:1040A000892B19F481E0809346030E948E1A909325
:1040B000400380933F0308959091290390FF36C0F9
:1040C0009170811102C0926006C08B3210F094652D
:1040D00002C0880F982B90932903662351F06091BA
:1040E000290370912A0380912B0390912C030E9445
:1040F000991E60912903669570E04BE050E08DE1D8
:1041000091E00E946426892B19F01092460302C0A8
:104110000E94462081E08093420320E040912C03DE
:1041200060912B0380912A030E94851F089580913E
:1041300029038695815009F48AE261E00E945C209F
:1041400008958091290386958F5F8B3208F081E076
:1041500061E00E945C20089580E090E00E94011BD5
:1041600080E090E00E94EB1A10921C020E941A0A52
:104170000895CF92DF92FF920F931F93CF93DF9317
:104180006C010091700280911E02082BC7E0D0E004
:1041900010E0C8010C2E02C0959587950A94E2F7AD
:1041A00080FD04C02197A8F7F12C09C0FC2EB601B0
:1041B0008C2F0E94F7070E941008019799F38F2D0A
:1041C000DF91CF911F910F91FF90DF90CF900895D5
:1041D000CF93DF93EC010E94B920BE010E94F70744
:1041E0000E941008DF91CF910895292F9E3078F515
:1041F000863068F590E036E0239F800D911D1124F4
:10420000682F677023E0969587952A95E1F7FC0162
:10421000EE0FFF1FE80FF91FE95BFC4F40E050E095
:1042200080E0219130E0062E02C0369527950A9451
:10423000E2F721703327042E01C0220F0A94EAF717
:10424000822B4F5F5F4F4330510559F7089580E04F
:104250000895292F9E3088F5863078F590E036E075
:10426000239F800D911D1124282F277051E001C03C
:10427000550F2A95EAF723E0969587952A95E1F759
:10428000FC01EE0FFF1FE80FF91FE95BFC4F20E078
:1042900030E070E04081CB01022E02C096958795F8
:1042A0000A94E2F78170819584278523842781937E
:1042B0002F5F3F4F2330310569F70895A0E2B0E04A
:1042C000E4E6F1E20C94C1230E942A1C182F80918D
:1042D00058028823A9F02FEF80E792E02150804018
:1042E0009040E1F700C0000085E08983812F0E94A3
:1042F000FE1B8A838EEF8B83CE0101960E944713AB
:10430000109370020E94AC20A096E3E00C94DD2391
:1043100021E030E001C0220F8A95EAF720958091D4
:10432000700282230E945E21089521E030E001C0E6
:10433000220F8A95EAF780917002822B0E945E21FB
:10434000089580931E020E94AC200895CF93FC0133
:104350008081918123813481232B31F09F3F31F47F
:1043600091E08F3F19F403C091E001C090E0C92FA4
:10437000C17090FD1CC0808191810E94E8209295BF
:104380009F70963079F010F4925001C09A5092309C
:1043900088F4803F71F018F4883E60F40AC0843FCE
:1043A00049F407C0883E28F0813F21F402C0C0E0F4
:1043B00001C0C1E08C2FCF91089580910A0188231C
:1043C00031F08091390387FF02C08EE101C086E0A1
:1043D000E5EAF1E0DF011D928A95E9F70E94AC2041
:1043E0000895882321F00E94130A0E941A0A089552
:1043F000882339F090912902892B809329020E9409
:104400001A0A0895882349F1682F8CEF860F813AA4
:1044100028F483EA91E00E94C31A0CC080E2860F60
:10442000883058F4677081E001C0880F6A95EAF718
:104430000E94130A0E941A0A08958BE5860F8330A2
:1044400028F480E090E00E94011B0895685A6731CB
:1044500020F480E090E00E94EB1A0895CF93882327
:1044600009F49AC0C82F8CEF8C0F813A08F05EC017
:1044700080910A018823E1F08091390387FF18C0F9
:10448000EC2FE695E695E695F0E0ED55FE4F82813E
:10449000282F30E04C2F477081E090E002C0880F59
:1044A000991F4A95E2F782239323892B59F411C06F
:1044B000E5EAF1E08191C81729F081E0EB3AF807CD
:1044C000C9F707C06C2F83EA91E00E94C31A0E94CB
:1044D0001A0A80910A018823C9F08091390387FF65
:1044E00015C0AC2FA695A695A695B0E0AD55BE4FCC
:1044F000C77081E090E001C0880FCA95EAF7129674
:104500009C911297892B12968C9320C0A5EAB1E05A
:10451000EFEF80E09D91C917C9F0EF3F19F49111B9
:1045200001C0E82F8F5F8630A9F72DC080E28C0F85
:10453000883078F4C77081E090E001C0880FCA9598
:10454000EAF790912902892B809329020E941A0A86
:1045500023C0EBE5EC0FE33040F4F0E0E85DFE4F04
:10456000808190E00E94011B17C0C85AC731A0F497
:10457000EC2FF0E0EE0FFF1FE55DFE4F8081918193
:104580000E94EB1A09C0EF3F09F30E2E000CFF0B3F
:10459000ED55FE4FC283DACFCF9108951092B90046
:1045A0008CE08093B8000895A0E0B0E0EAEDF2E27C
:1045B0000C94B923B82EEB010E948E1A6C01C43101
:1045C000D10558F0CF3F8FEFD80759F0CE0164E105
:1045D00070E00E949E237B0107C0EE24E394F12C3F
:1045E00003C025E0E22EF12C84E8A82E94EA992E4F
:1045F0001092BC009092BC000E948E1A8C01809197
:10460000BC0087FD07C0C8010E947F1AE816F906A2
:10461000B0F729C08091B900887F883041F080913F
:10462000B900887F803119F00FEF1FEF1EC0B092E4
:10463000BB00A092BC000E948E1A8C018091BC002D
:1046400087FD07C0C8010E947F1AE816F906B0F777
:104650000AC08091B900887F883111F0803421F739
:1046600000E010E00EC00EEF1FEFCF3F8FEFD80736
:1046700009F4BECFC6010E947F1AC817D90708F0F7
:10468000B7CFC801CDB7DEB7EBE00C94D5230F93BD
:104690001F93CF93DF93EB018093BB0084E880935B
:1046A000BC000E948E1A8C018091BC0087FD0DC059
:1046B000CF3F8FEFD807C1F3C8010E947F1AC817F8
:1046C000D90790F78EEF9FEF0CC02091B900287F9B
:1046D00081E090E0283211F480E090E0919581959E
:1046E0009109DF91CF911F910F9108950F931F931F
:1046F000CF93DF93EC0184E88093BC000E948E1A74
:104700008C018091BC0087FD0DC0CF3F8FEFD80793
:10471000C1F3C8010E947F1AC817D90790F78EEF1E
:104720009FEF03C08091BB0090E0DF91CF911F917C
:104730000F91089584E98093BC000895AA1BBB1BC8
:1047400051E107C0AA1FBB1FA617B70710F0A61B91
:10475000B70B881F991F5A95A9F780959095BC01B2
:10476000CD0108952F923F924F925F926F927F9268
:104770008F929F92AF92BF92CF92DF92EF92FF9271
:104780000F931F93CF93DF93CDB7DEB7CA1BDB0B1D
:104790000FB6F894DEBF0FBECDBF09942A883988C2
:1047A00048885F846E847D848C849B84AA84B984C9
:1047B000C884DF80EE80FD800C811B81AA81B981D5
:1047C000CE0FD11D0FB6F894DEBF0FBECDBFED01E9
:1047D00008958F929F92AF92BF92CF92DF92EF9205
:1047E000FF92CF93DF93EC01688179818A819B816D
:1047F000611571058105910521F464E279ED8BE580
:1048000097E02DE133EF41E050E00E949D24490103
:104810005A019B01AC01A7EAB1E40E94BC246B01E0
:104820007C01ACEEB4EFA50194010E94CA24DC0126
:10483000CB018C0D9D1DAE1DBF1DB7FF03C00197A1
:10484000A109B04888839983AA83BB839F77DF91AE
:10485000CF91FF90EF90DF90CF90BF90AF909F905F
:104860008F9008950E94E923089580E091E00E94CE
:10487000E9230895A0E0B0E0809300019093010146
:10488000A0930201B09303010895DC01CB01FC0168
:10489000F999FECF06C0F2BDE1BDF89A319600B499
:1048A0000D9241505040B8F70895F999FECF92BD4E
:1048B00081BDF89A992780B50895A6E1B0E044E05B
:1048C00050E00C944724A8E1B0E042E050E00C94A2
:1048D0004724DC01A40FB51F4150504048F0CB01E4
:1048E000840F951F2E910E947A2441505040D0F79A
:1048F0000895262FF999FECF92BD81BDF89A0197B0
:1049000000B4021639F01FBA20BD0FB6F894FA9A17
:10491000F99A0FBE08950396272F0E947A240E94C9
:104920007924252F0E947A24242F0C947A2401962E
:10493000272F0E947A240C947924052E97FB1EF4CD
:1049400000940E94B42457FD07D00E94CF2407FC96
:1049500003D04EF40C94B424509540953095219595
:104960003F4F4F4F5F4F089590958095709561959B
:104970007F4F8F4F9F4F08950E94F124A59F900D68
:10498000B49F900DA49F800D911D11240895B7FF31
:104990000C94BC240E94BC24821B930B0895A1E2BA
:1049A0001A2EAA1BBB1BFD010DC0AA1FBB1FEE1FA9
:1049B000FF1FA217B307E407F50720F0A21BB30BF4
:1049C000E40BF50B661F771F881F991F1A9469F770
:1049D00060957095809590959B01AC01BD01CF01CC
:1049E0000895A29FB001B39FC001A39F700D811DC8
:1049F0001124911DB29F700D811D1124911D0895E8
:104A0000991B79E004C0991F961708F0961B881F20
:104A10007A95C9F78095089587FB082E062687FDAD
:104A2000819567FD61950E9400250EF4919507FC24
:104A30008195089597FB072E16F4009407D077FD13
:104A400009D00E949E2307FC05D03EF490958195E5
:104A50009F4F0895709561957F4F0895EE0FFF1F4A
:104A60000590F491E02D09940E94F124332312F46F
:104A70008A1B9B0B0C943E250E94F124B7FF0895DE
:104A8000821B930B08950F931F93CF93DF93823074
:104A9000910510F482E090E0E0916A03F0916B03DD
:104AA00020E030E0A0E0B0E0309719F14081518182
:104AB0000281138148175907C8F08417950769F4D4
:104AC000109731F012960C93129713961C9327C0EF
:104AD00000936A0310936B0322C02115310519F06E
:104AE0004217530718F49A01BD01EF01DF01F801E5
:104AF000DBCF21153105F9F0281B390B24303105A6
:104B000080F48A819B816115710521F0FB019383FB
:104B1000828304C090936B0380936A03FE013296F4
:104B200044C0FE01E20FF31F81939193225031099B
:104B3000398328833AC02091680330916903232B7D
:104B400041F42091060130910701309369032093CD
:104B5000680320910401309105012115310541F4CC
:104B60002DB73EB74091080150910901241B350B28
:104B7000E0916803F0916903E217F307A0F42E1B9C
:104B80003F0B2817390778F0AC014E5F5F4F2417B1
:104B9000350748F04E0F5F1F509369034093680339
:104BA0008193919302C0E0E0F0E0CF01DF91CF91DB
:104BB0001F910F910895CF93DF93009709F481C05F
:104BC000FC01329713821282A0916A03B0916B03A9
:104BD000109781F420813181820F931F2091680307
:104BE000309169032817390751F5F0936903E09371
:104BF000680367C0ED0120E030E0CE17DF0740F426
:104C00004A815B819E0141155105F1F0EA01F5CF22
:104C1000D383C28340815181840F951FC817D90760
:104C200059F488819981840F951F0296918380831E
:104C30008A819B81938382832115310529F4F09326
:104C40006B03E0936A033DC0E901FB83EA8349916A
:104C50005991C40FD51FEC17FD0761F48081918134
:104C6000840F951F0296E90199838883828193813D
:104C70009B838A83E0E0F0E012968D919C911397DC
:104C8000009719F0FD01DC01F7CF8D919C911197F0
:104C90009D012E5F3F4F820F931F2091680330913B
:104CA00069032817390769F4309729F410926B03C8
:104CB00010926A0302C013821282B0936903A09318
:104CC0006803DF91CF910895FC014150504030F0CE
:104CD00001900616D1F73197CF01089588279927BB
:104CE0000895FB01DC0104C08D910190801921F42D
:104CF00041505040C8F7881B990B0895F894FFCF96
:104D00000100000000006C032000016417671763B6
:104D100017830E7E0E7D0E01020101200001191A7B
:104D20001B1C1D1E1F202122818283E200E900EA54
:104D300000B500B600B700CD008301CC008A019217
:104D40000194012102230224022502260227022ABD
:104D500002B300B4006F00700040226DD302B102B4
:104D6000440225033E035E0352674F52652F67429C
:104D70003430580000010202020206060609090941
:104D80000909090F0F0F0F0F0F151515181919190C
:104D9000191919191919192324252525252525003F
:00000001FF
