:100000000C9477020C9494020C9494020C94940235
:100010000C9494020C9494020C9494020C94940208
:100020000C9494020C9494020C94A8130C94EA126D
:100030000C94F7210C9494020C9494020C94940266
:100040000C9494020C9494020C9494020C949402D8
:100050000C9494020C94B6210C9494020C94940287
:100060000C9494020C9494020C9494020C949402B8
:100070000C9494020C9494020C9494020C949402A8
:100080000C9494020C9494020C9494020C94940298
:100090000C9494020C9494020C9494020C94940288
:1000A0000C9494020C9494020C949402C506CA0613
:1000B000D406C806CD06D206D006FE0701080408FD
:1000C00007080A080D081008560D560D890D890DF0
:1000D000F60D190F190F190F120E880E9B0E9B0E9D
:1000E00002112911D2122911D21275119811D212AE
:1000F0008D129D12000000000000000000000000B2
:1001000000000000000000000000000000000000EF
:1001100000000000000000007E0F00D4FFFFFFC7BA
:100120000000007800000000000000002A2B2800DA
:100130000000000000000000000000000000002996
:10014000000000002C1E3420212224342627252ED6
:10015000362D3738271E1F2021222324252633330E
:10016000362E37381F0405060708090A0B0C0D0E3A
:100170000F101112131415161718191A1B1C1D2F06
:100180003130232D350405060708090A0B0C0D0E26
:100190000F101112131415161718191A1B1C1D2FE6
:1001A0003130354C01012901043130307C0102E14C
:1001B0000101330103E101043130307C01011401FC
:1001C000043130307C0102E101011E0103E1010430
:1001D0003130307C0101280005010980A10185032F
:1001E00019012AB700150126B70095017510810085
:1001F000C0050C0901A101850419012AA0021501FD
:1002000026A002950175108100C005010906A10113
:100210008506050719E029E71500250195087501F0
:1002200081020507190029EF1500250195F07501D8
:1002300081020508190129059505750191029501AD
:1002400075039101C00660FF0961A10109621500F3
:1002500026FF009520750881020963150026FF001E
:10026000952075089102C005010906A1010507192D
:10027000E029E715002501950875018102950175B2
:100280000881010507190029FF150026FF009506C2
:100290007508810005081901290595057501910268
:1002A000950175039101C009025B00030100A0FAEA
:1002B00009040000010301010009211101000122CC
:1002C0004000070581030800010904010002030042
:1002D00000000921110100012222000705820320EC
:1002E00000010705030320000109040200010300C7
:1002F0000000092111010001226D0007058403207F
:100300000001120100020000000897327449010048
:100310000102000116034500720067006F004400EF
:100320006F007800200045005A00000028035A00A2
:1003300053004100200054006500630068006E0017
:100340006F006C006F006700790020004C006100B6
:1003500062007300000004030904290035002B002B
:10036000E100010000001E00140004001D00E00078
:1003700001001F001A0016001B00E200E30020002D
:1003800008000700060001002C00210015000900EC
:10039000190001000100220017000A0005000000FA
:1003A000500027002F000000010000004F00230034
:1003B0003000000001000000510024001C000B0070
:1003C000110000005200250018000D001000015817
:1003D000010026000C000E00360001002A00270054
:1003E00012000F003700E60028002D001300330034
:1003F0003800E40001002E002F003400E500010069
:1004000000000050010001000100010000003A005E
:100410001E0220022202240201003B001F022102D0
:100420002302250201003C002F0226022F000100BA
:1004300001003D00300227023000010001003E00B3
:1004400031022D0235020000010001002F0A0000D8
:100450003800000001006B00300A00002700000097
:1004600001003F00005703570657000001004000FD
:100470000157045707570100010041000257055773
:10048000085701000100420027000100010001009F
:1004900001004300010001000100010001004400CF
:1004A000450001000100010000001A000E000000DC
:1004B000140007000E0000000E00070000000F00EF
:1004C0003300000033003400000004000700000087
:1004D0001400080000000C000D0000000D000E00CC
:1004E00000000E000F0000000700090000001124AA
:1004F0001FBECFEFDAE0DEBFCDBF12E0A0E0B1E07B
:10050000E2E5FFE402C005900D92A233B107D9F7EE
:1005100023E0A2E3B2E001C01D92AC3FB207E1F7D5
:100520000E9494190C94A7270C9400009C013A9502
:1005300021153F4130F5BC0166277270AC0144279C
:1005400054709C012227387094FF0FC090FF02C0A6
:1005500080E101C080E0672B09F08062452B09F043
:100560008064232B79F080680895892F8170672B30
:1005700009F08260452B09F08460232B19F0886014
:10058000089580E00895FC018281813039F49581DD
:1005900092FD12C090FF10C082E00895823039F4BD
:1005A000858182FD06C080FD06C083E0089586E057
:1005B000089585E0089584E00895CF93DF93EC01DA
:1005C0000E94B018CE01805E9109089710F0209724
:1005D00031F4CE010E9496020E949F1805C0CE0100
:1005E0000E9496020E948E18DF91CF9108958FE3AA
:1005F0009CE90197F1F700C000008091460282302B
:1006000049F018F4813049F00CC0833031F0853066
:1006100021F007C08CE390E002C080E290E00E94ED
:10062000DD021092460208958FE39CE90197F1F7ED
:1006300000C0000080914402823049F018F48130FB
:1006400049F00CC0833031F0853021F007C08BE3D6
:1006500090E002C08FE190E00E94DD02109244021F
:1006600008958FE39CE90197F1F700C000008091A5
:100670004202823049F018F4813049F00CC08330D6
:1006800031F0853021F007C08AE390E002C08EE1AE
:1006900090E00E94DD021092420208958FE39CE9EF
:1006A0000197F1F700C0000080914002823049F0CC
:1006B00018F4813049F00CC0833031F0853021F0DE
:1006C00007C08FE390E002C083E290E00E94DD0269
:1006D0001092400208958FE39CE90197F1F700C062
:1006E000000080913E02823049F018F4813049F0D8
:1006F0000CC0833031F0853021F007C08EE390E0EC
:1007000002C082E290E00E94DD0210923E02089553
:100710008FE39CE90197F1F700C0000080913C0253
:10072000823049F018F4813049F00CC0833031F048
:10073000853021F007C08DE390E002C081E290E0B7
:100740000E94DD0210923C0208958FE39CE901971C
:10075000F1F700C0000080913A02823049F018F4AD
:10076000813049F00CC0833031F0853021F007C072
:1007700082E490E002C086E290E00E94DD021092E6
:100780003A0208958FE39CE90197F1F700C0000059
:1007900080913802823049F018F4813049F00CC061
:1007A000833031F0853021F007C081E490E002C051
:1007B00085E290E00E94DD021092380208958FE3F6
:1007C0009CE90197F1F700C0000080913602823069
:1007D00049F018F4813049F00CC0833031F0853095
:1007E00021F007C080E490E002C084E290E00E9423
:1007F000DD02109236020895CF93DF93EC01805E04
:100800009109089710F0209731F4CE010E949602CA
:100810000E94A61805C0CE010E9496020E9495185B
:100820008C2F0E94DC18DF91CF9108950F931F93B6
:10083000CF93DF938C01C99719F0C0E0D0E002C0DC
:10084000C0E5D0E0C8010E94FC03209741F08FE989
:100850009FE00197F1F700C000002197F6CFC80193
:100860000E94DD02DF91CF911F910F910895CF93E8
:10087000DF93EC018A81833061F480E290E00E9492
:10088000160480E290E00E94160480E290E00E944C
:1008900016048A81843020F080E290E00E941604E1
:1008A000DF91CF910895CF93DF93EC018A8183305C
:1008B00061F48FE190E00E9416048FE190E00E94C5
:1008C00016048FE190E00E9416048A81843020F0A3
:1008D0008FE190E00E941604DF91CF910895CF93AD
:1008E000DF93EC018A81833061F48EE190E00E9415
:1008F00016048EE190E00E9416048EE190E00E94C2
:1009000016048A81843020F08EE190E00E94160463
:10091000DF91CF910895CF93DF93EC018A818330EB
:1009200061F483E290E00E94160483E290E00E946A
:10093000160483E290E00E9416048A81843020F03D
:1009400083E290E00E941604DF91CF910895CF9347
:10095000DF93EC018A81833061F482E290E00E94AF
:10096000160482E290E00E94160482E290E00E9467
:1009700016048A81843020F082E290E00E941604FE
:10098000DF91CF910895CF93DF93EC018A8183307B
:1009900061F481E290E00E94160481E290E00E94FE
:1009A000160481E290E00E9416048A81843020F0CF
:1009B00081E290E00E941604DF91CF910895CF93D9
:1009C000DF93EC018A81833061F486E290E00E943B
:1009D000160486E290E00E94160486E290E00E94EF
:1009E00016048A81843020F086E290E00E9416048A
:1009F000DF91CF910895CF93DF93EC018A8183300B
:100A000061F485E290E00E94160485E290E00E9485
:100A1000160485E290E00E9416048A81843020F05A
:100A200085E290E00E941604DF91CF910895CF9364
:100A3000DF93EC018A81833061F484E290E00E94CC
:100A4000160484E290E00E94160484E290E00E9482
:100A500016048A81843020F084E290E00E9416041B
:100A6000DF91CF9108950E94C302809346028230A5
:100A700049F018F4813091F00895833031F08530D9
:100A800049F008958CE390E00BC080E290E00E9472
:100A9000FC0304C080E290E00E94160480E290E033
:100AA0000E94FC0308950E94C30280934402823096
:100AB00049F018F4813091F00895833031F0853099
:100AC00049F008958BE390E00BC08FE190E00E9425
:100AD000FC0304C08FE190E00E9416048FE190E0D7
:100AE0000E94FC0308950E94C30280934202823058
:100AF00049F018F4813091F00895833031F0853059
:100B000049F008958AE390E00BC08EE190E00E94E6
:100B1000FC0304C08EE190E00E9416048EE190E098
:100B20000E94FC0308950E94C30280934002823019
:100B300049F018F4813091F00895833031F0853018
:100B400049F008958FE390E00BC083E290E00E94AB
:100B5000FC0304C083E290E00E94160483E290E06C
:100B60000E94FC0308950E94C30280933E028230DB
:100B700049F018F4813091F00895833031F08530D8
:100B800049F008958EE390E00BC082E290E00E946D
:100B9000FC0304C082E290E00E94160482E290E02E
:100BA0000E94FC0308950E94C30280933C0282309D
:100BB00049F018F4813091F00895833031F0853098
:100BC00049F008958DE390E00BC081E290E00E942F
:100BD000FC0304C081E290E00E94160481E290E0F0
:100BE0000E94FC0308950E94C30280933A0282305F
:100BF00049F018F4813091F00895833031F0853058
:100C000049F0089582E490E00BC086E290E00E94F3
:100C1000FC0304C086E290E00E94160486E290E0A5
:100C20000E94FC0308950E94C30280933802823020
:100C300049F018F4813091F00895833031F0853017
:100C400049F0089581E490E00BC085E290E00E94B5
:100C5000FC0304C085E290E00E94160485E290E067
:100C60000E94FC0308950E94C302809336028230E2
:100C700049F018F4813091F00895833031F08530D7
:100C800049F0089580E490E00BC084E290E00E9477
:100C9000FC0304C084E290E00E94160484E290E029
:100CA0000E94FC030895982F92959F7019F0892F48
:100CB00024E001C020E0982F9695969511F02E5FC4
:100CC000892F982F969509F02F5F822F0895A5E020
:100CD000B0E0EDE6F6E00C942025FC0186819781DA
:100CE000009709F5CF0125E0DE01119601900D92E4
:100CF0002A95E1F7FC01228189819A81222359F00A
:100D0000662349F00E941515182F682F89819A8152
:100D10000E947E1703C00E944A17182F69817A81AA
:100D2000812F0E94FA1C2596E3E00C943C2510923A
:100D300049020E94FB172FEF84E39CE02150804082
:100D40009040E1F700C000009AE088E10FB6F89407
:100D5000A895809360000FBE90936000FFCFCF9363
:100D6000C82F0E94530656985E9825982D9826986D
:100D70002E9827982F9890E0FC013197E730F105E5
:100D8000A8F4EA5AFF4F0C947326259A2D9A0EC0A8
:100D9000259A2D9A269A2E9A09C0259A2D9A04C032
:100DA000259A2D9A269A2E9A279A2F9A8C2FCF9190
:100DB000089580E290E0909318018093170180914C
:100DC000340281110EC00E942D2481E080933402F0
:100DD0002FEF83ED90E3215080409040E1F700C079
:100DE000000060E570E080E40E94332490931801D5
:100DF00080931701892B09F04EC060E570E080E018
:100E00000E94A6249093180180931701892B09F062
:100E100042C060E570E080E00E94A6249093180133
:100E200080931701892BB9F560E570E08FE30E948C
:100E3000A6249093180180931701892B61F50E94D5
:100E4000F92460E570E080E40E9433249093180157
:100E500080931701892BF9F460E570E08CE00E9423
:100E6000A6249093180180931701892BA1F460E5C3
:100E700070E080E00E94A6249093180180931701EF
:100E8000892B49F460E570E08FE30E94A6249093DB
:100E90001801809317010E94F92480911701089589
:100EA000CF93DF9356985E9825982D9826982E9884
:100EB00027982F98C8E8D0E08FEF90E09983888337
:100EC000AAE8B0E011969C938E93ECE8F0E0918351
:100ED0008083259A2D9A2FEF80E792E02150804061
:100EE0009040E1F700C00000269A2E9A2FEF80E78D
:100EF00092E0215080409040E1F700C00000279A26
:100F00002F9A2FEF80E792E0215080409040E1F748
:100F100000C0000025982D982FEF80E792E0215027
:100F200080409040E1F700C0000026982E982FEFF7
:100F300080E792E0215080409040E1F700C000003F
:100F400027982F9880919E0287702FEF829FC00173
:100F500011249595879595958795992799838883E9
:100F600011969C938E939183808356985E982598D2
:100F70002D9826982E9827982F98DF91CF91089535
:100F8000CF93E82F873080F5809117019091180159
:100F9000892B09F047C0CE2F60E570E080E40E9405
:100FA00033249093180180931701892BD1F460E5C5
:100FB00070E082E10E94A6249093180180931701AB
:100FC000892B79F481E090E001C0880FCA95EAF797
:100FD00060E570E080950E94A624909318018093AC
:100FE00017010E94F9241EC090E0FC013797E730FA
:100FF000F105C0F4E35AFF4F0C947326209A289809
:1010000011C0219A29980EC0229A2A980BC0239ABF
:101010002B9808C0529A5A9805C0539A5B9802C000
:101020003E9A4698CF91089520982898219829981B
:1010300022982A9823982B9852985A9853985B98FC
:101040003E9846980895CF93873040F580911701D8
:1010500090911801892B59F560E570E081E40E94B8
:1010600033249093180180931701892B11F0C0E06D
:1010700011C080E590E00E94D52497FF05C09093B1
:10108000180180931701F3CFC82FC0951092180153
:10109000109217010E94F9248C2F0AC09FB18FB1C2
:1010A000807F869586959370892B809501C080E01E
:1010B000CF9108958098889A8198899A84988C9A7B
:1010C00085988D9A86988E9A87988F9A0895ABE125
:1010D000B0E0EDE6F8E00C941125498B5A8B6B8B50
:1010E0007C8B8D8B61111092E5039E01275F3F4F32
:1010F00088E0F90111928A95E9F785E0FE01719681
:10110000D90101900D928A95E1F789859A854C85E0
:101110005D85452B31F09F3F31F491E08F3F19F40D
:1011200003C091E001C090E090FDD1C161E0C90130
:101130000E9467066C01883FFCE59F0739F48B85A8
:101140008823A1F081E08093E401C1C1893F2CE5AF
:10115000920731F48B85882349F00E946623B7C13A
:101160008A3F9C4519F48B85811111C007E911E074
:10117000712CA12CB12C88248394912C5524539448
:10118000CE0101969F8B8E8B77E0472E38C08091E1
:10119000E4018823B9F2E1CFFFEFEF16FF0609F46F
:1011A00044C1F8016481611145C02091E401822F9E
:1011B00081706B84F80135812681662009F4DCC0DA
:1011C000882309F4D9C03323C1F1940102C0220F4E
:1011D000331F9A95E2F721503109F801868190E09A
:1011E0002817390709F440C07628FFEFAF1ABF0A65
:1011F000095F1F4F2BE0A216B10409F418C1F801D2
:10120000208131816FEF8FEF90E0E92EF12CF70113
:10121000EE0FFF1FE20FF31F45915491C416D50640
:1012200011F0E62EF82E452B09F4B6CF9F5F6E2DF8
:101230008F2DEBCF20E030E0BACFA4010E2C01C0FF
:10124000440F0A94EAF7242B2683209175033091EA
:1012500076032233310508F0B8CF22E330E0309333
:10126000760320937503B1CF8091E3039091E4035B
:10127000009729F00E94DC21C39708F025C18091D6
:10128000E103B091E203982FE0E0F0E08B1709F45E
:101290005FC0282F30E0F901EE0FFF1FE752FC4F2F
:1012A000E080F1804E9CF0014F9CF00D1124E95636
:1012B000FE4F40814A8F41814B8FA0E060E070E09B
:1012C000EA8DFB8DE70FF11DE70FF11D259034909E
:1012D00021143104D1F0F801F081F88FF801F18187
:1012E000F98F60E0E88DF98DE60FF11DE60FF11D35
:1012F000459154914115510531F02416350609F4F4
:10130000A1E06F5FEFCF7F5FDBCFAA23D1F067173C
:1013100008F4D4C04E9CF0014F9CF00D1124E95606
:10132000FE4F309781F05482E017F10719F4909343
:10133000E1035ACF891307C0C9010196982F937012
:1013400002C0E0E0F0E02F5F3F4F822F83709ECF1E
:101350009093E103E017F10709F446CF90E0FC0118
:10136000EE0FFF1FE752FC4FB182A08201968370FF
:1013700099278093E20338CF311112C0A40102C033
:10138000440F551F9A95E2F74150510930E042173A
:101390005307E9F56623E1F1C5010E94C62237C073
:1013A000822F90E09C0121503109282339230E2CF3
:1013B00002C0959587950A94E2F7232B31F580FFBB
:1013C00024C0F80182819381892BD9F088E0EE89CD
:1013D000FF8911928A95E9F78EEF89838A830E94AB
:1013E000EB218160582F9D838C83F801828193814A
:1013F0008F83988729813A814B816D817E810E94FC
:101400000F18F801158281E003C0817001C080E0EF
:1014100094010E2C01C0220F0A94EAF72095F801DE
:10142000968129232683682EDFCE612CDDCE8B8525
:10143000882381F1772071F10E94EB219093E403DE
:101440008093E30380917803883008F04AC091E0EC
:10145000980F9093780398E0FE013996DE0111967B
:1014600001900D929A95E1F74CE0849FC001112400
:1014700087589C4F28E0FE013196DC0101900D92C7
:101480002A95E1F72FEF3FEFFC0131872087D386C4
:10149000C28627C09091E1038091E203981719F06A
:1014A0000E94752308C00E94F4221092E403109257
:1014B000E3030E945523772051F013C00115110555
:1014C00009F43FCF9093E103F80154828DCE298532
:1014D0003A854B855C856D857E858F8598890E94D0
:1014E0000F186B96E2E10C942D25A0E2B0E0EBE73B
:1014F000FAE00C941325FC018081918123813481D1
:10150000232B31F09F3F31F491E08F3F19F403C05A
:1015100091E001C090E090FDCFC48F0161E0CF0168
:101520000E9467066C01D80112968C918823E1F025
:101530008091E6039091E7030097B1F0C816D906B1
:1015400099F0BEE08B9FC0011124FC01E25EFE4FCA
:10155000208124602083875E9E4FFC01D182C0825F
:101560000E949B221092E50390917702D801129677
:101570008C911297992309F44CC081117DC4E0919C
:101580004702E33098F481E08E0F80934702F0E049
:10159000EE0FFF1FED52FD4F8D919C919183808343
:1015A00082E08983CE0101960E94DC14BFEFE3ED57
:1015B000F0E3B150E040F040E1F700C0000080915E
:1015C0004702833009F058C410924702E9EDF2E077
:1015D000A3EDB2E08FED92E0318111962C9111973D
:1015E00032132EC030812C9132132AC032961296BB
:1015F0008E179F0789F784E0898381E080937802C2
:101600008EEF8A8310927702CE0101960E94DC143D
:1016100033C4909178029923C1F0811102C087E010
:1016200001C086E08983D8018C918A8311968C91C0
:101630008B838EEF8C83CE0101960E94DC1405C053
:1016400083E0898310927802DBCFF8018281F3EB8B
:10165000CF16FDE5DF06D1F5882309F45CC1909132
:101660009E0281E0890F8770987F853020F4892B56
:1016700080939E0202C090939E0280919E0287708A
:10168000BFEF8B9FC0011124959587959595879500
:101690009927909389008093880090938B00809382
:1016A0008A0090938D0080938C0040919E0250910F
:1016B0009F026091A0027091A1028FE090E00E94D1
:1016C000EA258091B0020E94AF0625C1E6EBCE1656
:1016D000EDE5DE0609F0C3C0882309F41CC144EA25
:1016E000E42E41E0F42E5AE0452EF7012491222306
:1016F00009F411C1213009F04EC031968491813036
:1017000069F4F2E0EF0EF11CF7018491893319F0CE
:1017100060E070E09CC060E570E099C0823041F408
:10172000F2E0EF0EF11CF70184910E94DC1893C0E7
:10173000833041F4F2E0EF0EF11CF70184910E9436
:10174000B01889C0843009F085C0F2E0EF0EF11CBA
:10175000F701249180E090E030E0205331092A30F5
:10176000310570F4489EA001499E500D1124C90115
:10177000840F951FFFEFEF1AFF0AF7012491ECCFBA
:10178000009709F468C0AFE9BFE01197F1F700C016
:1017900000000197F5CFE22FF0E0EC5DFE4F549092
:1017A000822F86958695869590E0FC01EC5EFE4F33
:1017B00064902770712C022E02C0759467940A946D
:1017C000E2F7B1E06B227724FC01EC5FFE4F8490DE
:1017D000912C022E02C0959487940A94E2F7E1E0DE
:1017E0008E229924FC01EC50FF4FA490B12C02C032
:1017F000B594A7942A95E2F7F1E0AF22BB246114D7
:10180000710419F081EE0E94DC188114910409F42E
:101810004AC386EE0E94DC1829E3521609F43DC340
:1018200060E070E0852D0E947C198114910419F00C
:1018300086EE0E94B0186114710419F081EE0E94C6
:10184000B018A114B10439F060E070E08CE20E949D
:101850007C1901C07F013FEFE31AF30A46CF9601DE
:1018600037552F3F310511F008F055C05601BB2404
:101870009EE0C99EF0011124DF01A75EBE4F7D01ED
:10188000E25EFE4F908180FB90F99083F8018281A7
:101890008823E1F10E94EB219093D1028093D00242
:1018A000D70112968C9112978F5F12968C93129794
:1018B0009091E50380914902892B13968C9313979D
:1018C00080916A0314968C9314971696ED91FC916F
:1018D0001797309731F01C966D917C911D97C70139
:1018E00009958EE08A9DF0018B9DF00D1124E25E3A
:1018F000FE4F808181FD03C09C2D8D2D02C090E0A4
:1019000080E09093E6038093E70305C091FF03C056
:10191000CD010E948122D80112968C91882309F46E
:1019200072C0BCE5CB16BDE5DB0609F467C068F400
:10193000C114FCE5DF06C1F02FEDC2162CE5D2067E
:1019400009F061C00E949A1E4EC03EE5C3163DE5F7
:10195000D30609F44BC008F453C099EAC9169DE5B3
:10196000D90609F440C04FC0109249020E94FB17EB
:10197000AFEFB4E3ECE0A150B040E040E1F700C0CD
:101980000000F89481E08093E00080E28093D8002A
:101990001092C9008FE19EE40197F1F700C00000AA
:1019A0001DBA109268001CBC10BE1FBA10927A00BB
:1019B00010926E0010926F001092710010927200DF
:1019C0001092C9001092BC0014B817B81AB81DB80C
:1019D00010BA1092BC0015B818B81BB81EB811BACE
:1019E0000C94003F49C20E94970646C28091F403BE
:1019F00082FB882780F991E0892703C081E001C03C
:101A000080E00E94961FF801868197810097B9F4C3
:101A1000F8018281E080F180882349F0C7010E94AB
:101A20001515D82E682FC7010E947E1704C0C70164
:101A30000E944A17D82EB7018D2D0E94FA1C0E94D1
:101A4000131D7C01D8011296DC9012971596CC904C
:101A5000C2943FE0C322809149038770B9F0DD2032
:101A6000A9F08F2D807F803421F080E28E0D8830A8
:101A700068F08091F40382FF09C082E00E94791F20
:101A8000809149038770BB24B3948111B12CAF2C92
:101A9000A2942FE0A2228A2D90E08C30910508F0CC
:101AA000C8C1FC01EC59FF4F0C9473268F2D807F29
:101AB0009F2D9F70F92E882319F0F29490EFF92250
:101AC000DD20B9F0FF2009F4A1C180E28E0D88303D
:101AD00010F0E11006C090914902F92AF0924902F3
:101AE00005C09091E503F92AF092E5030E94241FB6
:101AF0008DC18E2D0E94B018FF2009F49AC180E29A
:101B00008E0D883078F1EE2069F18F2D0E94161F1E
:101B10002CC08F2D807F9F2D9F70F92E803219F061
:101B2000F29480EFF822EE2021F0B1E0EB16D9F12B
:101B300047C08091F40382FD1BC0DD2069F0FF20C7
:101B400039F090914902F92AF09249020E94241F2B
:101B500080E00E94DC186DC180E00E94B018FF2078
:101B600009F467C18F2D0E941D1F0E94241F61C1AF
:101B7000DD2081F080916A03CC2051F0E1E0CE12AB
:101B800007C0F82AF81609F454C1F0926A0351C14B
:101B90008F2910C0CC2021F0F1E0CF1609F449C103
:101BA0000E94101F1FC0DD2041F021E02C1508F419
:101BB00040C18F2D0E94A6183CC1C1103AC112C06D
:101BC000DD2019F0CC20A9F321C1CC2059F039E354
:101BD000E3122CC18FEF97EEA3E081509040A0401C
:101BE000E1F722C18F2D0E949F1823C18F2D86956A
:101BF0008695837019F0813059F01BC1DD2019F0F2
:101C0000C701937002C080E090E00E945E2217C17D
:101C1000DD2019F0C701937002C080E090E00E94BF
:101C200048220DC18F2D8370B1F5D11006C14E2D04
:101C3000429546954770440F440F8E2D8F7090E06B
:101C40009C01042E01C0220F0A94EAF7E4FE08C0AA
:101C50008FE090E001C0880F4A95EAF7809501C0B7
:101C600080E04F2D469546954370423069F088F4E8
:101C700090916B03413019F0822B892302C0922B83
:101C8000892B0E94F617D9C0822B90916B0389276C
:101C9000F8CF822BF6CFDD2019F08F2D817001C097
:101CA0008695882309F4C9C04E2D42954695477004
:101CB000440F440F8E2D8F7090E09C01042E01C0C4
:101CC000220F0A94EAF7E4FE08C08FE090E001C01A
:101CD000880F4A95EAF7809501C080E04F2D469520
:101CE00046954370423059F078F49091B0024130FB
:101CF00019F0822B892309C0922B892B06C0822BD5
:101D00009091B002892701C0822B0E94B31795C021
:101D1000BF2DBF70FB2EDD2039F08B2F0E94EA17FC
:101D20008E2D0E94A61889C08E2D0E949F188F2D7F
:101D30000E94DD1782C0E2EFEE1671F1EE1538F069
:101D4000F0EFEF1659F021EFE21609F15BC033EF27
:101D5000E31649F184EFE816B1F054C0DD2071F0CC
:101D6000C11067C02F2D2F7181E090E001C0880F56
:101D70002A95EAF79091B002892720C091E09C153E
:101D800008F457C0EFCF8091F40382FD1AC0DD2024
:101D900029F08F2D8F7129C0DD20D9F38F2D8F7100
:101DA0000E94DD1746C0DD2041F09F2D9F7181E02C
:101DB00001C0880F9A95EAF701C080E00E94B3172E
:101DC00038C0DD20A9F0AF2DAF71FA2E8A2F0E9406
:101DD000EA178091F40382FF07C0B8E0FB9EC001C0
:101DE00011248360809349038F2D0E94EA1721C03C
:101DF00081E00E94791FE1E0EC15D8F482E00E94B6
:101E0000791F17C0DD2021F0CC2019F28E2DA1CE34
:101E1000CC2021F2F9E3EF1209C02FEF37EE83E077
:101E2000215030408040E1F700C000008E2D0E941C
:101E3000B01888EF8A0D843010F40E947422BB2001
:101E4000B1F08091490380FD12C0D80112961C9216
:101E50008595859585950E94EA17C8010E94750AA7
:101E6000809149038595859585950E94DD1760E0F1
:101E7000C8010E94670620C0809149038770E1F085
:101E8000D80112968C918823B9F08091F40382FFD7
:101E900013C082E00E94791F0FC060E570E089E303
:101EA0000E947C19C5CCF9E35F12BACC60E570E002
:101EB00089E30E947C19BFCCA096E0E10C942F2509
:101EC00080916F0287FF11C08091E80082FD05C0FC
:101ED00080917A028111F8CF11C08091E8008B7750
:101EE0000BC080917A02882349F08091E80080FF3E
:101EF000F8CF8091E8008E778093E8000895982FBE
:101F0000973068F59093E900981739F07091EC00DC
:101F10002091ED005091F00003C0242F762F50E067
:101F200021FD02C09F5FECCF3091EB003E7F3093EC
:101F3000EB003091ED003D7F3093ED003091EB00F0
:101F400031603093EB007093EC002093ED005093E0
:101F5000F0002091EE0027FDE5CF80E008958F701E
:101F60008093E90081E00895209175023091760216
:101F70002617370748F06115710539F42091E800FC
:101F80002E772093E80001C0B901FC0120E0611523
:101F9000710579F180917A028823F1F18530F1F1B0
:101FA0008091E80083FD3CC08091E80082FD2EC056
:101FB0008091E80080FFEBCF2091F3008091F20048
:101FC00090E0922B6115710551F08830910538F43D
:101FD00021912093F100615071090196F3CF21E026
:101FE000089709F020E08091E8008E778093E80060
:101FF000CECF2111CFCF0AC080917A02882361F021
:10200000853061F08091E80083FD0AC08091E8008E
:1020100082FFF2CF80E0089582E0089583E0089582
:1020200081E008950895BC0184E00E948C21089508
:10203000BC0183E00E948C210895AAE2B0E0E3E2B3
:10204000F0E10C942025EFE6F2E087E792E02091A2
:10205000F10021938E179F07D1F780917002833092
:1020600009F463C030F4813071F0823009F49FC00C
:10207000B6C08A3009F48BC08B3009F46EC0893049
:1020800009F0ADC020C080916F02813A09F0A7C06D
:102090008091E800877F8093E8008091730290919F
:1020A0007402892B21F460E28CE492E003C060E0CA
:1020B00080E090E070E00E94B40F8091E8008B77A0
:1020C0008093E8008CC080916F02813209F087C054
:1020D0008091730290917402009719F0029709F0B1
:1020E0007EC08091E800877F8093E8008091E800BF
:1020F00082FD05C080917A028111F8CF70C02091D5
:10210000F3008091F20090E0922B029731F48091DD
:10211000F100813011F0863021F48091F10080933C
:102120004B028091E8008B7756C080916F02813A14
:1021300009F055C08091730290917402892B09F0C7
:102140004EC08091E800877F8093E8008091E8008E
:1021500080FFFCCF80910A0139C080916F028132EB
:10216000F1F58091730290917402892BC1F58091F1
:10217000E800877F8093E8000E94600F80917102E1
:1021800080930A01109249020E94FB1728C0809197
:102190006F02813221F58091E800877F8093E8000B
:1021A0000E94600F8091720280934A0218C0809151
:1021B0006F02813AA1F48091E800877F8093E80064
:1021C0008091E80080FFFCCF80914A028093F1006B
:1021D0008091E8008E778093E8000E94600F8091E4
:1021E000E80083FFDFC180916F0290917002492F58
:1021F00050E04A30510508F0D5C1FA01E059FF4FCF
:102200000C947326803821F0823809F0CBC108C0C5
:1022100080916C0290916D02992389F082600FC0C9
:10222000809173028F70873008F0BCC18093E90001
:102230008091EB0085FB882780F91092E90090914E
:10224000E800977F9093E8008093F1001092F100EE
:1022500070C1282F2D7F09F0A5C1882319F0823085
:1022600061F0A0C180917102813009F09BC193306F
:1022700009F080E080936D022EC08091710281117F
:102280002AC0809173028F702FEF280F263008F03C
:1022900089C18093E9002091EB0020FF1CC093309E
:1022A00021F48091EB00806214C09091EB0090616A
:1022B0009093EB0021E030E0A90102C0440F551FCC
:1022C0008A95E2F74093EA001092EA008091EB00D1
:1022D00088608093EB001092E9008091E800877F8E
:1022E0008093E8000E94600F5DC181115BC1109175
:1022F00071021F778091E3008078812B8093E30047
:102300008091E800877F8093E8000E94600F8091B1
:10231000E80080FFFCCF8091E30080688093E300B9
:10232000111102C082E001C083E080937A023AC1B9
:102330008058823008F036C12091710230917202CB
:102340002C3D53E0350779F583E08A838AE289835F
:102350004FB7F894DE01139620E03EE051E2E32F00
:10236000F0E050935700E49120FF03C0E295EF7036
:102370003F5FEF708E2F90E0EA3010F0C79601C0FB
:10238000C0968D939D932F5F243149F74FBF809165
:10239000E800877F8093E8006AE270E0CE01019652
:1023A0000E94B40FB4C08091730290917402432FC5
:1023B000552743305105A9F068F44130510509F41F
:1023C00000C14230510509F0EDC08BE590E0E7EA2D
:1023D000F2E04BC04132510529F14232510589F1F9
:1023E000E1C0C901992781309105A1F058F0029709
:1023F00009F0D8C0E4E1F3E0E4918E2F90E0E4E14D
:10240000F3E030C0E6E5F3E0E4918E2F90E0E6E5FE
:10241000F3E028C0ECE2F3E0E4918E2F90E0ECE2F0
:10242000F3E020C08330910508F0BCC0880F991FED
:10243000FC01E251FE4F0190F081E02D89E090E037
:1024400014C08330910508F0ADC0FC01EE0FFF1FF2
:10245000E851FE4F0190F081E02DDC01AB51BE4F01
:102460008C9190E0009709F49DC02091E800277FAF
:102470002093E800209175023091760228173907E1
:1024800008F4C90140E0009789F120917A022223E3
:1024900009F43DC02530D9F12091E80023FD37C073
:1024A0002091E80022FD2FC02091E80020FFEBCF13
:1024B0004091F3002091F20030E0342B009759F066
:1024C0002830310540F444914093F1003196019752
:1024D0002F5F3F4FF3CF41E02830310509F040E056
:1024E0002091E8002E772093E800CDCF4111CDCF89
:1024F0000AC080917A02882351F0853041F08091A2
:10250000E80083FD04C08091E80082FFF2CF809153
:10251000E8008B778093E80045C0803809F042C01E
:102520008091E800877F8093E80080916E0280931D
:10253000F1008091E8008E77D3CE811133C0809175
:102540007102909172029927029764F58091E800D8
:10255000877F8093E8001091710210936E020E94B1
:10256000600F111106C08091E30087FD02C081E079
:1025700001C084E080937A0242E061EC81E00E9435
:102580007F0F42E261EC84E00E947F0F42E261EC47
:1025900082E00E947F0F42E260EC83E00E947F0FA6
:1025A00080917A028091E80083FF10C08091E8005A
:1025B000877F8093E8008091EB0080628093EB003E
:1025C00005C082E190E0E2E0F3E04FCFAA96E3E0BD
:1025D0000C943C251F920F920FB60F9211242F934B
:1025E0003F934F935F936F937F938F939F93AF939B
:1025F000BF93CF93DF93EF93FF93C091E900CF7028
:102600008091EC00D82FD17080FDD0E81092E900C5
:102610008091F000877F8093F00078940E941D10D5
:102620001092E9008091F00088608093F000CD2B3B
:10263000CF70C093E900FF91EF91DF91CF91BF91EF
:10264000AF919F918F917F916F915F914F913F914A
:102650002F910F900FBE0F901F901895E8EDF0E0AE
:1026600080818E7F80831092E2001092DA001092B7
:10267000E100A0EEB0E08C9181608C9380818F7737
:10268000808319BCA7EDB0E08C918E7F8C93808104
:102690008F7E8083109248020895A0E0B0E0E3E5C9
:1026A000F3E10C941B25C8EDD0E088818F7E8883F0
:1026B000E7EDF0E080818160808384E082BF81E08B
:1026C0008093480288818E7F888302EE10E0F801B3
:1026D00010821092DA0081EEC82ED12CF601108201
:1026E00088818F77888388818068888388818F7DBF
:1026F000888319BC10927A0210926E0210926D02B9
:1027000010926C0290EEE92EF12CF70180818B7F04
:10271000808388818160888342E060E080E00E945D
:102720007F0FF60180818E7F8083F8018081816038
:102730008083808188608083F70180818E7F8083A1
:10274000888180618883CDB7DEB7E8E00C943725B7
:102750001F920F920FB60F9211242F933F934F9316
:102760005F936F937F938F939F93AF93BF93EF93F9
:10277000FF938091E10082FF09C08091E20082FF17
:1027800005C08091E1008B7F8093E1008091DA00A9
:1027900080FF2AC08091D80080FF26C08091DA0097
:1027A0008E7F8093DA008091D90080FF18C080E18D
:1027B00089BD82E189BD09B400FEFDCF81E080932F
:1027C0007A028091480281110FC00E942E130E944C
:1027D0004D138091E20084608093E20005C019BC33
:1027E00010927A02109248028091E10080FF17C097
:1027F0008091E20080FF13C08091E2008E7F809381
:10280000E2008091E20080618093E2008091D80034
:1028100080628093D80019BC85E080937A02809111
:10282000E10084FF30C08091E20084FF2CC080E191
:1028300089BD82E189BD09B400FEFDCF8091D80039
:102840008F7D8093D8008091E1008F7E8093E1009E
:102850008091E2008F7E8093E2008091E2008160AF
:102860008093E20080916E02882311F084E007C01B
:102870008091E30087FD02C081E001C083E0809386
:102880007A0280917A028091E10083FF27C08091D3
:10289000E20083FF23C08091E100877F8093E10005
:1028A00082E080937A0210926E028091E1008E7F26
:1028B0008093E1008091E2008E7F8093E20080911E
:1028C000E20080618093E20042E060E080E00E94EC
:1028D0007F0F8091F00088608093F000FF91EF916E
:1028E000BF91AF919F918F917F916F915F914F9128
:1028F0003F912F910F900FBE0F901F901895209130
:10290000E4003091E50095E64091EC00842F817061
:1029100040FF23C08091E80080FD1DC080917A02B5
:10292000882399F0853099F08091EB0085FD11C0E6
:102930004091E4005091E5002417350729F39150A8
:1029400011F09A01E1CF84E0089582E0089583E0D8
:10295000089581E0089580E008954091E80042FFE5
:10296000DDCF0895EF92FF920F931F93CF93DF93E4
:102970007C018B010E947F14811119C0E7010115B0
:102980001105A1F08091E80085FD0AC08091E80062
:102990008E778093E8000E947F14882381F307C01C
:1029A00089918093F10001501109E9CF80E0CDB702
:1029B000DEB7E6E00C943925CF9320917A022430DB
:1029C00029F5C091E900CF703091EC00232F2170E0
:1029D00030FD20E8C22B22E02093E9002091E8009E
:1029E00020FF11C040E050E060E270E00E94B214AD
:1029F000882321F010927702109278028091E800EB
:102A00008E778093E800CF70C093E900CF9108954E
:102A100080E090E00E945E2280E090E00E944822E8
:102A20001092E5030E94241F0895CF92DF92FF9237
:102A30000F931F93CF93DF936C010091B0028091AD
:102A40006B03082BC7E0D0E010E0C8010C2E02C0D9
:102A5000959587950A94E2F780FD04C02197A8F721
:102A6000F12C09C0FC2EB6018C2F0E94FA1C0E948A
:102A7000131D019799F38F2DDF91CF911F910F9126
:102A8000FF90DF90CF900895CF93DF93EC010E94E9
:102A90001515BE010E94FA1C0E94131DDF91CF91F3
:102AA0000895CF93FC019081818123813481232B70
:102AB00031F08F3F31F481E09F3F19F403C081E092
:102AC00001C080E0C82FC17080FD23C0868197813E
:102AD000009719F00E94131D04C0808191810E940B
:102AE000441592959F70963079F010F4925001C081
:102AF0009A50923088F4803F71F018F4883E60F468
:102B00000AC0843F49F407C0883E28F0813F21F481
:102B100002C0C0E001C0C1E08C2FCF910895A5E1B3
:102B2000B0E0E5E9F5E10C9418258C0185E0F801A9
:102B3000DE01519601900D928A95E1F7F801E2804D
:102B40009091FF02609100034091020350910303B2
:102B50004115510531F06F3F31F481E09F3F19F489
:102B600003C081E001C080E0F82FF1709F2E80FD4E
:102B70004FC1F80130812181C380D4807FEFA72E1F
:102B800072E0B72EF0900103F601E41BF50BFF2075
:102B900009F4F0C080910403E83CF10508F0ABC0F3
:102BA000482F407F09F05BC062131BC0931319C00C
:102BB0006091050370910603F801468157816417FF
:102BC000750779F4FE2CE1100CC08F708061809342
:102BD0000403C5010E94750A80910403F8018583EE
:102BE00054C1C114D10431F02F3F31F481E03F3F93
:102BF00019F403C081E001C080E080FD03C081E0E2
:102C00008E2502C080E090E0F82FF170FF2E80FF4B
:102C10001CC08091480340910703841709F413C135
:102C200090E0FC0153E0EE0FFF1F5A95E1F7E85FDB
:102C3000FC4F5181251306C05081531303C05281AC
:102C4000E51203C001968770E8CFFE2CEE2009F450
:102C50001CC18091040381608093040358C06213F7
:102C60000FC093130DC04091050350910603F80166
:102C7000268137814217530719F4EE2009F4A7C0C3
:102C8000C8010E945115882381F1EE2071F1209135
:102C90000403822F82958F7090E00297A4F08091B8
:102CA000FF02909100039A8789871B86DD86CC8678
:102CB0002E878091050390910603988B8F87CE0114
:102CC00009960E94750A88E0F801AFEFB2E0019022
:102CD0000D928A95E1F70E94BC1F0AC06217C9F0E5
:102CE000C8010E945115811127C0C8010E94750AB0
:102CF000FF24F394CAC0482F407F81F78FEF92E002
:102D00000E94750A88E0F50111928A95E9F7F12C85
:102D1000BCC09313E5CF4091050350910603F80121
:102D20002681378142175307D9F6E110D9CF858321
:102D3000C8010E94750A66C0EE20B9F22091040312
:102D4000822F82958F7090E002970CF4BCCF809117
:102D5000FF02909100039A8389831B82DD82CC82DB
:102D60002E83809105039091060398878F83CE016F
:102D70000196A7CFE83CF10508F044C0FE2CEE20F8
:102D800009F4B3CF621330C093132EC02091050312
:102D900030910603F801868197812817390721F5BC
:102DA0009091040390FD17C0892F82958F70282F72
:102DB00030E02115310579F095832F30310541F050
:102DC0008F5F982F9295907F85818F70892B858357
:102DD000C8010E94750A88E0F801AFEFB2E00190E7
:102DE0000D928A95E1F751C0C8010E9451158111D9
:102DF0006ACF80910403816080930403C8010E941C
:102E0000750A43C088E0F50111928A95E9F73DC043
:102E1000EE2009F46ACFC8010E945115F82E8823CC
:102E200009F463CF88E0F801AFEFB2E001900D92B2
:102E30008A95E1F78091FF02909100030E9444156A
:102E40000E94BC1F22C0398B2A8B89899A890E94D3
:102E50004415292F22952F70223028F49F7039F0C5
:102E6000811105C00BC0243028F49F7049F4805EA6
:102E7000883020F0C8010E94750A9F2CF92C05C0EB
:102E8000F8019581907F99F7F9CF8F2D6596EBE04A
:102E90000C943425292F9E3078F5863068F590E023
:102EA00036E0239F800D911D1124682F677023E069
:102EB000969587952A95E1F7FC01EE0FFF1FE80F25
:102EC000F91FE558FD4F40E050E080E0219130E0EF
:102ED000062E02C0369527950A94E2F72170332713
:102EE000042E01C0220F0A94EAF7822B4F5F5F4F36
:102EF0004330510559F7089580E00895292F9E30F9
:102F000088F5863078F590E036E0239F800D911D9E
:102F10001124282F277051E001C0550F2A95EAF798
:102F200023E0969587952A95E1F7FC01EE0FFF1FA8
:102F3000E80FF91FE558FD4F20E030E070E04081D8
:102F4000CB01022E02C0969587950A94E2F7817014
:102F5000819584278523842781932F5F3F4F2330DA
:102F6000310569F70895A0E2B0E0E9EBF7E10C94D0
:102F700020250E94AF06182F809178028823A9F09F
:102F80002FEF80E792E0215080409040E1F700C0B1
:102F9000000085E08983812F0E9453068A838EEF8B
:102FA0008B83CE0101960E94DC141093B0020E9424
:102FB0000815A096E3E00C943C2521E030E001C028
:102FC000220F8A95EAF720958091B00282230E9411
:102FD000B317089521E030E001C0220F8A95EAF787
:102FE0008091B002822B0E94B317089580936B03E7
:102FF0000E940815089580910A01882331F080917C
:10300000F30387FF02C08EE101C086E0E1EEF2E04B
:10301000DF011D928A95E9F70E9408150895A0E145
:10302000B0E0E5E1F8E10C94212529873A874B8748
:103030005C876D877E878F87988BCE0109960E946B
:103040008F15811151C088E0FE013996DE0111967D
:1030500001900D928A95E1F779856A854C855D85A9
:103060004115510531F06F3F31F481E07F3F19F494
:1030700003C081E001C080E080FD36C0A09107035D
:10308000B0E0CD010196877099272091480330E088
:103090008217930781F179836A835D834C8393E080
:1030A000AA0FBB1F9A95E1F7A85FBC4F98E0FE01FD
:1030B000319601900D929A95E1F7809307030E9453
:1030C000B21F12C028E0829FC0011124885F9C4F6C
:1030D0000E948F158823F1F08091480390E00196BB
:1030E0008770992780934803809148039091070344
:1030F0008913E8CF0FC0109249020E94FB1710926B
:10310000070310924803EFEFF2E088E0DF011D9221
:103110008A95E9F76096E2E00C943D25882321F03A
:103120000E94161F0E94241F0895882339F0909151
:10313000E503892B8093E5030E94241F08958823CB
:1031400021F00E941D1F0E94241F0895882339F03A
:1031500090914902892B809349020E94241F08956F
:10316000882349F1682F8CEF860F813A28F48FED80
:1031700092E00E9420220CC080E2860F883058F432
:10318000677081E001C0880F6A95EAF70E941D1FF1
:103190000E94241F08958BE5860F833028F480E079
:1031A00090E00E945E220895685A673120F480E022
:1031B00090E00E9448220895CF93882309F49AC092
:1031C000C82F8CEF8C0F813A08F05EC080910A0105
:1031D0008823E1F08091F30387FF18C0EC2FE69578
:1031E000E695E695F0E0E152FD4F8281282F30E030
:1031F0004C2F477081E090E002C0880F991F4A95DC
:10320000E2F782239323892B59F411C0E1EEF2E017
:103210008191C81729F082E0E73EF807C9F707C097
:103220006C2F8FED92E00E9420220E94241F80913B
:103230000A018823C9F08091F30387FF15C0AC2FE2
:10324000A695A695A695B0E0A152BD4FC77081E0A6
:1032500090E001C0880FCA95EAF712969C911297E8
:10326000892B12968C9320C0A1EEB2E0EFEF80E0A4
:103270009D91C917C9F0EF3F19F4911101C0E82FD2
:103280008F5F8630A9F72DC080E28C0F883078F4EC
:10329000C77081E090E001C0880FCA95EAF790916D
:1032A0004902892B809349020E94241F23C0EBE529
:1032B000EC0FE33040F4F0E0E050FE4F808190E00E
:1032C0000E945E2217C0C85AC731A0F4EC2FF0E06C
:1032D000EE0FFF1FED5FFD4F808191810E9448221C
:1032E00009C0EF3F09F30E2E000CFF0BE152FD4F1A
:1032F000C283DACFCF9108951F93CF93DF93182F16
:10330000EB010E94DC18209741F08FE99FE00197C4
:10331000F1F700C000002197F6CF812F0E94B0186E
:10332000DF91CF911F910895ACE5B0E0EAE9F9E1B2
:103330000C94142585B7806885BF85B7806885BFE4
:1033400084B7877F84BF0FB6F894A89580916000FA
:10335000886180936000109260000FBE90E080E86A
:103360000FB6F89480936100909361000FBE85EBD7
:103370009CE190933302809332020E942E130E94AC
:103380004D138091E20084608093E20078948091F4
:103390007A028823A1F01091E9001F709091EC004F
:1033A000892F817090FD80E8182B1092E9008091A0
:1033B000E80083FD0E941D101F701093E90082E059
:1033C00084BD93E095BD9AEF97BD80936E000E94F7
:1033D000D90690E090931801809317010E94140879
:1033E0000E945A08E2EAF2E0A3EBB2E011921D92C9
:1033F00022E0E03BF207D1F78EE090E00E947926D0
:1034000080939C0290939D02FC010E961192E81706
:10341000F907E1F789EA8093800089E080938100D1
:1034200024982C983F988AB18F7C8AB96E98479AD5
:103430008BB180638BB9769A8FE090E00E94BC25B7
:1034400060939E0270939F028093A0029093A102CA
:1034500067708FEF689FB00111247595679575951A
:1034600067957727709389006093880070938B002D
:1034700060938A0070938D0060938C000E945007C7
:1034800080E090E00E94C225883E9E4F11F00E948D
:103490009A1E82E090E00E94B4258093C10284E0ED
:1034A00090E00E94B425182F82E290E00E94B4259B
:1034B000212F30E0382B3093F4032093F30383E083
:1034C00090E00E94B4250E94F6178091B0020E94FD
:1034D000AF068BE091E09093EB038093EA0338E131
:1034E000E32EF12C41ECC42E42E0D42E80917A02DE
:1034F000853009F055C020E4B22E00E112E1809140
:103500007A02853009F046C080917A02843009F150
:103510001092EE030FB6F894A895E09260000FBEEB
:10352000B092600083B7817F846083BF83B781607E
:1035300083BF7894889583B78E7F83BF0FB6F89446
:10354000A89580916000886180936000109260006F
:103550000FBE80916D02882391F20E94D90690E0FF
:1035600090931801809317010E9414080E945A0832
:10357000E3EBF2E0119222E0E13CF207D9F70E947E
:103580002320E3EBF2E081918111D7C1CE16DF0653
:10359000D1F7B5CF109249020E94FB170E94742206
:1035A0000E94232092ECA92E92E0B92EA3EBB2E068
:1035B000F50191918D91892792E0E03DF90719F08D
:1035C0008823B9F332C0811130C00E94EB218C01F5
:1035D0008091B1029091B2020817190709F473C0E3
:1035E0008FEF64968FAF649765968FAF65976696F9
:1035F0001FAE66970E94EB218160782F68969FAF7F
:103600008EAF689764964FAD649765965FAD65978A
:1036100066966FAD669768968FAD68970E9467084B
:103620001093B2020093B1024EC083EB882E82E069
:10363000982E10E0F40151904F01F501608065244F
:1036400081F100E077247394862D872121F169961A
:103650000FAF69976A961FAF6A9791E0852D872112
:1036600009F490E06B969FAF6B970E94EB2181600D
:10367000782F6D969FAF8EAF6D9769964FAD699716
:103680006A965FAD6A976B966FAD6B976D968FADCF
:103690006D970E9467080F5F770C0630A9F6F50159
:1036A00050821F5FFFEFAF1ABF0A1E3009F0C2CF72
:1036B0008FB7F8944091EF035091F0036091F103BC
:1036C0007091F2038FBF8091E6039091E703892BFD
:1036D000C9F08091D0029091D1020E94DC21893CF6
:1036E000910580F08091E6032EE0829FC0011124B5
:1036F000FC01E25EFE4F208122FD04C0875E9E4FEA
:103700000E949B228091E401882341F18091E30390
:103710009091E403009711F10E94DC212091750340
:103720003091760328173907C8F49091E10380910E
:10373000E203981759F00E947523109276031092B5
:1037400075031092E4031092E30308C00E94F42270
:103750001092E4031092E3030E9455230E94742206
:103760009091D202891769F08093D2028FB7F894B2
:103770004091EF035091F0036091F1037091F203D7
:103780008FBF80917A02843009F0B0CE83E08093BD
:10379000E9008091E80082FFA9CE8091E80085FFD2
:1037A00022C00E947F1481111CC000E210E05E0163
:1037B00081E2A80EB11C08C08091F100F50181934F
:1037C0005F010150110969F08091E80085FDF4CF97
:1037D0008091E8008B778093E8000E947F14882313
:1037E00099F391E001C090E08091E8008B7780939D
:1037F000E800992309F47ACE89A1823099F040F447
:103800008823A9F1813009F071CE09ED12E03CC0A6
:10381000853009F489C0863009F486C0843009F007
:1038200065CE76C08BA19AA19093D3028093D402E7
:103830008DA19CA19093D5028093D6028FA19EA1C9
:103840009093D7028093D80242E150E063E270E0A7
:10385000CE018F5B9F4F0E94A42584E0898381E085
:10386000809378028EEF8A831092770261C019826A
:103870008CE0E4EFF1E0DE01129601900D928A9562
:10388000E1F78EEF8D8754C00E940D24F8018193DB
:1038900091938F01F2E00F3D1F07B1F781E089831B
:1038A0009091D9029A839091DA029B839091DB02E6
:1038B0009C839091DC029D839091DD029E83909188
:1038C000DE029F839EEF988780937702CE01019658
:1038D0000E94DC1442E150E063E270E0CE01019608
:1038E0000E94A425FE01319682E183301CF091896B
:1038F000928B01C0128A815031978F3FB1F742E11C
:1039000050E063E270E0CE0101960E94C825EECD42
:1039100080917802882309F4E9CD80E00E94B317F2
:103920008AA10E94EA17E2CD8FEF898384E08A831F
:10393000CE0101960E94DC14D9CD09BD19BD09B490
:1039400000FEFDCF8091D8008F7D8093D8008091BC
:10395000E00082608093E0008091E00081FDFCCF78
:10396000109249020E94FB17CACD80E00895909101
:10397000F30392FF0DC0282F2871283019F4877F98
:10398000846006C0282F2471243011F48B7F886056
:1039900093FF0DC0282F2871283119F4877E846188
:1039A00006C0282F2471243111F48B7E8861209168
:1039B000F40320FF0DC0382F3871383019F4877F99
:1039C000816006C0382F3171313011F48E7F8860EC
:1039D00021FF0DC0282F2871283119F4877E8161BD
:1039E00006C0282F2171213111F48E7E886194FD4B
:1039F000877E08957E30A0F4663090F494E5899F28
:103A0000F001112486E0789FE00DF11D1124E60FEE
:103A1000F11DEE0FFF1FE65AFC4F8591949108951A
:103A200080E090E00895CF93DF938238910569F1AB
:103A3000B0F48133910509F477C048F489329105D7
:103A400009F469C08A32910509F473C092C08533C4
:103A5000910509F45BC089339105B9F08AC0833EB2
:103A6000910591F138F4803E9105D1F0823E9105A7
:103A700031F17FC0863E9105D9F1873E9105E9F18C
:103A8000843E910509F075C028C02091F30320FD04
:103A90005BC021FD59C02091F40323FD61C069C0C2
:103AA0008091F30380FD4AC08091F40380FF4CC0F5
:103AB0008091F30384FD39C183EE90E038C1809199
:103AC000F30382FF3EC0F4CF8091F30382FD39C03F
:103AD0008091F40380FD38C0EBCF8091F40381FF27
:103AE00039C08091F30384FD20C187EE90E01FC1AF
:103AF0008091F30383FF2BC0F4CF8091F30383FD08
:103B000026C08091F40381FD25C0EBCF8091F303A3
:103B100085FD26C022C08091F30385FD1EC08091E3
:103B2000F40383FF1DC00AC08091F30386FD1BC010
:103B30001DC08091F30386FD19C015C089E390E094
:103B4000F6C082EE90E0F3C080EE90E0F0C086EE2A
:103B500090E0EDC084EE90E0EAC085E390E0E7C03D
:103B600089E290E0E4C08AE290E0E1C081E390E085
:103B7000DEC0811532E5930708F05FC0811541E58D
:103B8000940728F0982F8827816F906AD0C0883ECC
:103B9000910568F5803E910508F0C9C0883A910505
:103BA000B8F4853A910548F0855AE82FF0E0E050E6
:103BB000FE4F808190E09064BAC08130910509F495
:103BC000B1C008F4B2C08430910508F4AEC0AFC0F3
:103BD0008F3B910508F0A9C0885AE82FF0E0EE0F5E
:103BE000FF1FED5FFD4F808191819464A0C081151E
:103BF00020E59207A0F0AC014370552721E030E0AA
:103C000002C0220F331F4A95E2F78695869540E25F
:103C1000849FC0011124822B932B9D6888C081153D
:103C200030E4930718F09F70906A81C09C013A9528
:103C300021153F4108F47BC078C0EC01C11586E531
:103C4000D807E8F5C11525E5D20748F08C2F0E946A
:103C5000B71C8F7190E0982F8827906268C0C115BB
:103C600034E5D30728F09C2F8827846F906A5FC0C3
:103C7000AE01437055272C2F26952695C115D345A7
:103C800078F481E090E002C0880F991F4A95E2F72E
:103C900040E2249F90011124822B932B9C6847C003
:103CA00081E090E002C0880F991F4A95E2F740E258
:103CB000249F90011124822B932B9A6838C0C11540
:103CC0002AE5D207F8F4C11539E5D30790F08C2F17
:103CD0008F700E94B71C94E0D695C7959A95E1F72E
:103CE000CF70D0E0DC2FCC27D0699E01282BC901F2
:103CF0001EC0C11548E5D407C0F09C2F8827806FEF
:103D0000906A15C0CE0190568115904270F48D2FA7
:103D10008F710E94B71C282F2F71CE0199279062B6
:103D2000922B05C081E090E002C080E090E0DF913E
:103D3000CF91089568EE7EEF80E090E00E94F62536
:103D400060E082E090E00E94D82560E083E090E0AF
:103D50000E94D82510926B0360E084E090E00E94FE
:103D6000D82564E082E290E00E94D82560E085E0FA
:103D700090E00E94D82560E086E090E00E94D8257F
:103D80006FEF87E090E00E94D82540E050E0BA0154
:103D900088E090E00E94EA2560E08DE090E00E94DB
:103DA000D82540E050E0BA0188E190E00E94EA2581
:103DB00060E087E190E00E94D82540E050E0BA0141
:103DC0008CE190E00E94EA2560E070E080E290E003
:103DD0000E94F62540E050E0BA0188E190E00E94A0
:103DE000EA2510929E0210929F021092A002109259
:103DF000A10284E080939E0240919E0250919F0216
:103E00006091A0027091A1028FE090E00E94EA25EB
:103E100040E050E0BA0183E190E00E94EA25089575
:103E200080916A03811110926A03089580959091A0
:103E3000E50389238093E5030895809590914902D5
:103E40008923809349020895909149028091E50366
:103E5000982B9093DF0280916A038823D9F0892BF5
:103E60008093DF0280910A01882331F08091F3036F
:103E700087FF02C08EE101C086E0E1EEF2E090E053
:103E8000815028F021912223D9F39F5FF9CF91111E
:103E90000E94101F40E250E06AE473E08FED92E070
:103EA0000E949A27892B21F180E2EFEDF2E0AAE44B
:103EB000B3E001900D928A95E1F7E091EA03F09169
:103EC000EB033097A9F080910A01882359F0809183
:103ED000F30387FF07C08091DF028093E00286E052
:103EE0008093DF020280F381E02D8FED92E009954F
:103EF0000895209149038095822380934903982F48
:103F0000977099F430E0482F082E000C550B2417B9
:103F1000350759F09091F40392FF07C08595859578
:103F200085950E94DD17109249030895CF93C091A3
:103F3000F403C2FB992790F9981791F080FBC2F91E
:103F4000C093F4036091F30384E090E00E94D825CD
:103F50006C2F82E290E00E94D82582E00E94791FB7
:103F6000CF9108958091480390910703891719F024
:103F70008F5F8770FBCF08951F93CF93DF9380915E
:103F8000040382958F7009F05AC080910103882341
:103F900009F455C080914803109107036091FF0216
:103FA00070910003C0910203D091030391E06F3F31
:103FB00009F090E0292F811709F441C0209721F0E2
:103FC0007F3F21F030E003C031E001C0322F90E0AC
:103FD00030FD32C0FC0133E0EE0FFF1F3A95E1F7F0
:103FE000DF01A85FBC4F11963C911197371324C095
:103FF0003C91361321C012963C91129731111CC08E
:1040000013964D915C9114974C1B5D0B483C5105E8
:1040100098F4809104038F70806180930403E35FC0
:10402000FC4F80818F70806180838FEF92E00E94CF
:10403000750A0E94B21F03C001968770BCCFDF9142
:10404000CF911F910895A0E0B0E0E9E2F0E20C9476
:104050001B258091170190911801892B91F0809177
:104060006C038F5F80936C0381110BC00E94D90693
:1040700090E09093180180931701892B11F40E940E
:10408000500702EA12E07801D0E0C0E087E0C82ED5
:10409000CC0E8C2F0E94C0078C2D0E94C0078C2F45
:1040A0000E9423088F73F7019081891721F0808384
:1040B000DD24D39401C0D12C8C2D0E9423088F7352
:1040C000F7019781891719F0878381E001C080E0AB
:1040D000D82ADD290E941408CF5FFFEFEF1AFF0AEC
:1040E000C730A1F610927103C0917003CC2309F47C
:1040F000C4C00E94EB2120916E0330916F03AC018C
:10410000421B530B9A0190936F0380936E034F3FB2
:10411000510509F018F4452B19F102C02FEF30E0DA
:104120001092700310926D03E0919C02F0919D0239
:10413000AF01425F5F4F90E030E08081882341F023
:10414000281718F010829C2F03C0821B80833C2FFD
:104150003196E417F50789F73093700390936D0358
:10416000DD2309F47BC0E0919C02F0919D028091D7
:10417000710390917003A3EBB2E0AF01425F5F4F18
:104180006EE1E80128813C91321779F030813111DC
:104190000CC060832C9398819227282F30E0292B24
:1041A00081E0232B09F480E091E0319611960F5FB6
:1041B0001F4FE417F50729F780937103909370035D
:1041C000C0917103209177028091730390917403E1
:1041D0002223C9F1892B31F425982D9826982E9801
:1041E00027982F9880917303909174039170892B75
:1041F00079F480917203882319F026982E9802C0D2
:10420000269A2E9A9091720381E0892780937203F7
:1042100080917303909174038130984750F010920D
:1042200077028091B0020E94AF0610927403109240
:1042300073038091730390917403019690937403B8
:10424000809373031EC0892BE1F0109274031092C7
:1042500073038091B0020E94AF0613C081E0909179
:104260006D03992309F4ACCF81117DCF0E94EB211E
:1042700090936F0380936E0376CFD111F7CF80E0D8
:10428000EECF8C2FCDB7DEB7E8E00C94372508953C
:1042900080914B020895CF93DF9320910A0122234E
:1042A00039F02091F30327FF03C060E224E002C04D
:1042B00068E021E02093E9002FEF3091E8002150E1
:1042C00035FD06C035ED3A95F1F700002111F5CF27
:1042D0002091E80025FF1DC0EC0180910A018111A9
:1042E00005C040E050E068E070E003C070E040E0EE
:1042F00050E0CE010E94B2148091E8008E77809346
:10430000E80080E2FE01ACE4B2E001900D928A95F3
:10431000E1F7DF91CF9108958093F5037093F70350
:104320006093F60380917A028430F9F48093E90077
:104330008FEF9091E800815095FD06C095ED9A951C
:10434000F1F700008111F5CF8091E80085FF0DC0E5
:1043500040E050E063E070E085EF93E00E94B2142B
:104360008091E8008E778093E800089578941F92FA
:104370000F920FB60F9211248F939F93AF93BF9319
:104380008091EF039091F003A091F103B091F203BB
:104390000196A11DB11D8093EF039093F003A093AC
:1043A000F103B093F203BF91AF919F918F910F9062
:1043B0000FBE0F901F9018959C014FB7F8948091F5
:1043C000EF039091F003A091F103B091F2034FBF7E
:1043D000821B930B08952FB7F8948091EF0390916F
:1043E000F003A091F103B091F2032FBF08951F9243
:1043F0000F920FB60F9211248F939F93AF93BF9399
:104400008091EE03811113C08091EF039091F0032E
:10441000A091F103B091F2034196A11DB11D8093CB
:10442000EF039093F003A093F103B093F203BF91D5
:10443000AF919F918F910F900FBE0F901F90189585
:1044400020910A012223C9F02091F30327FF15C010
:10445000262F2695269526952E31C8F4FC01E20FCD
:10446000F11D677081E090E001C0880F6A95EAF75E
:1044700080959281892382830895FC01069622818A
:10448000621301C012823196E817F907C1F7089547
:104490002091EC033091ED032817390771F09093C8
:1044A000ED038093EC03E091EA03F091EB03309786
:1044B00021F00084F185E02D099508952091E8030D
:1044C0003091E9032817390771F09093E90380933D
:1044D000E803E091EA03F091EB03309721F00680C6
:1044E000F781E02D09950895E091EA03F091EB033F
:1044F000309729F00190F081E02D0995089580E032
:104500000895CF93DF93EC01EA85FB85309719F08E
:104510006C857D8509958B810E94161F8C810E9478
:104520001D1F0E94241F86E0FE0111928A95E9F763
:10453000DF91CF910895CF93DF93EC018D8181FDC1
:1045400018C082608D839091E5038B81892B8093C5
:10455000E503909149028C81892B809349020E9446
:10456000241FE885F985309721F06C857D85CE0183
:1045700009951092E7031092E6038D8180FD03C038
:10458000CE010E948122DF91CF910895BC0140911C
:10459000E1038091E203942F981729F1292F30E04D
:1045A000F901EE0FFF1FE752FC4F0190F081E02D63
:1045B000E617F70799F487E0869FF001879FF00DD3
:1045C0001124E956FE4F81E0848394130CC02F5FC1
:1045D0003F4F237033272093E10308952F5F3F4F10
:1045E000922F9370D9CF08950F931F93CF93DF939A
:1045F00080917803882309F453C0C09177031CE0AD
:1046000080917803C81708F047C001E00C0F0093B1
:104610007703D0E01C9FF0011D9FF00D1124E75897
:10462000FC4F9081818123813481232B31F08F3F96
:1046300031F481E09F3F19F403C081E001C080E0C4
:1046400080FD28C01C9FD0011D9FB00D1124A758CC
:10465000BC4F16968D919C911797892B31F4189623
:104660008D919C911997019651F42081318142815D
:10467000538164817581868197810E940F181C9FE8
:10468000F0011D9FF00D1124E758FC4F1482138296
:104690001092E503C02FB4CF1092780310927703E5
:1046A000DF91CF911F910F91089510927603109290
:1046B0007503E7E9F1E08581811102C01482168259
:1046C000379681E0E43EF807B1F708951092E403CD
:1046D0001092E3031092E4018091E2038093E103DE
:1046E0000E9455230E94F4220895A0E0B0E0EBE779
:1046F000F3E20C941125C091E103E7E0FE2E01E006
:1047000010E0FCE02F2EAEEFEA2E8091E203C817F6
:1047100009F47AC0D0E0FE01EE0FFF1FE752FC4F14
:1047200080819181F89EF001F99EF00D1124E956E7
:10473000FE4F2481211165C060907803A9E7B3E0A2
:1047400020E030E0712C5F01261508F058C01A9661
:104750004D905C901B97F501808091804FEF5FEF4B
:10476000312CC32CD12CF601EE0FFF1FE80DF91DE3
:10477000659174914616570609F4A601672B11F04E
:104780003394EFCF4F3FFFEF5F07A9F1B80102C0AD
:10479000660F771F4A95E2F7762AA801032C02C01C
:1047A000440F551F0A94E2F741505109672D70E0FC
:1047B00046175707E1F4229EF001239EF00D1124C5
:1047C000E758FC4FF89ED001F99EB00D1124A95670
:1047D000BE4F12962D913C91139737832683E0822A
:1047E000E1829187808771E015967C9308C01496CA
:1047F0001C921E9213972F5F3F4F1C96A5CF0E94CD
:10480000C6222196C37081CF0E94F4220E945523B4
:10481000CDB7DEB7E2E10C942D25CF93DF930E9454
:10482000942566E070E00E945F26D82F0E949425B0
:104830006EE070E00E945F26C82F6D2F782F80E019
:104840000E94FA1C0497C59718F48D2F9C2F02C064
:104850000E940D24DF91CF9108951092B9008CE051
:104860008093B8000895A0E0B0E0E9E3F4E20C948E
:104870001825B82EEB010E94EB216C01C431D10543
:1048800058F0CF3F8FEFD80759F0CE0164E170E0C8
:104890000E94FD247B0107C0EE24E394F12C03C0A9
:1048A00025E0E22EF12C84E8A82E94EA992E1092AD
:1048B000BC009092BC000E94EB218C018091BC0056
:1048C00087FD07C0C8010E94DC21E816F906B0F791
:1048D00029C08091B900887F883041F08091B9006B
:1048E000887F803119F00FEF1FEF1EC0B092BB0020
:1048F000A092BC000E94EB218C018091BC0087FD3E
:1049000007C0C8010E94DC21E816F906B0F70AC00A
:104910008091B900887F883111F0803421F700E060
:1049200010E00EC00EEF1FEFCF3F8FEFD80709F456
:10493000BECFC6010E94DC21C817D90708F0B7CF47
:10494000C801CDB7DEB7EBE00C9434250F931F936D
:10495000CF93DF93EB018093BB0084E88093BC008E
:104960000E94EB218C018091BC0087FD0DC0CF3FE0
:104970008FEFD807C1F3C8010E94DC21C817D907FF
:1049800090F78EEF9FEF0CC02091B900287F81E057
:1049900090E0283211F480E090E0919581959109A2
:1049A000DF91CF911F910F9108950F931F93CF9394
:1049B000DF93EC0184E88093BC000E94EB218C0122
:1049C0008091BC0087FD0DC0CF3F8FEFD807C1F3AA
:1049D000C8010E94DC21C817D90790F78EEF9FEF1E
:1049E00003C08091BB0090E0DF91CF911F910F91A8
:1049F000089584E98093BC000895AA1BBB1B51E174
:104A000007C0AA1FBB1FA617B70710F0A61BB70B3E
:104A1000881F991F5A95A9F780959095BC01CD01E3
:104A200008952F923F924F925F926F927F928F9252
:104A30009F92AF92BF92CF92DF92EF92FF920F932D
:104A40001F93CF93DF93CDB7DEB7CA1BDB0B0FB637
:104A5000F894DEBF0FBECDBF09942A8839884888F4
:104A60005F846E847D848C849B84AA84B984C8848A
:104A7000DF80EE80FD800C811B81AA81B981CE0F81
:104A8000D11D0FB6F894DEBF0FBECDBFED01089566
:104A90008F929F92AF92BF92CF92DF92EF92FF924E
:104AA000CF93DF93EC01688179818A819B816115C5
:104AB00071058105910521F464E279ED8BE597E0BC
:104AC0002DE133EF41E050E00E94FC2549015A01FD
:104AD0009B01AC01A7EAB1E40E941B266B017C019B
:104AE000ACEEB4EFA50194010E942926DC01CB01B4
:104AF0008C0D9D1DAE1DBF1DB7FF03C00197A10901
:104B0000B04888839983AA83BB839F77DF91CF9135
:104B1000FF90EF90DF90CF90BF90AF909F908F90DD
:104B200008950E944825089580E091E00E9448255C
:104B30000895A0E0B0E08093000190930101A0935C
:104B40000201B09303010895DC01CB01FC01F99946
:104B5000FECF06C0F2BDE1BDF89A319600B40D92C9
:104B600041505040B8F70895F999FECF92BD81BDEC
:104B7000F89A992780B50895A6E1B0E044E050E0A6
:104B80000C94A625A8E1B0E042E050E00C94A625E4
:104B9000DC01A40FB51F4150504048F0CB01840FF9
:104BA000951F2E910E94D92541505040D0F708956D
:104BB000262FF999FECF92BD81BDF89A019700B4D6
:104BC000021639F01FBA20BD0FB6F894FA9AF99A76
:104BD0000FBE08950396272F0E94D9250E94D8253D
:104BE000252F0E94D925242F0C94D9250196272FF3
:104BF0000E94D9250C94D825052E97FB1EF400940D
:104C00000E94132657FD07D00E942E2607FC03D0D2
:104C10004EF40C94132650954095309521953F4FB6
:104C20004F4F5F4F089590958095709561957F4F98
:104C30008F4F9F4F08950E945026A59F900DB49FBF
:104C4000900DA49F800D911D11240895B7FF0C9421
:104C50001B260E941B26821B930B0895A1E21A2E8D
:104C6000AA1BBB1BFD010DC0AA1FBB1FEE1FFF1F10
:104C7000A217B307E407F50720F0A21BB30BE40B60
:104C8000F50B661F771F881F991F1A9469F76095A7
:104C90007095809590959B01AC01BD01CF01089561
:104CA000A29FB001B39FC001A39F700D811D11246D
:104CB000911DB29F700D811D1124911D089597FBC8
:104CC000072E16F4009407D077FD09D00E94FD242A
:104CD00007FC05D03EF4909581959F4F08957095FF
:104CE00061957F4F0895EE0FFF1F0590F491E02D21
:104CF00009940F931F93CF93DF938230910510F4A3
:104D000082E090E0E091FA03F091FB0320E030E0D4
:104D1000A0E0B0E0309719F1408151810281138108
:104D200048175907C8F08417950769F4109731F0B0
:104D300012960C93129713961C9327C00093FA03B4
:104D40001093FB0322C02115310519F042175307B8
:104D500018F49A01BD01EF01DF01F801DBCF211545
:104D60003105F9F0281B390B2430310580F48A8194
:104D70009B816115710521F0FB019383828304C03F
:104D80009093FB038093FA03FE01329644C0FE0128
:104D9000E20FF31F819391932250310939832883C5
:104DA0003AC02091F8033091F903232B41F420916C
:104DB0000601309107013093F9032093F803209105
:104DC0000401309105012115310541F42DB73EB79D
:104DD0004091080150910901241B350BE091F80323
:104DE000F091F903E217F307A0F42E1B3F0B2817ED
:104DF000390778F0AC014E5F5F4F2417350748F054
:104E00004E0F5F1F5093F9034093F80381939193E2
:104E100002C0E0E0F0E0CF01DF91CF911F910F9150
:104E20000895CF93DF93009709F481C0FC01329776
:104E300013821282A091FA03B091FB03109781F4C0
:104E400020813181820F931F2091F8033091F90363
:104E50002817390751F5F093F903E093F80367C079
:104E6000ED0120E030E0CE17DF0740F44A815B819E
:104E70009E0141155105F1F0EA01F5CFD383C283BC
:104E800040815181840F951FC817D90759F4888133
:104E90009981840F951F0296918380838A819B81DB
:104EA000938382832115310529F4F093FB03E0936A
:104EB000FA033DC0E901FB83EA8349915991C40F8C
:104EC000D51FEC17FD0761F480819181840F951F38
:104ED0000296E90199838883828193819B838A83E7
:104EE000E0E0F0E012968D919C911397009719F0F5
:104EF000FD01DC01F7CF8D919C9111979D012E5FF3
:104F00003F4F820F931F2091F8033091F903281728
:104F1000390769F4309729F41092FB031092FA03D1
:104F200002C013821282B093F903A093F803DF91B9
:104F3000CF910895FB01DC0104C08D91019080198F
:104F400021F441505040C8F7881B990B0895F894FC
:024F5000FFCF91
:104F5200010000000000FC0320000148214B214712
:104F6200211810131012102000000000000000177A
:104F7200053306DF030000000000000000FB0413FD
:104F820006C2030000000000000000DF04F305A5D4
:104F9200030000000000000000C304D305880300E2
:104FA20000000000000000A704B3056B030000002E
:104FB20000000000008B0493054E03000000000077
:104FC2000000006F047305310300000000000000C0
:104FD20000530453051403000000000000000037D2
:104FE200043305F7020000E8042900000000E2048F
:104FF2003102000000DC042402000000D604065442
:10500200000000D0042E00000000CA042E0200009E
:1050120000C4043100000000BE043100000000B8EA
:10502200041E02000000B004B65D000000AA0438AD
:10503200000000000140226D67024502D801B9025A
:10504200D202F20252674F52652F774D34776F00CA
:10505200818283E200E900EA00B500B600B700CD24
:10506200008301CC008A01920194012102230224CF
:10507200022502260227022A02B300B4006F007042
:0250820000002C
:00000001FF
